{
	"contracts/todoList.sol": {
		"Demo": {
			"abi": [
				{
					"inputs": [
						{
							"internalType": "string",
							"name": "_name",
							"type": "string"
						}
					],
					"name": "create",
					"outputs": [],
					"stateMutability": "nonpayable",
					"type": "function"
				},
				{
					"inputs": [
						{
							"internalType": "uint256",
							"name": "index_",
							"type": "uint256"
						}
					],
					"name": "get1",
					"outputs": [
						{
							"internalType": "string",
							"name": "name_",
							"type": "string"
						},
						{
							"internalType": "bool",
							"name": "status_",
							"type": "bool"
						}
					],
					"stateMutability": "view",
					"type": "function"
				},
				{
					"inputs": [
						{
							"internalType": "uint256",
							"name": "index_",
							"type": "uint256"
						}
					],
					"name": "get2",
					"outputs": [
						{
							"internalType": "string",
							"name": "name_",
							"type": "string"
						},
						{
							"internalType": "bool",
							"name": "status_",
							"type": "bool"
						}
					],
					"stateMutability": "view",
					"type": "function"
				},
				{
					"inputs": [
						{
							"internalType": "uint256",
							"name": "",
							"type": "uint256"
						}
					],
					"name": "list",
					"outputs": [
						{
							"internalType": "string",
							"name": "name",
							"type": "string"
						},
						{
							"internalType": "bool",
							"name": "isCompleted",
							"type": "bool"
						}
					],
					"stateMutability": "view",
					"type": "function"
				},
				{
					"inputs": [
						{
							"internalType": "string",
							"name": "name_",
							"type": "string"
						},
						{
							"internalType": "uint256",
							"name": "_index",
							"type": "uint256"
						}
					],
					"name": "modiName1",
					"outputs": [],
					"stateMutability": "nonpayable",
					"type": "function"
				},
				{
					"inputs": [
						{
							"internalType": "string",
							"name": "name_",
							"type": "string"
						},
						{
							"internalType": "uint256",
							"name": "_index",
							"type": "uint256"
						}
					],
					"name": "modiName2",
					"outputs": [],
					"stateMutability": "nonpayable",
					"type": "function"
				},
				{
					"inputs": [
						{
							"internalType": "uint256",
							"name": "index_",
							"type": "uint256"
						},
						{
							"internalType": "bool",
							"name": "status_",
							"type": "bool"
						}
					],
					"name": "modiStatus1",
					"outputs": [],
					"stateMutability": "nonpayable",
					"type": "function"
				},
				{
					"inputs": [
						{
							"internalType": "uint256",
							"name": "index_",
							"type": "uint256"
						}
					],
					"name": "modiStatus2",
					"outputs": [],
					"stateMutability": "nonpayable",
					"type": "function"
				}
			],
			"devdoc": {
				"kind": "dev",
				"methods": {},
				"version": 1
			},
			"evm": {
				"assembly": "    /* \"contracts/todoList.sol\":59:1514  contract Demo {... */\n  mstore(0x40, 0x80)\n  callvalue\n  dup1\n  iszero\n  tag_1\n  jumpi\n  0x00\n  dup1\n  revert\ntag_1:\n  pop\n  dataSize(sub_0)\n  dup1\n  dataOffset(sub_0)\n  0x00\n  codecopy\n  0x00\n  return\nstop\n\nsub_0: assembly {\n        /* \"contracts/todoList.sol\":59:1514  contract Demo {... */\n      mstore(0x40, 0x80)\n      callvalue\n      dup1\n      iszero\n      tag_1\n      jumpi\n      0x00\n      dup1\n      revert\n    tag_1:\n      pop\n      jumpi(tag_2, lt(calldatasize, 0x04))\n      shr(0xe0, calldataload(0x00))\n      dup1\n      0xb6a46b3b\n      gt\n      tag_11\n      jumpi\n      dup1\n      0xb6a46b3b\n      eq\n      tag_7\n      jumpi\n      dup1\n      0xcaaa0317\n      eq\n      tag_8\n      jumpi\n      dup1\n      0xcd00620d\n      eq\n      tag_9\n      jumpi\n      dup1\n      0xd511b4be\n      eq\n      tag_10\n      jumpi\n      jump(tag_2)\n    tag_11:\n      dup1\n      0x31184dc3\n      eq\n      tag_3\n      jumpi\n      dup1\n      0x4112a18e\n      eq\n      tag_4\n      jumpi\n      dup1\n      0x80c9419e\n      eq\n      tag_5\n      jumpi\n      dup1\n      0x9c117f0f\n      eq\n      tag_6\n      jumpi\n    tag_2:\n      0x00\n      dup1\n      revert\n        /* \"contracts/todoList.sol\":1329:1511  function get2(uint256 index_) external view returns(string memory name_,bool status_){... */\n    tag_3:\n      tag_12\n      0x04\n      dup1\n      calldatasize\n      sub\n      dup2\n      add\n      swap1\n      tag_13\n      swap2\n      swap1\n      tag_14\n      jump\t// in\n    tag_13:\n      tag_15\n      jump\t// in\n    tag_12:\n      mload(0x40)\n      tag_16\n      swap3\n      swap2\n      swap1\n      tag_17\n      jump\t// in\n    tag_16:\n      mload(0x40)\n      dup1\n      swap2\n      sub\n      swap1\n      return\n        /* \"contracts/todoList.sol\":699:811  function modiStatus1(uint256 index_,bool status_) external {... */\n    tag_4:\n      tag_18\n      0x04\n      dup1\n      calldatasize\n      sub\n      dup2\n      add\n      swap1\n      tag_19\n      swap2\n      swap1\n      tag_20\n      jump\t// in\n    tag_19:\n      tag_21\n      jump\t// in\n    tag_18:\n      stop\n        /* \"contracts/todoList.sol\":155:173  Todo[] public list */\n    tag_5:\n      tag_22\n      0x04\n      dup1\n      calldatasize\n      sub\n      dup2\n      add\n      swap1\n      tag_23\n      swap2\n      swap1\n      tag_14\n      jump\t// in\n    tag_23:\n      tag_24\n      jump\t// in\n    tag_22:\n      mload(0x40)\n      tag_25\n      swap3\n      swap2\n      swap1\n      tag_17\n      jump\t// in\n    tag_25:\n      mload(0x40)\n      dup1\n      swap2\n      sub\n      swap1\n      return\n        /* \"contracts/todoList.sol\":1033:1214  function get1(uint256 index_) external view returns(string memory name_,bool status_){... */\n    tag_6:\n      tag_26\n      0x04\n      dup1\n      calldatasize\n      sub\n      dup2\n      add\n      swap1\n      tag_27\n      swap2\n      swap1\n      tag_14\n      jump\t// in\n    tag_27:\n      tag_28\n      jump\t// in\n    tag_26:\n      mload(0x40)\n      tag_29\n      swap3\n      swap2\n      swap1\n      tag_17\n      jump\t// in\n    tag_29:\n      mload(0x40)\n      dup1\n      swap2\n      sub\n      swap1\n      return\n        /* \"contracts/todoList.sol\":201:364  function create(string memory _name) external  {... */\n    tag_7:\n      tag_30\n      0x04\n      dup1\n      calldatasize\n      sub\n      dup2\n      add\n      swap1\n      tag_31\n      swap2\n      swap1\n      tag_32\n      jump\t// in\n    tag_31:\n      tag_33\n      jump\t// in\n    tag_30:\n      stop\n        /* \"contracts/todoList.sol\":370:478  function modiName1(string memory name_,uint256 _index) external {... */\n    tag_8:\n      tag_34\n      0x04\n      dup1\n      calldatasize\n      sub\n      dup2\n      add\n      swap1\n      tag_35\n      swap2\n      swap1\n      tag_36\n      jump\t// in\n    tag_35:\n      tag_37\n      jump\t// in\n    tag_34:\n      stop\n        /* \"contracts/todoList.sol\":486:629  function modiName2(string memory name_,uint256 _index) external {... */\n    tag_9:\n      tag_38\n      0x04\n      dup1\n      calldatasize\n      sub\n      dup2\n      add\n      swap1\n      tag_39\n      swap2\n      swap1\n      tag_36\n      jump\t// in\n    tag_39:\n      tag_40\n      jump\t// in\n    tag_38:\n      stop\n        /* \"contracts/todoList.sol\":865:982  function modiStatus2(uint256 index_) external {... */\n    tag_10:\n      tag_41\n      0x04\n      dup1\n      calldatasize\n      sub\n      dup2\n      add\n      swap1\n      tag_42\n      swap2\n      swap1\n      tag_14\n      jump\t// in\n    tag_42:\n      tag_43\n      jump\t// in\n    tag_41:\n      stop\n        /* \"contracts/todoList.sol\":1329:1511  function get2(uint256 index_) external view returns(string memory name_,bool status_){... */\n    tag_15:\n        /* \"contracts/todoList.sol\":1381:1400  string memory name_ */\n      0x60\n        /* \"contracts/todoList.sol\":1401:1413  bool status_ */\n      0x00\n        /* \"contracts/todoList.sol\":1425:1442  Todo storage temp */\n      dup1\n        /* \"contracts/todoList.sol\":1445:1449  list */\n      0x00\n        /* \"contracts/todoList.sol\":1450:1456  index_ */\n      dup5\n        /* \"contracts/todoList.sol\":1445:1457  list[index_] */\n      dup2\n      sload\n      dup2\n      lt\n      tag_45\n      jumpi\n      tag_46\n      tag_47\n      jump\t// in\n    tag_46:\n    tag_45:\n      swap1\n      0x00\n      mstore\n      keccak256(0x00, 0x20)\n      swap1\n      0x02\n      mul\n      add\n        /* \"contracts/todoList.sol\":1425:1457  Todo storage temp = list[index_] */\n      swap1\n      pop\n        /* \"contracts/todoList.sol\":1476:1480  temp */\n      dup1\n        /* \"contracts/todoList.sol\":1476:1485  temp.name */\n      0x00\n      add\n        /* \"contracts/todoList.sol\":1486:1490  temp */\n      dup2\n        /* \"contracts/todoList.sol\":1486:1502  temp.isCompleted */\n      0x01\n      add\n      0x00\n      swap1\n      sload\n      swap1\n      0x0100\n      exp\n      swap1\n      div\n      0xff\n      and\n        /* \"contracts/todoList.sol\":1468:1503  return (temp.name,temp.isCompleted) */\n      dup2\n      dup1\n      sload\n      tag_49\n      swap1\n      tag_50\n      jump\t// in\n    tag_49:\n      dup1\n      0x1f\n      add\n      0x20\n      dup1\n      swap2\n      div\n      mul\n      0x20\n      add\n      mload(0x40)\n      swap1\n      dup2\n      add\n      0x40\n      mstore\n      dup1\n      swap3\n      swap2\n      swap1\n      dup2\n      dup2\n      mstore\n      0x20\n      add\n      dup3\n      dup1\n      sload\n      tag_51\n      swap1\n      tag_50\n      jump\t// in\n    tag_51:\n      dup1\n      iszero\n      tag_52\n      jumpi\n      dup1\n      0x1f\n      lt\n      tag_53\n      jumpi\n      0x0100\n      dup1\n      dup4\n      sload\n      div\n      mul\n      dup4\n      mstore\n      swap2\n      0x20\n      add\n      swap2\n      jump(tag_52)\n    tag_53:\n      dup3\n      add\n      swap2\n      swap1\n      0x00\n      mstore\n      keccak256(0x00, 0x20)\n      swap1\n    tag_54:\n      dup2\n      sload\n      dup2\n      mstore\n      swap1\n      0x01\n      add\n      swap1\n      0x20\n      add\n      dup1\n      dup4\n      gt\n      tag_54\n      jumpi\n      dup3\n      swap1\n      sub\n      0x1f\n      and\n      dup3\n      add\n      swap2\n    tag_52:\n      pop\n      pop\n      pop\n      pop\n      pop\n      swap2\n      pop\n      swap3\n      pop\n      swap3\n      pop\n      pop\n        /* \"contracts/todoList.sol\":1329:1511  function get2(uint256 index_) external view returns(string memory name_,bool status_){... */\n      swap2\n      pop\n      swap2\n      jump\t// out\n        /* \"contracts/todoList.sol\":699:811  function modiStatus1(uint256 index_,bool status_) external {... */\n    tag_21:\n        /* \"contracts/todoList.sol\":796:803  status_ */\n      dup1\n        /* \"contracts/todoList.sol\":769:773  list */\n      0x00\n        /* \"contracts/todoList.sol\":774:780  index_ */\n      dup4\n        /* \"contracts/todoList.sol\":769:781  list[index_] */\n      dup2\n      sload\n      dup2\n      lt\n      tag_56\n      jumpi\n      tag_57\n      tag_47\n      jump\t// in\n    tag_57:\n    tag_56:\n      swap1\n      0x00\n      mstore\n      keccak256(0x00, 0x20)\n      swap1\n      0x02\n      mul\n      add\n        /* \"contracts/todoList.sol\":769:793  list[index_].isCompleted */\n      0x01\n      add\n      0x00\n        /* \"contracts/todoList.sol\":769:803  list[index_].isCompleted = status_ */\n      0x0100\n      exp\n      dup2\n      sload\n      dup2\n      0xff\n      mul\n      not\n      and\n      swap1\n      dup4\n      iszero\n      iszero\n      mul\n      or\n      swap1\n      sstore\n      pop\n        /* \"contracts/todoList.sol\":699:811  function modiStatus1(uint256 index_,bool status_) external {... */\n      pop\n      pop\n      jump\t// out\n        /* \"contracts/todoList.sol\":155:173  Todo[] public list */\n    tag_24:\n      0x00\n      dup2\n      dup2\n      sload\n      dup2\n      lt\n      tag_59\n      jumpi\n      0x00\n      dup1\n      revert\n    tag_59:\n      swap1\n      0x00\n      mstore\n      keccak256(0x00, 0x20)\n      swap1\n      0x02\n      mul\n      add\n      0x00\n      swap2\n      pop\n      swap1\n      pop\n      dup1\n      0x00\n      add\n      dup1\n      sload\n      tag_61\n      swap1\n      tag_50\n      jump\t// in\n    tag_61:\n      dup1\n      0x1f\n      add\n      0x20\n      dup1\n      swap2\n      div\n      mul\n      0x20\n      add\n      mload(0x40)\n      swap1\n      dup2\n      add\n      0x40\n      mstore\n      dup1\n      swap3\n      swap2\n      swap1\n      dup2\n      dup2\n      mstore\n      0x20\n      add\n      dup3\n      dup1\n      sload\n      tag_62\n      swap1\n      tag_50\n      jump\t// in\n    tag_62:\n      dup1\n      iszero\n      tag_63\n      jumpi\n      dup1\n      0x1f\n      lt\n      tag_64\n      jumpi\n      0x0100\n      dup1\n      dup4\n      sload\n      div\n      mul\n      dup4\n      mstore\n      swap2\n      0x20\n      add\n      swap2\n      jump(tag_63)\n    tag_64:\n      dup3\n      add\n      swap2\n      swap1\n      0x00\n      mstore\n      keccak256(0x00, 0x20)\n      swap1\n    tag_65:\n      dup2\n      sload\n      dup2\n      mstore\n      swap1\n      0x01\n      add\n      swap1\n      0x20\n      add\n      dup1\n      dup4\n      gt\n      tag_65\n      jumpi\n      dup3\n      swap1\n      sub\n      0x1f\n      and\n      dup3\n      add\n      swap2\n    tag_63:\n      pop\n      pop\n      pop\n      pop\n      pop\n      swap1\n      dup1\n      0x01\n      add\n      0x00\n      swap1\n      sload\n      swap1\n      0x0100\n      exp\n      swap1\n      div\n      0xff\n      and\n      swap1\n      pop\n      dup3\n      jump\t// out\n        /* \"contracts/todoList.sol\":1033:1214  function get1(uint256 index_) external view returns(string memory name_,bool status_){... */\n    tag_28:\n        /* \"contracts/todoList.sol\":1085:1104  string memory name_ */\n      0x60\n        /* \"contracts/todoList.sol\":1105:1117  bool status_ */\n      0x00\n        /* \"contracts/todoList.sol\":1129:1145  Todo memory temp */\n      dup1\n        /* \"contracts/todoList.sol\":1148:1152  list */\n      0x00\n        /* \"contracts/todoList.sol\":1153:1159  index_ */\n      dup5\n        /* \"contracts/todoList.sol\":1148:1160  list[index_] */\n      dup2\n      sload\n      dup2\n      lt\n      tag_67\n      jumpi\n      tag_68\n      tag_47\n      jump\t// in\n    tag_68:\n    tag_67:\n      swap1\n      0x00\n      mstore\n      keccak256(0x00, 0x20)\n      swap1\n      0x02\n      mul\n      add\n        /* \"contracts/todoList.sol\":1129:1160  Todo memory temp = list[index_] */\n      mload(0x40)\n      dup1\n      0x40\n      add\n      0x40\n      mstore\n      swap1\n      dup2\n      0x00\n      dup3\n      add\n      dup1\n      sload\n      tag_70\n      swap1\n      tag_50\n      jump\t// in\n    tag_70:\n      dup1\n      0x1f\n      add\n      0x20\n      dup1\n      swap2\n      div\n      mul\n      0x20\n      add\n      mload(0x40)\n      swap1\n      dup2\n      add\n      0x40\n      mstore\n      dup1\n      swap3\n      swap2\n      swap1\n      dup2\n      dup2\n      mstore\n      0x20\n      add\n      dup3\n      dup1\n      sload\n      tag_71\n      swap1\n      tag_50\n      jump\t// in\n    tag_71:\n      dup1\n      iszero\n      tag_72\n      jumpi\n      dup1\n      0x1f\n      lt\n      tag_73\n      jumpi\n      0x0100\n      dup1\n      dup4\n      sload\n      div\n      mul\n      dup4\n      mstore\n      swap2\n      0x20\n      add\n      swap2\n      jump(tag_72)\n    tag_73:\n      dup3\n      add\n      swap2\n      swap1\n      0x00\n      mstore\n      keccak256(0x00, 0x20)\n      swap1\n    tag_74:\n      dup2\n      sload\n      dup2\n      mstore\n      swap1\n      0x01\n      add\n      swap1\n      0x20\n      add\n      dup1\n      dup4\n      gt\n      tag_74\n      jumpi\n      dup3\n      swap1\n      sub\n      0x1f\n      and\n      dup3\n      add\n      swap2\n    tag_72:\n      pop\n      pop\n      pop\n      pop\n      pop\n      dup2\n      mstore\n      0x20\n      add\n      0x01\n      dup3\n      add\n      0x00\n      swap1\n      sload\n      swap1\n      0x0100\n      exp\n      swap1\n      div\n      0xff\n      and\n      iszero\n      iszero\n      iszero\n      iszero\n      dup2\n      mstore\n      pop\n      pop\n      swap1\n      pop\n        /* \"contracts/todoList.sol\":1179:1183  temp */\n      dup1\n        /* \"contracts/todoList.sol\":1179:1188  temp.name */\n      0x00\n      add\n      mload\n        /* \"contracts/todoList.sol\":1189:1193  temp */\n      dup2\n        /* \"contracts/todoList.sol\":1189:1205  temp.isCompleted */\n      0x20\n      add\n      mload\n        /* \"contracts/todoList.sol\":1171:1206  return (temp.name,temp.isCompleted) */\n      swap3\n      pop\n      swap3\n      pop\n      pop\n        /* \"contracts/todoList.sol\":1033:1214  function get1(uint256 index_) external view returns(string memory name_,bool status_){... */\n      swap2\n      pop\n      swap2\n      jump\t// out\n        /* \"contracts/todoList.sol\":201:364  function create(string memory _name) external  {... */\n    tag_33:\n        /* \"contracts/todoList.sol\":259:263  list */\n      0x00\n        /* \"contracts/todoList.sol\":269:345  Todo({... */\n      mload(0x40)\n      dup1\n      0x40\n      add\n      0x40\n      mstore\n      dup1\n        /* \"contracts/todoList.sol\":295:300  _name */\n      dup4\n        /* \"contracts/todoList.sol\":269:345  Todo({... */\n      dup2\n      mstore\n      0x20\n      add\n        /* \"contracts/todoList.sol\":328:333  false */\n      0x00\n        /* \"contracts/todoList.sol\":269:345  Todo({... */\n      iszero\n      iszero\n      dup2\n      mstore\n      pop\n        /* \"contracts/todoList.sol\":259:356  list.push(Todo({... */\n      swap1\n      dup1\n      0x01\n      dup2\n      sload\n      add\n      dup1\n      dup3\n      sstore\n      dup1\n      swap2\n      pop\n      pop\n      0x01\n      swap1\n      sub\n      swap1\n      0x00\n      mstore\n      keccak256(0x00, 0x20)\n      swap1\n      0x02\n      mul\n      add\n      0x00\n      swap1\n      swap2\n      swap1\n      swap2\n      swap1\n      swap2\n      pop\n      0x00\n      dup3\n      add\n      mload\n      dup2\n      0x00\n      add\n      swap1\n      dup2\n      tag_77\n      swap2\n      swap1\n      tag_78\n      jump\t// in\n    tag_77:\n      pop\n      0x20\n      dup3\n      add\n      mload\n      dup2\n      0x01\n      add\n      exp(0x0100, 0x00)\n      dup2\n      sload\n      dup2\n      0xff\n      mul\n      not\n      and\n      swap1\n      dup4\n      iszero\n      iszero\n      mul\n      or\n      swap1\n      sstore\n      pop\n      pop\n      pop\n        /* \"contracts/todoList.sol\":201:364  function create(string memory _name) external  {... */\n      pop\n      jump\t// out\n        /* \"contracts/todoList.sol\":370:478  function modiName1(string memory name_,uint256 _index) external {... */\n    tag_37:\n        /* \"contracts/todoList.sol\":465:470  name_ */\n      dup2\n        /* \"contracts/todoList.sol\":445:449  list */\n      0x00\n        /* \"contracts/todoList.sol\":450:456  _index */\n      dup3\n        /* \"contracts/todoList.sol\":445:457  list[_index] */\n      dup2\n      sload\n      dup2\n      lt\n      tag_80\n      jumpi\n      tag_81\n      tag_47\n      jump\t// in\n    tag_81:\n    tag_80:\n      swap1\n      0x00\n      mstore\n      keccak256(0x00, 0x20)\n      swap1\n      0x02\n      mul\n      add\n        /* \"contracts/todoList.sol\":445:462  list[_index].name */\n      0x00\n      add\n        /* \"contracts/todoList.sol\":445:470  list[_index].name = name_ */\n      swap1\n      dup2\n      tag_83\n      swap2\n      swap1\n      tag_78\n      jump\t// in\n    tag_83:\n      pop\n        /* \"contracts/todoList.sol\":370:478  function modiName1(string memory name_,uint256 _index) external {... */\n      pop\n      pop\n      jump\t// out\n        /* \"contracts/todoList.sol\":486:629  function modiName2(string memory name_,uint256 _index) external {... */\n    tag_40:\n        /* \"contracts/todoList.sol\":561:578  Todo storage temp */\n      0x00\n        /* \"contracts/todoList.sol\":581:585  list */\n      dup1\n        /* \"contracts/todoList.sol\":586:592  _index */\n      dup3\n        /* \"contracts/todoList.sol\":581:593  list[_index] */\n      dup2\n      sload\n      dup2\n      lt\n      tag_85\n      jumpi\n      tag_86\n      tag_47\n      jump\t// in\n    tag_86:\n    tag_85:\n      swap1\n      0x00\n      mstore\n      keccak256(0x00, 0x20)\n      swap1\n      0x02\n      mul\n      add\n        /* \"contracts/todoList.sol\":561:593  Todo storage temp = list[_index] */\n      swap1\n      pop\n        /* \"contracts/todoList.sol\":616:621  name_ */\n      dup3\n        /* \"contracts/todoList.sol\":604:608  temp */\n      dup2\n        /* \"contracts/todoList.sol\":604:613  temp.name */\n      0x00\n      add\n        /* \"contracts/todoList.sol\":604:621  temp.name = name_ */\n      swap1\n      dup2\n      tag_88\n      swap2\n      swap1\n      tag_78\n      jump\t// in\n    tag_88:\n      pop\n        /* \"contracts/todoList.sol\":550:629  {... */\n      pop\n        /* \"contracts/todoList.sol\":486:629  function modiName2(string memory name_,uint256 _index) external {... */\n      pop\n      pop\n      jump\t// out\n        /* \"contracts/todoList.sol\":865:982  function modiStatus2(uint256 index_) external {... */\n    tag_43:\n        /* \"contracts/todoList.sol\":950:954  list */\n      0x00\n        /* \"contracts/todoList.sol\":955:961  index_ */\n      dup2\n        /* \"contracts/todoList.sol\":950:962  list[index_] */\n      dup2\n      sload\n      dup2\n      lt\n      tag_90\n      jumpi\n      tag_91\n      tag_47\n      jump\t// in\n    tag_91:\n    tag_90:\n      swap1\n      0x00\n      mstore\n      keccak256(0x00, 0x20)\n      swap1\n      0x02\n      mul\n      add\n        /* \"contracts/todoList.sol\":950:974  list[index_].isCompleted */\n      0x01\n      add\n      0x00\n      swap1\n      sload\n      swap1\n      0x0100\n      exp\n      swap1\n      div\n      0xff\n      and\n        /* \"contracts/todoList.sol\":949:974  !list[index_].isCompleted */\n      iszero\n        /* \"contracts/todoList.sol\":922:926  list */\n      0x00\n        /* \"contracts/todoList.sol\":927:933  index_ */\n      dup3\n        /* \"contracts/todoList.sol\":922:934  list[index_] */\n      dup2\n      sload\n      dup2\n      lt\n      tag_93\n      jumpi\n      tag_94\n      tag_47\n      jump\t// in\n    tag_94:\n    tag_93:\n      swap1\n      0x00\n      mstore\n      keccak256(0x00, 0x20)\n      swap1\n      0x02\n      mul\n      add\n        /* \"contracts/todoList.sol\":922:946  list[index_].isCompleted */\n      0x01\n      add\n      0x00\n        /* \"contracts/todoList.sol\":922:974  list[index_].isCompleted = !list[index_].isCompleted */\n      0x0100\n      exp\n      dup2\n      sload\n      dup2\n      0xff\n      mul\n      not\n      and\n      swap1\n      dup4\n      iszero\n      iszero\n      mul\n      or\n      swap1\n      sstore\n      pop\n        /* \"contracts/todoList.sol\":865:982  function modiStatus2(uint256 index_) external {... */\n      pop\n      jump\t// out\n        /* \"#utility.yul\":7:82   */\n    tag_96:\n        /* \"#utility.yul\":40:46   */\n      0x00\n        /* \"#utility.yul\":73:75   */\n      0x40\n        /* \"#utility.yul\":67:76   */\n      mload\n        /* \"#utility.yul\":57:76   */\n      swap1\n      pop\n        /* \"#utility.yul\":7:82   */\n      swap1\n      jump\t// out\n        /* \"#utility.yul\":88:205   */\n    tag_97:\n        /* \"#utility.yul\":197:198   */\n      0x00\n        /* \"#utility.yul\":194:195   */\n      dup1\n        /* \"#utility.yul\":187:199   */\n      revert\n        /* \"#utility.yul\":211:328   */\n    tag_98:\n        /* \"#utility.yul\":320:321   */\n      0x00\n        /* \"#utility.yul\":317:318   */\n      dup1\n        /* \"#utility.yul\":310:322   */\n      revert\n        /* \"#utility.yul\":334:411   */\n    tag_99:\n        /* \"#utility.yul\":371:378   */\n      0x00\n        /* \"#utility.yul\":400:405   */\n      dup2\n        /* \"#utility.yul\":389:405   */\n      swap1\n      pop\n        /* \"#utility.yul\":334:411   */\n      swap2\n      swap1\n      pop\n      jump\t// out\n        /* \"#utility.yul\":417:539   */\n    tag_100:\n        /* \"#utility.yul\":490:514   */\n      tag_142\n        /* \"#utility.yul\":508:513   */\n      dup2\n        /* \"#utility.yul\":490:514   */\n      tag_99\n      jump\t// in\n    tag_142:\n        /* \"#utility.yul\":483:488   */\n      dup2\n        /* \"#utility.yul\":480:515   */\n      eq\n        /* \"#utility.yul\":470:533   */\n      tag_143\n      jumpi\n        /* \"#utility.yul\":529:530   */\n      0x00\n        /* \"#utility.yul\":526:527   */\n      dup1\n        /* \"#utility.yul\":519:531   */\n      revert\n        /* \"#utility.yul\":470:533   */\n    tag_143:\n        /* \"#utility.yul\":417:539   */\n      pop\n      jump\t// out\n        /* \"#utility.yul\":545:684   */\n    tag_101:\n        /* \"#utility.yul\":591:596   */\n      0x00\n        /* \"#utility.yul\":629:635   */\n      dup2\n        /* \"#utility.yul\":616:636   */\n      calldataload\n        /* \"#utility.yul\":607:636   */\n      swap1\n      pop\n        /* \"#utility.yul\":645:678   */\n      tag_145\n        /* \"#utility.yul\":672:677   */\n      dup2\n        /* \"#utility.yul\":645:678   */\n      tag_100\n      jump\t// in\n    tag_145:\n        /* \"#utility.yul\":545:684   */\n      swap3\n      swap2\n      pop\n      pop\n      jump\t// out\n        /* \"#utility.yul\":690:1019   */\n    tag_14:\n        /* \"#utility.yul\":749:755   */\n      0x00\n        /* \"#utility.yul\":798:800   */\n      0x20\n        /* \"#utility.yul\":786:795   */\n      dup3\n        /* \"#utility.yul\":777:784   */\n      dup5\n        /* \"#utility.yul\":773:796   */\n      sub\n        /* \"#utility.yul\":769:801   */\n      slt\n        /* \"#utility.yul\":766:885   */\n      iszero\n      tag_147\n      jumpi\n        /* \"#utility.yul\":804:883   */\n      tag_148\n      tag_97\n      jump\t// in\n    tag_148:\n        /* \"#utility.yul\":766:885   */\n    tag_147:\n        /* \"#utility.yul\":924:925   */\n      0x00\n        /* \"#utility.yul\":949:1002   */\n      tag_149\n        /* \"#utility.yul\":994:1001   */\n      dup5\n        /* \"#utility.yul\":985:991   */\n      dup3\n        /* \"#utility.yul\":974:983   */\n      dup6\n        /* \"#utility.yul\":970:992   */\n      add\n        /* \"#utility.yul\":949:1002   */\n      tag_101\n      jump\t// in\n    tag_149:\n        /* \"#utility.yul\":939:1002   */\n      swap2\n      pop\n        /* \"#utility.yul\":895:1012   */\n      pop\n        /* \"#utility.yul\":690:1019   */\n      swap3\n      swap2\n      pop\n      pop\n      jump\t// out\n        /* \"#utility.yul\":1025:1124   */\n    tag_102:\n        /* \"#utility.yul\":1077:1083   */\n      0x00\n        /* \"#utility.yul\":1111:1116   */\n      dup2\n        /* \"#utility.yul\":1105:1117   */\n      mload\n        /* \"#utility.yul\":1095:1117   */\n      swap1\n      pop\n        /* \"#utility.yul\":1025:1124   */\n      swap2\n      swap1\n      pop\n      jump\t// out\n        /* \"#utility.yul\":1130:1299   */\n    tag_103:\n        /* \"#utility.yul\":1214:1225   */\n      0x00\n        /* \"#utility.yul\":1248:1254   */\n      dup3\n        /* \"#utility.yul\":1243:1246   */\n      dup3\n        /* \"#utility.yul\":1236:1255   */\n      mstore\n        /* \"#utility.yul\":1288:1292   */\n      0x20\n        /* \"#utility.yul\":1283:1286   */\n      dup3\n        /* \"#utility.yul\":1279:1293   */\n      add\n        /* \"#utility.yul\":1264:1293   */\n      swap1\n      pop\n        /* \"#utility.yul\":1130:1299   */\n      swap3\n      swap2\n      pop\n      pop\n      jump\t// out\n        /* \"#utility.yul\":1305:1551   */\n    tag_104:\n        /* \"#utility.yul\":1386:1387   */\n      0x00\n        /* \"#utility.yul\":1396:1509   */\n    tag_153:\n        /* \"#utility.yul\":1410:1416   */\n      dup4\n        /* \"#utility.yul\":1407:1408   */\n      dup2\n        /* \"#utility.yul\":1404:1417   */\n      lt\n        /* \"#utility.yul\":1396:1509   */\n      iszero\n      tag_155\n      jumpi\n        /* \"#utility.yul\":1495:1496   */\n      dup1\n        /* \"#utility.yul\":1490:1493   */\n      dup3\n        /* \"#utility.yul\":1486:1497   */\n      add\n        /* \"#utility.yul\":1480:1498   */\n      mload\n        /* \"#utility.yul\":1476:1477   */\n      dup2\n        /* \"#utility.yul\":1471:1474   */\n      dup5\n        /* \"#utility.yul\":1467:1478   */\n      add\n        /* \"#utility.yul\":1460:1499   */\n      mstore\n        /* \"#utility.yul\":1432:1434   */\n      0x20\n        /* \"#utility.yul\":1429:1430   */\n      dup2\n        /* \"#utility.yul\":1425:1435   */\n      add\n        /* \"#utility.yul\":1420:1435   */\n      swap1\n      pop\n        /* \"#utility.yul\":1396:1509   */\n      jump(tag_153)\n    tag_155:\n        /* \"#utility.yul\":1543:1544   */\n      0x00\n        /* \"#utility.yul\":1534:1540   */\n      dup5\n        /* \"#utility.yul\":1529:1532   */\n      dup5\n        /* \"#utility.yul\":1525:1541   */\n      add\n        /* \"#utility.yul\":1518:1545   */\n      mstore\n        /* \"#utility.yul\":1367:1551   */\n      pop\n        /* \"#utility.yul\":1305:1551   */\n      pop\n      pop\n      pop\n      jump\t// out\n        /* \"#utility.yul\":1557:1659   */\n    tag_105:\n        /* \"#utility.yul\":1598:1604   */\n      0x00\n        /* \"#utility.yul\":1649:1651   */\n      0x1f\n        /* \"#utility.yul\":1645:1652   */\n      not\n        /* \"#utility.yul\":1640:1642   */\n      0x1f\n        /* \"#utility.yul\":1633:1638   */\n      dup4\n        /* \"#utility.yul\":1629:1643   */\n      add\n        /* \"#utility.yul\":1625:1653   */\n      and\n        /* \"#utility.yul\":1615:1653   */\n      swap1\n      pop\n        /* \"#utility.yul\":1557:1659   */\n      swap2\n      swap1\n      pop\n      jump\t// out\n        /* \"#utility.yul\":1665:2042   */\n    tag_106:\n        /* \"#utility.yul\":1753:1756   */\n      0x00\n        /* \"#utility.yul\":1781:1820   */\n      tag_158\n        /* \"#utility.yul\":1814:1819   */\n      dup3\n        /* \"#utility.yul\":1781:1820   */\n      tag_102\n      jump\t// in\n    tag_158:\n        /* \"#utility.yul\":1836:1907   */\n      tag_159\n        /* \"#utility.yul\":1900:1906   */\n      dup2\n        /* \"#utility.yul\":1895:1898   */\n      dup6\n        /* \"#utility.yul\":1836:1907   */\n      tag_103\n      jump\t// in\n    tag_159:\n        /* \"#utility.yul\":1829:1907   */\n      swap4\n      pop\n        /* \"#utility.yul\":1916:1981   */\n      tag_160\n        /* \"#utility.yul\":1974:1980   */\n      dup2\n        /* \"#utility.yul\":1969:1972   */\n      dup6\n        /* \"#utility.yul\":1962:1966   */\n      0x20\n        /* \"#utility.yul\":1955:1960   */\n      dup7\n        /* \"#utility.yul\":1951:1967   */\n      add\n        /* \"#utility.yul\":1916:1981   */\n      tag_104\n      jump\t// in\n    tag_160:\n        /* \"#utility.yul\":2006:2035   */\n      tag_161\n        /* \"#utility.yul\":2028:2034   */\n      dup2\n        /* \"#utility.yul\":2006:2035   */\n      tag_105\n      jump\t// in\n    tag_161:\n        /* \"#utility.yul\":2001:2004   */\n      dup5\n        /* \"#utility.yul\":1997:2036   */\n      add\n        /* \"#utility.yul\":1990:2036   */\n      swap2\n      pop\n        /* \"#utility.yul\":1757:2042   */\n      pop\n        /* \"#utility.yul\":1665:2042   */\n      swap3\n      swap2\n      pop\n      pop\n      jump\t// out\n        /* \"#utility.yul\":2048:2138   */\n    tag_107:\n        /* \"#utility.yul\":2082:2089   */\n      0x00\n        /* \"#utility.yul\":2125:2130   */\n      dup2\n        /* \"#utility.yul\":2118:2131   */\n      iszero\n        /* \"#utility.yul\":2111:2132   */\n      iszero\n        /* \"#utility.yul\":2100:2132   */\n      swap1\n      pop\n        /* \"#utility.yul\":2048:2138   */\n      swap2\n      swap1\n      pop\n      jump\t// out\n        /* \"#utility.yul\":2144:2253   */\n    tag_108:\n        /* \"#utility.yul\":2225:2246   */\n      tag_164\n        /* \"#utility.yul\":2240:2245   */\n      dup2\n        /* \"#utility.yul\":2225:2246   */\n      tag_107\n      jump\t// in\n    tag_164:\n        /* \"#utility.yul\":2220:2223   */\n      dup3\n        /* \"#utility.yul\":2213:2247   */\n      mstore\n        /* \"#utility.yul\":2144:2253   */\n      pop\n      pop\n      jump\t// out\n        /* \"#utility.yul\":2259:2670   */\n    tag_17:\n        /* \"#utility.yul\":2394:2398   */\n      0x00\n        /* \"#utility.yul\":2432:2434   */\n      0x40\n        /* \"#utility.yul\":2421:2430   */\n      dup3\n        /* \"#utility.yul\":2417:2435   */\n      add\n        /* \"#utility.yul\":2409:2435   */\n      swap1\n      pop\n        /* \"#utility.yul\":2481:2490   */\n      dup2\n        /* \"#utility.yul\":2475:2479   */\n      dup2\n        /* \"#utility.yul\":2471:2491   */\n      sub\n        /* \"#utility.yul\":2467:2468   */\n      0x00\n        /* \"#utility.yul\":2456:2465   */\n      dup4\n        /* \"#utility.yul\":2452:2469   */\n      add\n        /* \"#utility.yul\":2445:2492   */\n      mstore\n        /* \"#utility.yul\":2509:2587   */\n      tag_166\n        /* \"#utility.yul\":2582:2586   */\n      dup2\n        /* \"#utility.yul\":2573:2579   */\n      dup6\n        /* \"#utility.yul\":2509:2587   */\n      tag_106\n      jump\t// in\n    tag_166:\n        /* \"#utility.yul\":2501:2587   */\n      swap1\n      pop\n        /* \"#utility.yul\":2597:2663   */\n      tag_167\n        /* \"#utility.yul\":2659:2661   */\n      0x20\n        /* \"#utility.yul\":2648:2657   */\n      dup4\n        /* \"#utility.yul\":2644:2662   */\n      add\n        /* \"#utility.yul\":2635:2641   */\n      dup5\n        /* \"#utility.yul\":2597:2663   */\n      tag_108\n      jump\t// in\n    tag_167:\n        /* \"#utility.yul\":2259:2670   */\n      swap4\n      swap3\n      pop\n      pop\n      pop\n      jump\t// out\n        /* \"#utility.yul\":2676:2792   */\n    tag_109:\n        /* \"#utility.yul\":2746:2767   */\n      tag_169\n        /* \"#utility.yul\":2761:2766   */\n      dup2\n        /* \"#utility.yul\":2746:2767   */\n      tag_107\n      jump\t// in\n    tag_169:\n        /* \"#utility.yul\":2739:2744   */\n      dup2\n        /* \"#utility.yul\":2736:2768   */\n      eq\n        /* \"#utility.yul\":2726:2786   */\n      tag_170\n      jumpi\n        /* \"#utility.yul\":2782:2783   */\n      0x00\n        /* \"#utility.yul\":2779:2780   */\n      dup1\n        /* \"#utility.yul\":2772:2784   */\n      revert\n        /* \"#utility.yul\":2726:2786   */\n    tag_170:\n        /* \"#utility.yul\":2676:2792   */\n      pop\n      jump\t// out\n        /* \"#utility.yul\":2798:2931   */\n    tag_110:\n        /* \"#utility.yul\":2841:2846   */\n      0x00\n        /* \"#utility.yul\":2879:2885   */\n      dup2\n        /* \"#utility.yul\":2866:2886   */\n      calldataload\n        /* \"#utility.yul\":2857:2886   */\n      swap1\n      pop\n        /* \"#utility.yul\":2895:2925   */\n      tag_172\n        /* \"#utility.yul\":2919:2924   */\n      dup2\n        /* \"#utility.yul\":2895:2925   */\n      tag_109\n      jump\t// in\n    tag_172:\n        /* \"#utility.yul\":2798:2931   */\n      swap3\n      swap2\n      pop\n      pop\n      jump\t// out\n        /* \"#utility.yul\":2937:3405   */\n    tag_20:\n        /* \"#utility.yul\":3002:3008   */\n      0x00\n        /* \"#utility.yul\":3010:3016   */\n      dup1\n        /* \"#utility.yul\":3059:3061   */\n      0x40\n        /* \"#utility.yul\":3047:3056   */\n      dup4\n        /* \"#utility.yul\":3038:3045   */\n      dup6\n        /* \"#utility.yul\":3034:3057   */\n      sub\n        /* \"#utility.yul\":3030:3062   */\n      slt\n        /* \"#utility.yul\":3027:3146   */\n      iszero\n      tag_174\n      jumpi\n        /* \"#utility.yul\":3065:3144   */\n      tag_175\n      tag_97\n      jump\t// in\n    tag_175:\n        /* \"#utility.yul\":3027:3146   */\n    tag_174:\n        /* \"#utility.yul\":3185:3186   */\n      0x00\n        /* \"#utility.yul\":3210:3263   */\n      tag_176\n        /* \"#utility.yul\":3255:3262   */\n      dup6\n        /* \"#utility.yul\":3246:3252   */\n      dup3\n        /* \"#utility.yul\":3235:3244   */\n      dup7\n        /* \"#utility.yul\":3231:3253   */\n      add\n        /* \"#utility.yul\":3210:3263   */\n      tag_101\n      jump\t// in\n    tag_176:\n        /* \"#utility.yul\":3200:3263   */\n      swap3\n      pop\n        /* \"#utility.yul\":3156:3273   */\n      pop\n        /* \"#utility.yul\":3312:3314   */\n      0x20\n        /* \"#utility.yul\":3338:3388   */\n      tag_177\n        /* \"#utility.yul\":3380:3387   */\n      dup6\n        /* \"#utility.yul\":3371:3377   */\n      dup3\n        /* \"#utility.yul\":3360:3369   */\n      dup7\n        /* \"#utility.yul\":3356:3378   */\n      add\n        /* \"#utility.yul\":3338:3388   */\n      tag_110\n      jump\t// in\n    tag_177:\n        /* \"#utility.yul\":3328:3388   */\n      swap2\n      pop\n        /* \"#utility.yul\":3283:3398   */\n      pop\n        /* \"#utility.yul\":2937:3405   */\n      swap3\n      pop\n      swap3\n      swap1\n      pop\n      jump\t// out\n        /* \"#utility.yul\":3411:3528   */\n    tag_111:\n        /* \"#utility.yul\":3520:3521   */\n      0x00\n        /* \"#utility.yul\":3517:3518   */\n      dup1\n        /* \"#utility.yul\":3510:3522   */\n      revert\n        /* \"#utility.yul\":3534:3651   */\n    tag_112:\n        /* \"#utility.yul\":3643:3644   */\n      0x00\n        /* \"#utility.yul\":3640:3641   */\n      dup1\n        /* \"#utility.yul\":3633:3645   */\n      revert\n        /* \"#utility.yul\":3657:3837   */\n    tag_113:\n        /* \"#utility.yul\":3705:3782   */\n      0x4e487b7100000000000000000000000000000000000000000000000000000000\n        /* \"#utility.yul\":3702:3703   */\n      0x00\n        /* \"#utility.yul\":3695:3783   */\n      mstore\n        /* \"#utility.yul\":3802:3806   */\n      0x41\n        /* \"#utility.yul\":3799:3800   */\n      0x04\n        /* \"#utility.yul\":3792:3807   */\n      mstore\n        /* \"#utility.yul\":3826:3830   */\n      0x24\n        /* \"#utility.yul\":3823:3824   */\n      0x00\n        /* \"#utility.yul\":3816:3831   */\n      revert\n        /* \"#utility.yul\":3843:4124   */\n    tag_114:\n        /* \"#utility.yul\":3926:3953   */\n      tag_182\n        /* \"#utility.yul\":3948:3952   */\n      dup3\n        /* \"#utility.yul\":3926:3953   */\n      tag_105\n      jump\t// in\n    tag_182:\n        /* \"#utility.yul\":3918:3924   */\n      dup2\n        /* \"#utility.yul\":3914:3954   */\n      add\n        /* \"#utility.yul\":4056:4062   */\n      dup2\n        /* \"#utility.yul\":4044:4054   */\n      dup2\n        /* \"#utility.yul\":4041:4063   */\n      lt\n        /* \"#utility.yul\":4020:4038   */\n      0xffffffffffffffff\n        /* \"#utility.yul\":4008:4018   */\n      dup3\n        /* \"#utility.yul\":4005:4039   */\n      gt\n        /* \"#utility.yul\":4002:4064   */\n      or\n        /* \"#utility.yul\":3999:4087   */\n      iszero\n      tag_183\n      jumpi\n        /* \"#utility.yul\":4067:4085   */\n      tag_184\n      tag_113\n      jump\t// in\n    tag_184:\n        /* \"#utility.yul\":3999:4087   */\n    tag_183:\n        /* \"#utility.yul\":4107:4117   */\n      dup1\n        /* \"#utility.yul\":4103:4105   */\n      0x40\n        /* \"#utility.yul\":4096:4118   */\n      mstore\n        /* \"#utility.yul\":3886:4124   */\n      pop\n        /* \"#utility.yul\":3843:4124   */\n      pop\n      pop\n      jump\t// out\n        /* \"#utility.yul\":4130:4259   */\n    tag_115:\n        /* \"#utility.yul\":4164:4170   */\n      0x00\n        /* \"#utility.yul\":4191:4211   */\n      tag_186\n      tag_96\n      jump\t// in\n    tag_186:\n        /* \"#utility.yul\":4181:4211   */\n      swap1\n      pop\n        /* \"#utility.yul\":4220:4253   */\n      tag_187\n        /* \"#utility.yul\":4248:4252   */\n      dup3\n        /* \"#utility.yul\":4240:4246   */\n      dup3\n        /* \"#utility.yul\":4220:4253   */\n      tag_114\n      jump\t// in\n    tag_187:\n        /* \"#utility.yul\":4130:4259   */\n      swap2\n      swap1\n      pop\n      jump\t// out\n        /* \"#utility.yul\":4265:4573   */\n    tag_116:\n        /* \"#utility.yul\":4327:4331   */\n      0x00\n        /* \"#utility.yul\":4417:4435   */\n      0xffffffffffffffff\n        /* \"#utility.yul\":4409:4415   */\n      dup3\n        /* \"#utility.yul\":4406:4436   */\n      gt\n        /* \"#utility.yul\":4403:4459   */\n      iszero\n      tag_189\n      jumpi\n        /* \"#utility.yul\":4439:4457   */\n      tag_190\n      tag_113\n      jump\t// in\n    tag_190:\n        /* \"#utility.yul\":4403:4459   */\n    tag_189:\n        /* \"#utility.yul\":4477:4506   */\n      tag_191\n        /* \"#utility.yul\":4499:4505   */\n      dup3\n        /* \"#utility.yul\":4477:4506   */\n      tag_105\n      jump\t// in\n    tag_191:\n        /* \"#utility.yul\":4469:4506   */\n      swap1\n      pop\n        /* \"#utility.yul\":4561:4565   */\n      0x20\n        /* \"#utility.yul\":4555:4559   */\n      dup2\n        /* \"#utility.yul\":4551:4566   */\n      add\n        /* \"#utility.yul\":4543:4566   */\n      swap1\n      pop\n        /* \"#utility.yul\":4265:4573   */\n      swap2\n      swap1\n      pop\n      jump\t// out\n        /* \"#utility.yul\":4579:4725   */\n    tag_117:\n        /* \"#utility.yul\":4676:4682   */\n      dup3\n        /* \"#utility.yul\":4671:4674   */\n      dup2\n        /* \"#utility.yul\":4666:4669   */\n      dup4\n        /* \"#utility.yul\":4653:4683   */\n      calldatacopy\n        /* \"#utility.yul\":4717:4718   */\n      0x00\n        /* \"#utility.yul\":4708:4714   */\n      dup4\n        /* \"#utility.yul\":4703:4706   */\n      dup4\n        /* \"#utility.yul\":4699:4715   */\n      add\n        /* \"#utility.yul\":4692:4719   */\n      mstore\n        /* \"#utility.yul\":4579:4725   */\n      pop\n      pop\n      pop\n      jump\t// out\n        /* \"#utility.yul\":4731:5156   */\n    tag_118:\n        /* \"#utility.yul\":4809:4814   */\n      0x00\n        /* \"#utility.yul\":4834:4900   */\n      tag_194\n        /* \"#utility.yul\":4850:4899   */\n      tag_195\n        /* \"#utility.yul\":4892:4898   */\n      dup5\n        /* \"#utility.yul\":4850:4899   */\n      tag_116\n      jump\t// in\n    tag_195:\n        /* \"#utility.yul\":4834:4900   */\n      tag_115\n      jump\t// in\n    tag_194:\n        /* \"#utility.yul\":4825:4900   */\n      swap1\n      pop\n        /* \"#utility.yul\":4923:4929   */\n      dup3\n        /* \"#utility.yul\":4916:4921   */\n      dup2\n        /* \"#utility.yul\":4909:4930   */\n      mstore\n        /* \"#utility.yul\":4961:4965   */\n      0x20\n        /* \"#utility.yul\":4954:4959   */\n      dup2\n        /* \"#utility.yul\":4950:4966   */\n      add\n        /* \"#utility.yul\":4999:5002   */\n      dup5\n        /* \"#utility.yul\":4990:4996   */\n      dup5\n        /* \"#utility.yul\":4985:4988   */\n      dup5\n        /* \"#utility.yul\":4981:4997   */\n      add\n        /* \"#utility.yul\":4978:5003   */\n      gt\n        /* \"#utility.yul\":4975:5087   */\n      iszero\n      tag_196\n      jumpi\n        /* \"#utility.yul\":5006:5085   */\n      tag_197\n      tag_112\n      jump\t// in\n    tag_197:\n        /* \"#utility.yul\":4975:5087   */\n    tag_196:\n        /* \"#utility.yul\":5096:5150   */\n      tag_198\n        /* \"#utility.yul\":5143:5149   */\n      dup5\n        /* \"#utility.yul\":5138:5141   */\n      dup3\n        /* \"#utility.yul\":5133:5136   */\n      dup6\n        /* \"#utility.yul\":5096:5150   */\n      tag_117\n      jump\t// in\n    tag_198:\n        /* \"#utility.yul\":4815:5156   */\n      pop\n        /* \"#utility.yul\":4731:5156   */\n      swap4\n      swap3\n      pop\n      pop\n      pop\n      jump\t// out\n        /* \"#utility.yul\":5176:5516   */\n    tag_119:\n        /* \"#utility.yul\":5232:5237   */\n      0x00\n        /* \"#utility.yul\":5281:5284   */\n      dup3\n        /* \"#utility.yul\":5274:5278   */\n      0x1f\n        /* \"#utility.yul\":5266:5272   */\n      dup4\n        /* \"#utility.yul\":5262:5279   */\n      add\n        /* \"#utility.yul\":5258:5285   */\n      slt\n        /* \"#utility.yul\":5248:5370   */\n      tag_200\n      jumpi\n        /* \"#utility.yul\":5289:5368   */\n      tag_201\n      tag_111\n      jump\t// in\n    tag_201:\n        /* \"#utility.yul\":5248:5370   */\n    tag_200:\n        /* \"#utility.yul\":5406:5412   */\n      dup2\n        /* \"#utility.yul\":5393:5413   */\n      calldataload\n        /* \"#utility.yul\":5431:5510   */\n      tag_202\n        /* \"#utility.yul\":5506:5509   */\n      dup5\n        /* \"#utility.yul\":5498:5504   */\n      dup3\n        /* \"#utility.yul\":5491:5495   */\n      0x20\n        /* \"#utility.yul\":5483:5489   */\n      dup7\n        /* \"#utility.yul\":5479:5496   */\n      add\n        /* \"#utility.yul\":5431:5510   */\n      tag_118\n      jump\t// in\n    tag_202:\n        /* \"#utility.yul\":5422:5510   */\n      swap2\n      pop\n        /* \"#utility.yul\":5238:5516   */\n      pop\n        /* \"#utility.yul\":5176:5516   */\n      swap3\n      swap2\n      pop\n      pop\n      jump\t// out\n        /* \"#utility.yul\":5522:6031   */\n    tag_32:\n        /* \"#utility.yul\":5591:5597   */\n      0x00\n        /* \"#utility.yul\":5640:5642   */\n      0x20\n        /* \"#utility.yul\":5628:5637   */\n      dup3\n        /* \"#utility.yul\":5619:5626   */\n      dup5\n        /* \"#utility.yul\":5615:5638   */\n      sub\n        /* \"#utility.yul\":5611:5643   */\n      slt\n        /* \"#utility.yul\":5608:5727   */\n      iszero\n      tag_204\n      jumpi\n        /* \"#utility.yul\":5646:5725   */\n      tag_205\n      tag_97\n      jump\t// in\n    tag_205:\n        /* \"#utility.yul\":5608:5727   */\n    tag_204:\n        /* \"#utility.yul\":5794:5795   */\n      0x00\n        /* \"#utility.yul\":5783:5792   */\n      dup3\n        /* \"#utility.yul\":5779:5796   */\n      add\n        /* \"#utility.yul\":5766:5797   */\n      calldataload\n        /* \"#utility.yul\":5824:5842   */\n      0xffffffffffffffff\n        /* \"#utility.yul\":5816:5822   */\n      dup2\n        /* \"#utility.yul\":5813:5843   */\n      gt\n        /* \"#utility.yul\":5810:5927   */\n      iszero\n      tag_206\n      jumpi\n        /* \"#utility.yul\":5846:5925   */\n      tag_207\n      tag_98\n      jump\t// in\n    tag_207:\n        /* \"#utility.yul\":5810:5927   */\n    tag_206:\n        /* \"#utility.yul\":5951:6014   */\n      tag_208\n        /* \"#utility.yul\":6006:6013   */\n      dup5\n        /* \"#utility.yul\":5997:6003   */\n      dup3\n        /* \"#utility.yul\":5986:5995   */\n      dup6\n        /* \"#utility.yul\":5982:6004   */\n      add\n        /* \"#utility.yul\":5951:6014   */\n      tag_119\n      jump\t// in\n    tag_208:\n        /* \"#utility.yul\":5941:6014   */\n      swap2\n      pop\n        /* \"#utility.yul\":5737:6024   */\n      pop\n        /* \"#utility.yul\":5522:6031   */\n      swap3\n      swap2\n      pop\n      pop\n      jump\t// out\n        /* \"#utility.yul\":6037:6691   */\n    tag_36:\n        /* \"#utility.yul\":6115:6121   */\n      0x00\n        /* \"#utility.yul\":6123:6129   */\n      dup1\n        /* \"#utility.yul\":6172:6174   */\n      0x40\n        /* \"#utility.yul\":6160:6169   */\n      dup4\n        /* \"#utility.yul\":6151:6158   */\n      dup6\n        /* \"#utility.yul\":6147:6170   */\n      sub\n        /* \"#utility.yul\":6143:6175   */\n      slt\n        /* \"#utility.yul\":6140:6259   */\n      iszero\n      tag_210\n      jumpi\n        /* \"#utility.yul\":6178:6257   */\n      tag_211\n      tag_97\n      jump\t// in\n    tag_211:\n        /* \"#utility.yul\":6140:6259   */\n    tag_210:\n        /* \"#utility.yul\":6326:6327   */\n      0x00\n        /* \"#utility.yul\":6315:6324   */\n      dup4\n        /* \"#utility.yul\":6311:6328   */\n      add\n        /* \"#utility.yul\":6298:6329   */\n      calldataload\n        /* \"#utility.yul\":6356:6374   */\n      0xffffffffffffffff\n        /* \"#utility.yul\":6348:6354   */\n      dup2\n        /* \"#utility.yul\":6345:6375   */\n      gt\n        /* \"#utility.yul\":6342:6459   */\n      iszero\n      tag_212\n      jumpi\n        /* \"#utility.yul\":6378:6457   */\n      tag_213\n      tag_98\n      jump\t// in\n    tag_213:\n        /* \"#utility.yul\":6342:6459   */\n    tag_212:\n        /* \"#utility.yul\":6483:6546   */\n      tag_214\n        /* \"#utility.yul\":6538:6545   */\n      dup6\n        /* \"#utility.yul\":6529:6535   */\n      dup3\n        /* \"#utility.yul\":6518:6527   */\n      dup7\n        /* \"#utility.yul\":6514:6536   */\n      add\n        /* \"#utility.yul\":6483:6546   */\n      tag_119\n      jump\t// in\n    tag_214:\n        /* \"#utility.yul\":6473:6546   */\n      swap3\n      pop\n        /* \"#utility.yul\":6269:6556   */\n      pop\n        /* \"#utility.yul\":6595:6597   */\n      0x20\n        /* \"#utility.yul\":6621:6674   */\n      tag_215\n        /* \"#utility.yul\":6666:6673   */\n      dup6\n        /* \"#utility.yul\":6657:6663   */\n      dup3\n        /* \"#utility.yul\":6646:6655   */\n      dup7\n        /* \"#utility.yul\":6642:6664   */\n      add\n        /* \"#utility.yul\":6621:6674   */\n      tag_101\n      jump\t// in\n    tag_215:\n        /* \"#utility.yul\":6611:6674   */\n      swap2\n      pop\n        /* \"#utility.yul\":6566:6684   */\n      pop\n        /* \"#utility.yul\":6037:6691   */\n      swap3\n      pop\n      swap3\n      swap1\n      pop\n      jump\t// out\n        /* \"#utility.yul\":6697:6877   */\n    tag_47:\n        /* \"#utility.yul\":6745:6822   */\n      0x4e487b7100000000000000000000000000000000000000000000000000000000\n        /* \"#utility.yul\":6742:6743   */\n      0x00\n        /* \"#utility.yul\":6735:6823   */\n      mstore\n        /* \"#utility.yul\":6842:6846   */\n      0x32\n        /* \"#utility.yul\":6839:6840   */\n      0x04\n        /* \"#utility.yul\":6832:6847   */\n      mstore\n        /* \"#utility.yul\":6866:6870   */\n      0x24\n        /* \"#utility.yul\":6863:6864   */\n      0x00\n        /* \"#utility.yul\":6856:6871   */\n      revert\n        /* \"#utility.yul\":6883:7063   */\n    tag_120:\n        /* \"#utility.yul\":6931:7008   */\n      0x4e487b7100000000000000000000000000000000000000000000000000000000\n        /* \"#utility.yul\":6928:6929   */\n      0x00\n        /* \"#utility.yul\":6921:7009   */\n      mstore\n        /* \"#utility.yul\":7028:7032   */\n      0x22\n        /* \"#utility.yul\":7025:7026   */\n      0x04\n        /* \"#utility.yul\":7018:7033   */\n      mstore\n        /* \"#utility.yul\":7052:7056   */\n      0x24\n        /* \"#utility.yul\":7049:7050   */\n      0x00\n        /* \"#utility.yul\":7042:7057   */\n      revert\n        /* \"#utility.yul\":7069:7389   */\n    tag_50:\n        /* \"#utility.yul\":7113:7119   */\n      0x00\n        /* \"#utility.yul\":7150:7151   */\n      0x02\n        /* \"#utility.yul\":7144:7148   */\n      dup3\n        /* \"#utility.yul\":7140:7152   */\n      div\n        /* \"#utility.yul\":7130:7152   */\n      swap1\n      pop\n        /* \"#utility.yul\":7197:7198   */\n      0x01\n        /* \"#utility.yul\":7191:7195   */\n      dup3\n        /* \"#utility.yul\":7187:7199   */\n      and\n        /* \"#utility.yul\":7218:7236   */\n      dup1\n        /* \"#utility.yul\":7208:7289   */\n      tag_219\n      jumpi\n        /* \"#utility.yul\":7274:7278   */\n      0x7f\n        /* \"#utility.yul\":7266:7272   */\n      dup3\n        /* \"#utility.yul\":7262:7279   */\n      and\n        /* \"#utility.yul\":7252:7279   */\n      swap2\n      pop\n        /* \"#utility.yul\":7208:7289   */\n    tag_219:\n        /* \"#utility.yul\":7336:7338   */\n      0x20\n        /* \"#utility.yul\":7328:7334   */\n      dup3\n        /* \"#utility.yul\":7325:7339   */\n      lt\n        /* \"#utility.yul\":7305:7323   */\n      dup2\n        /* \"#utility.yul\":7302:7340   */\n      sub\n        /* \"#utility.yul\":7299:7383   */\n      tag_220\n      jumpi\n        /* \"#utility.yul\":7355:7373   */\n      tag_221\n      tag_120\n      jump\t// in\n    tag_221:\n        /* \"#utility.yul\":7299:7383   */\n    tag_220:\n        /* \"#utility.yul\":7120:7389   */\n      pop\n        /* \"#utility.yul\":7069:7389   */\n      swap2\n      swap1\n      pop\n      jump\t// out\n        /* \"#utility.yul\":7395:7536   */\n    tag_121:\n        /* \"#utility.yul\":7444:7448   */\n      0x00\n        /* \"#utility.yul\":7467:7470   */\n      dup2\n        /* \"#utility.yul\":7459:7470   */\n      swap1\n      pop\n        /* \"#utility.yul\":7490:7493   */\n      dup2\n        /* \"#utility.yul\":7487:7488   */\n      0x00\n        /* \"#utility.yul\":7480:7494   */\n      mstore\n        /* \"#utility.yul\":7524:7528   */\n      0x20\n        /* \"#utility.yul\":7521:7522   */\n      0x00\n        /* \"#utility.yul\":7511:7529   */\n      keccak256\n        /* \"#utility.yul\":7503:7529   */\n      swap1\n      pop\n        /* \"#utility.yul\":7395:7536   */\n      swap2\n      swap1\n      pop\n      jump\t// out\n        /* \"#utility.yul\":7542:7635   */\n    tag_122:\n        /* \"#utility.yul\":7579:7585   */\n      0x00\n        /* \"#utility.yul\":7626:7628   */\n      0x20\n        /* \"#utility.yul\":7621:7623   */\n      0x1f\n        /* \"#utility.yul\":7614:7619   */\n      dup4\n        /* \"#utility.yul\":7610:7624   */\n      add\n        /* \"#utility.yul\":7606:7629   */\n      div\n        /* \"#utility.yul\":7596:7629   */\n      swap1\n      pop\n        /* \"#utility.yul\":7542:7635   */\n      swap2\n      swap1\n      pop\n      jump\t// out\n        /* \"#utility.yul\":7641:7748   */\n    tag_123:\n        /* \"#utility.yul\":7685:7693   */\n      0x00\n        /* \"#utility.yul\":7735:7740   */\n      dup3\n        /* \"#utility.yul\":7729:7733   */\n      dup3\n        /* \"#utility.yul\":7725:7741   */\n      shl\n        /* \"#utility.yul\":7704:7741   */\n      swap1\n      pop\n        /* \"#utility.yul\":7641:7748   */\n      swap3\n      swap2\n      pop\n      pop\n      jump\t// out\n        /* \"#utility.yul\":7754:8147   */\n    tag_124:\n        /* \"#utility.yul\":7823:7829   */\n      0x00\n        /* \"#utility.yul\":7873:7874   */\n      0x08\n        /* \"#utility.yul\":7861:7871   */\n      dup4\n        /* \"#utility.yul\":7857:7875   */\n      mul\n        /* \"#utility.yul\":7896:7993   */\n      tag_226\n        /* \"#utility.yul\":7926:7992   */\n      0xffffffffffffffffffffffffffffffffffffffffffffffffffffffffffffffff\n        /* \"#utility.yul\":7915:7924   */\n      dup3\n        /* \"#utility.yul\":7896:7993   */\n      tag_123\n      jump\t// in\n    tag_226:\n        /* \"#utility.yul\":8014:8053   */\n      tag_227\n        /* \"#utility.yul\":8044:8052   */\n      dup7\n        /* \"#utility.yul\":8033:8042   */\n      dup4\n        /* \"#utility.yul\":8014:8053   */\n      tag_123\n      jump\t// in\n    tag_227:\n        /* \"#utility.yul\":8002:8053   */\n      swap6\n      pop\n        /* \"#utility.yul\":8086:8090   */\n      dup1\n        /* \"#utility.yul\":8082:8091   */\n      not\n        /* \"#utility.yul\":8075:8080   */\n      dup5\n        /* \"#utility.yul\":8071:8092   */\n      and\n        /* \"#utility.yul\":8062:8092   */\n      swap4\n      pop\n        /* \"#utility.yul\":8135:8139   */\n      dup1\n        /* \"#utility.yul\":8125:8133   */\n      dup7\n        /* \"#utility.yul\":8121:8140   */\n      and\n        /* \"#utility.yul\":8114:8119   */\n      dup5\n        /* \"#utility.yul\":8111:8141   */\n      or\n        /* \"#utility.yul\":8101:8141   */\n      swap3\n      pop\n        /* \"#utility.yul\":7830:8147   */\n      pop\n      pop\n        /* \"#utility.yul\":7754:8147   */\n      swap4\n      swap3\n      pop\n      pop\n      pop\n      jump\t// out\n        /* \"#utility.yul\":8153:8213   */\n    tag_125:\n        /* \"#utility.yul\":8181:8184   */\n      0x00\n        /* \"#utility.yul\":8202:8207   */\n      dup2\n        /* \"#utility.yul\":8195:8207   */\n      swap1\n      pop\n        /* \"#utility.yul\":8153:8213   */\n      swap2\n      swap1\n      pop\n      jump\t// out\n        /* \"#utility.yul\":8219:8361   */\n    tag_126:\n        /* \"#utility.yul\":8269:8278   */\n      0x00\n        /* \"#utility.yul\":8302:8355   */\n      tag_230\n        /* \"#utility.yul\":8320:8354   */\n      tag_231\n        /* \"#utility.yul\":8329:8353   */\n      tag_232\n        /* \"#utility.yul\":8347:8352   */\n      dup5\n        /* \"#utility.yul\":8329:8353   */\n      tag_99\n      jump\t// in\n    tag_232:\n        /* \"#utility.yul\":8320:8354   */\n      tag_125\n      jump\t// in\n    tag_231:\n        /* \"#utility.yul\":8302:8355   */\n      tag_99\n      jump\t// in\n    tag_230:\n        /* \"#utility.yul\":8289:8355   */\n      swap1\n      pop\n        /* \"#utility.yul\":8219:8361   */\n      swap2\n      swap1\n      pop\n      jump\t// out\n        /* \"#utility.yul\":8367:8442   */\n    tag_127:\n        /* \"#utility.yul\":8410:8413   */\n      0x00\n        /* \"#utility.yul\":8431:8436   */\n      dup2\n        /* \"#utility.yul\":8424:8436   */\n      swap1\n      pop\n        /* \"#utility.yul\":8367:8442   */\n      swap2\n      swap1\n      pop\n      jump\t// out\n        /* \"#utility.yul\":8448:8717   */\n    tag_128:\n        /* \"#utility.yul\":8558:8597   */\n      tag_235\n        /* \"#utility.yul\":8589:8596   */\n      dup4\n        /* \"#utility.yul\":8558:8597   */\n      tag_126\n      jump\t// in\n    tag_235:\n        /* \"#utility.yul\":8619:8710   */\n      tag_236\n        /* \"#utility.yul\":8668:8709   */\n      tag_237\n        /* \"#utility.yul\":8692:8708   */\n      dup3\n        /* \"#utility.yul\":8668:8709   */\n      tag_127\n      jump\t// in\n    tag_237:\n        /* \"#utility.yul\":8660:8666   */\n      dup5\n        /* \"#utility.yul\":8653:8657   */\n      dup5\n        /* \"#utility.yul\":8647:8658   */\n      sload\n        /* \"#utility.yul\":8619:8710   */\n      tag_124\n      jump\t// in\n    tag_236:\n        /* \"#utility.yul\":8613:8617   */\n      dup3\n        /* \"#utility.yul\":8606:8711   */\n      sstore\n        /* \"#utility.yul\":8524:8717   */\n      pop\n        /* \"#utility.yul\":8448:8717   */\n      pop\n      pop\n      pop\n      jump\t// out\n        /* \"#utility.yul\":8723:8796   */\n    tag_129:\n        /* \"#utility.yul\":8768:8771   */\n      0x00\n        /* \"#utility.yul\":8723:8796   */\n      swap1\n      jump\t// out\n        /* \"#utility.yul\":8802:8991   */\n    tag_130:\n        /* \"#utility.yul\":8879:8911   */\n      tag_240\n      tag_129\n      jump\t// in\n    tag_240:\n        /* \"#utility.yul\":8920:8985   */\n      tag_241\n        /* \"#utility.yul\":8978:8984   */\n      dup2\n        /* \"#utility.yul\":8970:8976   */\n      dup5\n        /* \"#utility.yul\":8964:8968   */\n      dup5\n        /* \"#utility.yul\":8920:8985   */\n      tag_128\n      jump\t// in\n    tag_241:\n        /* \"#utility.yul\":8855:8991   */\n      pop\n        /* \"#utility.yul\":8802:8991   */\n      pop\n      pop\n      jump\t// out\n        /* \"#utility.yul\":8997:9183   */\n    tag_131:\n        /* \"#utility.yul\":9057:9177   */\n    tag_243:\n        /* \"#utility.yul\":9074:9077   */\n      dup2\n        /* \"#utility.yul\":9067:9072   */\n      dup2\n        /* \"#utility.yul\":9064:9078   */\n      lt\n        /* \"#utility.yul\":9057:9177   */\n      iszero\n      tag_245\n      jumpi\n        /* \"#utility.yul\":9128:9167   */\n      tag_246\n        /* \"#utility.yul\":9165:9166   */\n      0x00\n        /* \"#utility.yul\":9158:9163   */\n      dup3\n        /* \"#utility.yul\":9128:9167   */\n      tag_130\n      jump\t// in\n    tag_246:\n        /* \"#utility.yul\":9101:9102   */\n      0x01\n        /* \"#utility.yul\":9094:9099   */\n      dup2\n        /* \"#utility.yul\":9090:9103   */\n      add\n        /* \"#utility.yul\":9081:9103   */\n      swap1\n      pop\n        /* \"#utility.yul\":9057:9177   */\n      jump(tag_243)\n    tag_245:\n        /* \"#utility.yul\":8997:9183   */\n      pop\n      pop\n      jump\t// out\n        /* \"#utility.yul\":9189:9732   */\n    tag_132:\n        /* \"#utility.yul\":9290:9292   */\n      0x1f\n        /* \"#utility.yul\":9285:9288   */\n      dup3\n        /* \"#utility.yul\":9282:9293   */\n      gt\n        /* \"#utility.yul\":9279:9725   */\n      iszero\n      tag_248\n      jumpi\n        /* \"#utility.yul\":9324:9362   */\n      tag_249\n        /* \"#utility.yul\":9356:9361   */\n      dup2\n        /* \"#utility.yul\":9324:9362   */\n      tag_121\n      jump\t// in\n    tag_249:\n        /* \"#utility.yul\":9408:9437   */\n      tag_250\n        /* \"#utility.yul\":9426:9436   */\n      dup5\n        /* \"#utility.yul\":9408:9437   */\n      tag_122\n      jump\t// in\n    tag_250:\n        /* \"#utility.yul\":9398:9406   */\n      dup2\n        /* \"#utility.yul\":9394:9438   */\n      add\n        /* \"#utility.yul\":9591:9593   */\n      0x20\n        /* \"#utility.yul\":9579:9589   */\n      dup6\n        /* \"#utility.yul\":9576:9594   */\n      lt\n        /* \"#utility.yul\":9573:9622   */\n      iszero\n      tag_251\n      jumpi\n        /* \"#utility.yul\":9612:9620   */\n      dup2\n        /* \"#utility.yul\":9597:9620   */\n      swap1\n      pop\n        /* \"#utility.yul\":9573:9622   */\n    tag_251:\n        /* \"#utility.yul\":9635:9715   */\n      tag_252\n        /* \"#utility.yul\":9691:9713   */\n      tag_253\n        /* \"#utility.yul\":9709:9712   */\n      dup6\n        /* \"#utility.yul\":9691:9713   */\n      tag_122\n      jump\t// in\n    tag_253:\n        /* \"#utility.yul\":9681:9689   */\n      dup4\n        /* \"#utility.yul\":9677:9714   */\n      add\n        /* \"#utility.yul\":9664:9675   */\n      dup3\n        /* \"#utility.yul\":9635:9715   */\n      tag_131\n      jump\t// in\n    tag_252:\n        /* \"#utility.yul\":9294:9725   */\n      pop\n      pop\n        /* \"#utility.yul\":9279:9725   */\n    tag_248:\n        /* \"#utility.yul\":9189:9732   */\n      pop\n      pop\n      pop\n      jump\t// out\n        /* \"#utility.yul\":9738:9855   */\n    tag_133:\n        /* \"#utility.yul\":9792:9800   */\n      0x00\n        /* \"#utility.yul\":9842:9847   */\n      dup3\n        /* \"#utility.yul\":9836:9840   */\n      dup3\n        /* \"#utility.yul\":9832:9848   */\n      shr\n        /* \"#utility.yul\":9811:9848   */\n      swap1\n      pop\n        /* \"#utility.yul\":9738:9855   */\n      swap3\n      swap2\n      pop\n      pop\n      jump\t// out\n        /* \"#utility.yul\":9861:10030   */\n    tag_134:\n        /* \"#utility.yul\":9905:9911   */\n      0x00\n        /* \"#utility.yul\":9938:9989   */\n      tag_256\n        /* \"#utility.yul\":9986:9987   */\n      0x00\n        /* \"#utility.yul\":9982:9988   */\n      not\n        /* \"#utility.yul\":9974:9979   */\n      dup5\n        /* \"#utility.yul\":9971:9972   */\n      0x08\n        /* \"#utility.yul\":9967:9980   */\n      mul\n        /* \"#utility.yul\":9938:9989   */\n      tag_133\n      jump\t// in\n    tag_256:\n        /* \"#utility.yul\":9934:9990   */\n      not\n        /* \"#utility.yul\":10019:10023   */\n      dup1\n        /* \"#utility.yul\":10013:10017   */\n      dup4\n        /* \"#utility.yul\":10009:10024   */\n      and\n        /* \"#utility.yul\":9999:10024   */\n      swap2\n      pop\n        /* \"#utility.yul\":9912:10030   */\n      pop\n        /* \"#utility.yul\":9861:10030   */\n      swap3\n      swap2\n      pop\n      pop\n      jump\t// out\n        /* \"#utility.yul\":10035:10330   */\n    tag_135:\n        /* \"#utility.yul\":10111:10115   */\n      0x00\n        /* \"#utility.yul\":10257:10286   */\n      tag_258\n        /* \"#utility.yul\":10282:10285   */\n      dup4\n        /* \"#utility.yul\":10276:10280   */\n      dup4\n        /* \"#utility.yul\":10257:10286   */\n      tag_134\n      jump\t// in\n    tag_258:\n        /* \"#utility.yul\":10249:10286   */\n      swap2\n      pop\n        /* \"#utility.yul\":10319:10322   */\n      dup3\n        /* \"#utility.yul\":10316:10317   */\n      0x02\n        /* \"#utility.yul\":10312:10323   */\n      mul\n        /* \"#utility.yul\":10306:10310   */\n      dup3\n        /* \"#utility.yul\":10303:10324   */\n      or\n        /* \"#utility.yul\":10295:10324   */\n      swap1\n      pop\n        /* \"#utility.yul\":10035:10330   */\n      swap3\n      swap2\n      pop\n      pop\n      jump\t// out\n        /* \"#utility.yul\":10335:11730   */\n    tag_78:\n        /* \"#utility.yul\":10452:10489   */\n      tag_260\n        /* \"#utility.yul\":10485:10488   */\n      dup3\n        /* \"#utility.yul\":10452:10489   */\n      tag_102\n      jump\t// in\n    tag_260:\n        /* \"#utility.yul\":10554:10572   */\n      0xffffffffffffffff\n        /* \"#utility.yul\":10546:10552   */\n      dup2\n        /* \"#utility.yul\":10543:10573   */\n      gt\n        /* \"#utility.yul\":10540:10596   */\n      iszero\n      tag_261\n      jumpi\n        /* \"#utility.yul\":10576:10594   */\n      tag_262\n      tag_113\n      jump\t// in\n    tag_262:\n        /* \"#utility.yul\":10540:10596   */\n    tag_261:\n        /* \"#utility.yul\":10620:10658   */\n      tag_263\n        /* \"#utility.yul\":10652:10656   */\n      dup3\n        /* \"#utility.yul\":10646:10657   */\n      sload\n        /* \"#utility.yul\":10620:10658   */\n      tag_50\n      jump\t// in\n    tag_263:\n        /* \"#utility.yul\":10705:10772   */\n      tag_264\n        /* \"#utility.yul\":10765:10771   */\n      dup3\n        /* \"#utility.yul\":10757:10763   */\n      dup3\n        /* \"#utility.yul\":10751:10755   */\n      dup6\n        /* \"#utility.yul\":10705:10772   */\n      tag_132\n      jump\t// in\n    tag_264:\n        /* \"#utility.yul\":10799:10800   */\n      0x00\n        /* \"#utility.yul\":10823:10827   */\n      0x20\n        /* \"#utility.yul\":10810:10827   */\n      swap1\n      pop\n        /* \"#utility.yul\":10855:10857   */\n      0x1f\n        /* \"#utility.yul\":10847:10853   */\n      dup4\n        /* \"#utility.yul\":10844:10858   */\n      gt\n        /* \"#utility.yul\":10872:10873   */\n      0x01\n        /* \"#utility.yul\":10867:11485   */\n      dup2\n      eq\n      tag_266\n      jumpi\n        /* \"#utility.yul\":11529:11530   */\n      0x00\n        /* \"#utility.yul\":11546:11552   */\n      dup5\n        /* \"#utility.yul\":11543:11620   */\n      iszero\n      tag_267\n      jumpi\n        /* \"#utility.yul\":11595:11604   */\n      dup3\n        /* \"#utility.yul\":11590:11593   */\n      dup8\n        /* \"#utility.yul\":11586:11605   */\n      add\n        /* \"#utility.yul\":11580:11606   */\n      mload\n        /* \"#utility.yul\":11571:11606   */\n      swap1\n      pop\n        /* \"#utility.yul\":11543:11620   */\n    tag_267:\n        /* \"#utility.yul\":11646:11713   */\n      tag_268\n        /* \"#utility.yul\":11706:11712   */\n      dup6\n        /* \"#utility.yul\":11699:11704   */\n      dup3\n        /* \"#utility.yul\":11646:11713   */\n      tag_135\n      jump\t// in\n    tag_268:\n        /* \"#utility.yul\":11640:11644   */\n      dup7\n        /* \"#utility.yul\":11633:11714   */\n      sstore\n        /* \"#utility.yul\":11502:11724   */\n      pop\n        /* \"#utility.yul\":10837:11724   */\n      jump(tag_265)\n        /* \"#utility.yul\":10867:11485   */\n    tag_266:\n        /* \"#utility.yul\":10919:10923   */\n      0x1f\n        /* \"#utility.yul\":10915:10924   */\n      not\n        /* \"#utility.yul\":10907:10913   */\n      dup5\n        /* \"#utility.yul\":10903:10925   */\n      and\n        /* \"#utility.yul\":10953:10990   */\n      tag_269\n        /* \"#utility.yul\":10985:10989   */\n      dup7\n        /* \"#utility.yul\":10953:10990   */\n      tag_121\n      jump\t// in\n    tag_269:\n        /* \"#utility.yul\":11012:11013   */\n      0x00\n        /* \"#utility.yul\":11026:11234   */\n    tag_270:\n        /* \"#utility.yul\":11040:11047   */\n      dup3\n        /* \"#utility.yul\":11037:11038   */\n      dup2\n        /* \"#utility.yul\":11034:11048   */\n      lt\n        /* \"#utility.yul\":11026:11234   */\n      iszero\n      tag_272\n      jumpi\n        /* \"#utility.yul\":11119:11128   */\n      dup5\n        /* \"#utility.yul\":11114:11117   */\n      dup10\n        /* \"#utility.yul\":11110:11129   */\n      add\n        /* \"#utility.yul\":11104:11130   */\n      mload\n        /* \"#utility.yul\":11096:11102   */\n      dup3\n        /* \"#utility.yul\":11089:11131   */\n      sstore\n        /* \"#utility.yul\":11170:11171   */\n      0x01\n        /* \"#utility.yul\":11162:11168   */\n      dup3\n        /* \"#utility.yul\":11158:11172   */\n      add\n        /* \"#utility.yul\":11148:11172   */\n      swap2\n      pop\n        /* \"#utility.yul\":11217:11219   */\n      0x20\n        /* \"#utility.yul\":11206:11215   */\n      dup6\n        /* \"#utility.yul\":11202:11220   */\n      add\n        /* \"#utility.yul\":11189:11220   */\n      swap5\n      pop\n        /* \"#utility.yul\":11063:11067   */\n      0x20\n        /* \"#utility.yul\":11060:11061   */\n      dup2\n        /* \"#utility.yul\":11056:11068   */\n      add\n        /* \"#utility.yul\":11051:11068   */\n      swap1\n      pop\n        /* \"#utility.yul\":11026:11234   */\n      jump(tag_270)\n    tag_272:\n        /* \"#utility.yul\":11262:11268   */\n      dup7\n        /* \"#utility.yul\":11253:11260   */\n      dup4\n        /* \"#utility.yul\":11250:11269   */\n      lt\n        /* \"#utility.yul\":11247:11426   */\n      iszero\n      tag_273\n      jumpi\n        /* \"#utility.yul\":11320:11329   */\n      dup5\n        /* \"#utility.yul\":11315:11318   */\n      dup10\n        /* \"#utility.yul\":11311:11330   */\n      add\n        /* \"#utility.yul\":11305:11331   */\n      mload\n        /* \"#utility.yul\":11363:11411   */\n      tag_274\n        /* \"#utility.yul\":11405:11409   */\n      0x1f\n        /* \"#utility.yul\":11397:11403   */\n      dup10\n        /* \"#utility.yul\":11393:11410   */\n      and\n        /* \"#utility.yul\":11382:11391   */\n      dup3\n        /* \"#utility.yul\":11363:11411   */\n      tag_134\n      jump\t// in\n    tag_274:\n        /* \"#utility.yul\":11355:11361   */\n      dup4\n        /* \"#utility.yul\":11348:11412   */\n      sstore\n        /* \"#utility.yul\":11270:11426   */\n      pop\n        /* \"#utility.yul\":11247:11426   */\n    tag_273:\n        /* \"#utility.yul\":11472:11473   */\n      0x01\n        /* \"#utility.yul\":11468:11469   */\n      0x02\n        /* \"#utility.yul\":11460:11466   */\n      dup9\n        /* \"#utility.yul\":11456:11470   */\n      mul\n        /* \"#utility.yul\":11452:11474   */\n      add\n        /* \"#utility.yul\":11446:11450   */\n      dup9\n        /* \"#utility.yul\":11439:11475   */\n      sstore\n        /* \"#utility.yul\":10874:11485   */\n      pop\n      pop\n      pop\n        /* \"#utility.yul\":10837:11724   */\n    tag_265:\n      pop\n        /* \"#utility.yul\":10427:11730   */\n      pop\n      pop\n      pop\n        /* \"#utility.yul\":10335:11730   */\n      pop\n      pop\n      jump\t// out\n\n    auxdata: 0xa264697066735822122019adffae5da77a9961632a44b462ac63655a28f04985a805c86193ca22b5dad464736f6c63430008140033\n}\n",
				"bytecode": {
					"linkReferences": {},
					"object": "608060405234801561000f575f80fd5b50610c4d8061001d5f395ff3fe608060405234801561000f575f80fd5b5060043610610086575f3560e01c8063b6a46b3b11610059578063b6a46b3b14610139578063caaa031714610155578063cd00620d14610171578063d511b4be1461018d57610086565b806331184dc31461008a5780634112a18e146100bb57806380c9419e146100d75780639c117f0f14610108575b5f80fd5b6100a4600480360381019061009f91906105ef565b6101a9565b6040516100b29291906106be565b60405180910390f35b6100d560048036038101906100d09190610716565b610276565b005b6100f160048036038101906100ec91906105ef565b6102b3565b6040516100ff9291906106be565b60405180910390f35b610122600480360381019061011d91906105ef565b610373565b6040516101309291906106be565b60405180910390f35b610153600480360381019061014e9190610880565b61045f565b005b61016f600480360381019061016a91906108c7565b6104d5565b005b61018b600480360381019061018691906108c7565b610508565b005b6101a760048036038101906101a291906105ef565b610540565b005b60605f805f84815481106101c0576101bf610921565b5b905f5260205f2090600202019050805f01816001015f9054906101000a900460ff168180546101ee9061097b565b80601f016020809104026020016040519081016040528092919081815260200182805461021a9061097b565b80156102655780601f1061023c57610100808354040283529160200191610265565b820191905f5260205f20905b81548152906001019060200180831161024857829003601f168201915b505050505091509250925050915091565b805f838154811061028a57610289610921565b5b905f5260205f2090600202016001015f6101000a81548160ff0219169083151502179055505050565b5f81815481106102c1575f80fd5b905f5260205f2090600202015f91509050805f0180546102e09061097b565b80601f016020809104026020016040519081016040528092919081815260200182805461030c9061097b565b80156103575780601f1061032e57610100808354040283529160200191610357565b820191905f5260205f20905b81548152906001019060200180831161033a57829003601f168201915b505050505090806001015f9054906101000a900460ff16905082565b60605f805f848154811061038a57610389610921565b5b905f5260205f2090600202016040518060400160405290815f820180546103b09061097b565b80601f01602080910402602001604051908101604052809291908181526020018280546103dc9061097b565b80156104275780601f106103fe57610100808354040283529160200191610427565b820191905f5260205f20905b81548152906001019060200180831161040a57829003601f168201915b50505050508152602001600182015f9054906101000a900460ff1615151515815250509050805f015181602001519250925050915091565b5f60405180604001604052808381526020015f1515815250908060018154018082558091505060019003905f5260205f2090600202015f909190919091505f820151815f0190816104b09190610b48565b506020820151816001015f6101000a81548160ff021916908315150217905550505050565b815f82815481106104e9576104e8610921565b5b905f5260205f2090600202015f0190816105039190610b48565b505050565b5f80828154811061051c5761051b610921565b5b905f5260205f209060020201905082815f01908161053a9190610b48565b50505050565b5f818154811061055357610552610921565b5b905f5260205f2090600202016001015f9054906101000a900460ff16155f828154811061058357610582610921565b5b905f5260205f2090600202016001015f6101000a81548160ff02191690831515021790555050565b5f604051905090565b5f80fd5b5f80fd5b5f819050919050565b6105ce816105bc565b81146105d8575f80fd5b50565b5f813590506105e9816105c5565b92915050565b5f60208284031215610604576106036105b4565b5b5f610611848285016105db565b91505092915050565b5f81519050919050565b5f82825260208201905092915050565b5f5b83811015610651578082015181840152602081019050610636565b5f8484015250505050565b5f601f19601f8301169050919050565b5f6106768261061a565b6106808185610624565b9350610690818560208601610634565b6106998161065c565b840191505092915050565b5f8115159050919050565b6106b8816106a4565b82525050565b5f6040820190508181035f8301526106d6818561066c565b90506106e560208301846106af565b9392505050565b6106f5816106a4565b81146106ff575f80fd5b50565b5f81359050610710816106ec565b92915050565b5f806040838503121561072c5761072b6105b4565b5b5f610739858286016105db565b925050602061074a85828601610702565b9150509250929050565b5f80fd5b5f80fd5b7f4e487b71000000000000000000000000000000000000000000000000000000005f52604160045260245ffd5b6107928261065c565b810181811067ffffffffffffffff821117156107b1576107b061075c565b5b80604052505050565b5f6107c36105ab565b90506107cf8282610789565b919050565b5f67ffffffffffffffff8211156107ee576107ed61075c565b5b6107f78261065c565b9050602081019050919050565b828183375f83830152505050565b5f61082461081f846107d4565b6107ba565b9050828152602081018484840111156108405761083f610758565b5b61084b848285610804565b509392505050565b5f82601f83011261086757610866610754565b5b8135610877848260208601610812565b91505092915050565b5f60208284031215610895576108946105b4565b5b5f82013567ffffffffffffffff8111156108b2576108b16105b8565b5b6108be84828501610853565b91505092915050565b5f80604083850312156108dd576108dc6105b4565b5b5f83013567ffffffffffffffff8111156108fa576108f96105b8565b5b61090685828601610853565b9250506020610917858286016105db565b9150509250929050565b7f4e487b71000000000000000000000000000000000000000000000000000000005f52603260045260245ffd5b7f4e487b71000000000000000000000000000000000000000000000000000000005f52602260045260245ffd5b5f600282049050600182168061099257607f821691505b6020821081036109a5576109a461094e565b5b50919050565b5f819050815f5260205f209050919050565b5f6020601f8301049050919050565b5f82821b905092915050565b5f60088302610a077fffffffffffffffffffffffffffffffffffffffffffffffffffffffffffffffff826109cc565b610a1186836109cc565b95508019841693508086168417925050509392505050565b5f819050919050565b5f610a4c610a47610a42846105bc565b610a29565b6105bc565b9050919050565b5f819050919050565b610a6583610a32565b610a79610a7182610a53565b8484546109d8565b825550505050565b5f90565b610a8d610a81565b610a98818484610a5c565b505050565b5b81811015610abb57610ab05f82610a85565b600181019050610a9e565b5050565b601f821115610b0057610ad1816109ab565b610ada846109bd565b81016020851015610ae9578190505b610afd610af5856109bd565b830182610a9d565b50505b505050565b5f82821c905092915050565b5f610b205f1984600802610b05565b1980831691505092915050565b5f610b388383610b11565b9150826002028217905092915050565b610b518261061a565b67ffffffffffffffff811115610b6a57610b6961075c565b5b610b74825461097b565b610b7f828285610abf565b5f60209050601f831160018114610bb0575f8415610b9e578287015190505b610ba88582610b2d565b865550610c0f565b601f198416610bbe866109ab565b5f5b82811015610be557848901518255600182019150602085019450602081019050610bc0565b86831015610c025784890151610bfe601f891682610b11565b8355505b6001600288020188555050505b50505050505056fea264697066735822122019adffae5da77a9961632a44b462ac63655a28f04985a805c86193ca22b5dad464736f6c63430008140033",
					"opcodes": "PUSH1 0x80 PUSH1 0x40 MSTORE CALLVALUE DUP1 ISZERO PUSH2 0xF JUMPI PUSH0 DUP1 REVERT JUMPDEST POP PUSH2 0xC4D DUP1 PUSH2 0x1D PUSH0 CODECOPY PUSH0 RETURN INVALID PUSH1 0x80 PUSH1 0x40 MSTORE CALLVALUE DUP1 ISZERO PUSH2 0xF JUMPI PUSH0 DUP1 REVERT JUMPDEST POP PUSH1 0x4 CALLDATASIZE LT PUSH2 0x86 JUMPI PUSH0 CALLDATALOAD PUSH1 0xE0 SHR DUP1 PUSH4 0xB6A46B3B GT PUSH2 0x59 JUMPI DUP1 PUSH4 0xB6A46B3B EQ PUSH2 0x139 JUMPI DUP1 PUSH4 0xCAAA0317 EQ PUSH2 0x155 JUMPI DUP1 PUSH4 0xCD00620D EQ PUSH2 0x171 JUMPI DUP1 PUSH4 0xD511B4BE EQ PUSH2 0x18D JUMPI PUSH2 0x86 JUMP JUMPDEST DUP1 PUSH4 0x31184DC3 EQ PUSH2 0x8A JUMPI DUP1 PUSH4 0x4112A18E EQ PUSH2 0xBB JUMPI DUP1 PUSH4 0x80C9419E EQ PUSH2 0xD7 JUMPI DUP1 PUSH4 0x9C117F0F EQ PUSH2 0x108 JUMPI JUMPDEST PUSH0 DUP1 REVERT JUMPDEST PUSH2 0xA4 PUSH1 0x4 DUP1 CALLDATASIZE SUB DUP2 ADD SWAP1 PUSH2 0x9F SWAP2 SWAP1 PUSH2 0x5EF JUMP JUMPDEST PUSH2 0x1A9 JUMP JUMPDEST PUSH1 0x40 MLOAD PUSH2 0xB2 SWAP3 SWAP2 SWAP1 PUSH2 0x6BE JUMP JUMPDEST PUSH1 0x40 MLOAD DUP1 SWAP2 SUB SWAP1 RETURN JUMPDEST PUSH2 0xD5 PUSH1 0x4 DUP1 CALLDATASIZE SUB DUP2 ADD SWAP1 PUSH2 0xD0 SWAP2 SWAP1 PUSH2 0x716 JUMP JUMPDEST PUSH2 0x276 JUMP JUMPDEST STOP JUMPDEST PUSH2 0xF1 PUSH1 0x4 DUP1 CALLDATASIZE SUB DUP2 ADD SWAP1 PUSH2 0xEC SWAP2 SWAP1 PUSH2 0x5EF JUMP JUMPDEST PUSH2 0x2B3 JUMP JUMPDEST PUSH1 0x40 MLOAD PUSH2 0xFF SWAP3 SWAP2 SWAP1 PUSH2 0x6BE JUMP JUMPDEST PUSH1 0x40 MLOAD DUP1 SWAP2 SUB SWAP1 RETURN JUMPDEST PUSH2 0x122 PUSH1 0x4 DUP1 CALLDATASIZE SUB DUP2 ADD SWAP1 PUSH2 0x11D SWAP2 SWAP1 PUSH2 0x5EF JUMP JUMPDEST PUSH2 0x373 JUMP JUMPDEST PUSH1 0x40 MLOAD PUSH2 0x130 SWAP3 SWAP2 SWAP1 PUSH2 0x6BE JUMP JUMPDEST PUSH1 0x40 MLOAD DUP1 SWAP2 SUB SWAP1 RETURN JUMPDEST PUSH2 0x153 PUSH1 0x4 DUP1 CALLDATASIZE SUB DUP2 ADD SWAP1 PUSH2 0x14E SWAP2 SWAP1 PUSH2 0x880 JUMP JUMPDEST PUSH2 0x45F JUMP JUMPDEST STOP JUMPDEST PUSH2 0x16F PUSH1 0x4 DUP1 CALLDATASIZE SUB DUP2 ADD SWAP1 PUSH2 0x16A SWAP2 SWAP1 PUSH2 0x8C7 JUMP JUMPDEST PUSH2 0x4D5 JUMP JUMPDEST STOP JUMPDEST PUSH2 0x18B PUSH1 0x4 DUP1 CALLDATASIZE SUB DUP2 ADD SWAP1 PUSH2 0x186 SWAP2 SWAP1 PUSH2 0x8C7 JUMP JUMPDEST PUSH2 0x508 JUMP JUMPDEST STOP JUMPDEST PUSH2 0x1A7 PUSH1 0x4 DUP1 CALLDATASIZE SUB DUP2 ADD SWAP1 PUSH2 0x1A2 SWAP2 SWAP1 PUSH2 0x5EF JUMP JUMPDEST PUSH2 0x540 JUMP JUMPDEST STOP JUMPDEST PUSH1 0x60 PUSH0 DUP1 PUSH0 DUP5 DUP2 SLOAD DUP2 LT PUSH2 0x1C0 JUMPI PUSH2 0x1BF PUSH2 0x921 JUMP JUMPDEST JUMPDEST SWAP1 PUSH0 MSTORE PUSH1 0x20 PUSH0 KECCAK256 SWAP1 PUSH1 0x2 MUL ADD SWAP1 POP DUP1 PUSH0 ADD DUP2 PUSH1 0x1 ADD PUSH0 SWAP1 SLOAD SWAP1 PUSH2 0x100 EXP SWAP1 DIV PUSH1 0xFF AND DUP2 DUP1 SLOAD PUSH2 0x1EE SWAP1 PUSH2 0x97B JUMP JUMPDEST DUP1 PUSH1 0x1F ADD PUSH1 0x20 DUP1 SWAP2 DIV MUL PUSH1 0x20 ADD PUSH1 0x40 MLOAD SWAP1 DUP2 ADD PUSH1 0x40 MSTORE DUP1 SWAP3 SWAP2 SWAP1 DUP2 DUP2 MSTORE PUSH1 0x20 ADD DUP3 DUP1 SLOAD PUSH2 0x21A SWAP1 PUSH2 0x97B JUMP JUMPDEST DUP1 ISZERO PUSH2 0x265 JUMPI DUP1 PUSH1 0x1F LT PUSH2 0x23C JUMPI PUSH2 0x100 DUP1 DUP4 SLOAD DIV MUL DUP4 MSTORE SWAP2 PUSH1 0x20 ADD SWAP2 PUSH2 0x265 JUMP JUMPDEST DUP3 ADD SWAP2 SWAP1 PUSH0 MSTORE PUSH1 0x20 PUSH0 KECCAK256 SWAP1 JUMPDEST DUP2 SLOAD DUP2 MSTORE SWAP1 PUSH1 0x1 ADD SWAP1 PUSH1 0x20 ADD DUP1 DUP4 GT PUSH2 0x248 JUMPI DUP3 SWAP1 SUB PUSH1 0x1F AND DUP3 ADD SWAP2 JUMPDEST POP POP POP POP POP SWAP2 POP SWAP3 POP SWAP3 POP POP SWAP2 POP SWAP2 JUMP JUMPDEST DUP1 PUSH0 DUP4 DUP2 SLOAD DUP2 LT PUSH2 0x28A JUMPI PUSH2 0x289 PUSH2 0x921 JUMP JUMPDEST JUMPDEST SWAP1 PUSH0 MSTORE PUSH1 0x20 PUSH0 KECCAK256 SWAP1 PUSH1 0x2 MUL ADD PUSH1 0x1 ADD PUSH0 PUSH2 0x100 EXP DUP2 SLOAD DUP2 PUSH1 0xFF MUL NOT AND SWAP1 DUP4 ISZERO ISZERO MUL OR SWAP1 SSTORE POP POP POP JUMP JUMPDEST PUSH0 DUP2 DUP2 SLOAD DUP2 LT PUSH2 0x2C1 JUMPI PUSH0 DUP1 REVERT JUMPDEST SWAP1 PUSH0 MSTORE PUSH1 0x20 PUSH0 KECCAK256 SWAP1 PUSH1 0x2 MUL ADD PUSH0 SWAP2 POP SWAP1 POP DUP1 PUSH0 ADD DUP1 SLOAD PUSH2 0x2E0 SWAP1 PUSH2 0x97B JUMP JUMPDEST DUP1 PUSH1 0x1F ADD PUSH1 0x20 DUP1 SWAP2 DIV MUL PUSH1 0x20 ADD PUSH1 0x40 MLOAD SWAP1 DUP2 ADD PUSH1 0x40 MSTORE DUP1 SWAP3 SWAP2 SWAP1 DUP2 DUP2 MSTORE PUSH1 0x20 ADD DUP3 DUP1 SLOAD PUSH2 0x30C SWAP1 PUSH2 0x97B JUMP JUMPDEST DUP1 ISZERO PUSH2 0x357 JUMPI DUP1 PUSH1 0x1F LT PUSH2 0x32E JUMPI PUSH2 0x100 DUP1 DUP4 SLOAD DIV MUL DUP4 MSTORE SWAP2 PUSH1 0x20 ADD SWAP2 PUSH2 0x357 JUMP JUMPDEST DUP3 ADD SWAP2 SWAP1 PUSH0 MSTORE PUSH1 0x20 PUSH0 KECCAK256 SWAP1 JUMPDEST DUP2 SLOAD DUP2 MSTORE SWAP1 PUSH1 0x1 ADD SWAP1 PUSH1 0x20 ADD DUP1 DUP4 GT PUSH2 0x33A JUMPI DUP3 SWAP1 SUB PUSH1 0x1F AND DUP3 ADD SWAP2 JUMPDEST POP POP POP POP POP SWAP1 DUP1 PUSH1 0x1 ADD PUSH0 SWAP1 SLOAD SWAP1 PUSH2 0x100 EXP SWAP1 DIV PUSH1 0xFF AND SWAP1 POP DUP3 JUMP JUMPDEST PUSH1 0x60 PUSH0 DUP1 PUSH0 DUP5 DUP2 SLOAD DUP2 LT PUSH2 0x38A JUMPI PUSH2 0x389 PUSH2 0x921 JUMP JUMPDEST JUMPDEST SWAP1 PUSH0 MSTORE PUSH1 0x20 PUSH0 KECCAK256 SWAP1 PUSH1 0x2 MUL ADD PUSH1 0x40 MLOAD DUP1 PUSH1 0x40 ADD PUSH1 0x40 MSTORE SWAP1 DUP2 PUSH0 DUP3 ADD DUP1 SLOAD PUSH2 0x3B0 SWAP1 PUSH2 0x97B JUMP JUMPDEST DUP1 PUSH1 0x1F ADD PUSH1 0x20 DUP1 SWAP2 DIV MUL PUSH1 0x20 ADD PUSH1 0x40 MLOAD SWAP1 DUP2 ADD PUSH1 0x40 MSTORE DUP1 SWAP3 SWAP2 SWAP1 DUP2 DUP2 MSTORE PUSH1 0x20 ADD DUP3 DUP1 SLOAD PUSH2 0x3DC SWAP1 PUSH2 0x97B JUMP JUMPDEST DUP1 ISZERO PUSH2 0x427 JUMPI DUP1 PUSH1 0x1F LT PUSH2 0x3FE JUMPI PUSH2 0x100 DUP1 DUP4 SLOAD DIV MUL DUP4 MSTORE SWAP2 PUSH1 0x20 ADD SWAP2 PUSH2 0x427 JUMP JUMPDEST DUP3 ADD SWAP2 SWAP1 PUSH0 MSTORE PUSH1 0x20 PUSH0 KECCAK256 SWAP1 JUMPDEST DUP2 SLOAD DUP2 MSTORE SWAP1 PUSH1 0x1 ADD SWAP1 PUSH1 0x20 ADD DUP1 DUP4 GT PUSH2 0x40A JUMPI DUP3 SWAP1 SUB PUSH1 0x1F AND DUP3 ADD SWAP2 JUMPDEST POP POP POP POP POP DUP2 MSTORE PUSH1 0x20 ADD PUSH1 0x1 DUP3 ADD PUSH0 SWAP1 SLOAD SWAP1 PUSH2 0x100 EXP SWAP1 DIV PUSH1 0xFF AND ISZERO ISZERO ISZERO ISZERO DUP2 MSTORE POP POP SWAP1 POP DUP1 PUSH0 ADD MLOAD DUP2 PUSH1 0x20 ADD MLOAD SWAP3 POP SWAP3 POP POP SWAP2 POP SWAP2 JUMP JUMPDEST PUSH0 PUSH1 0x40 MLOAD DUP1 PUSH1 0x40 ADD PUSH1 0x40 MSTORE DUP1 DUP4 DUP2 MSTORE PUSH1 0x20 ADD PUSH0 ISZERO ISZERO DUP2 MSTORE POP SWAP1 DUP1 PUSH1 0x1 DUP2 SLOAD ADD DUP1 DUP3 SSTORE DUP1 SWAP2 POP POP PUSH1 0x1 SWAP1 SUB SWAP1 PUSH0 MSTORE PUSH1 0x20 PUSH0 KECCAK256 SWAP1 PUSH1 0x2 MUL ADD PUSH0 SWAP1 SWAP2 SWAP1 SWAP2 SWAP1 SWAP2 POP PUSH0 DUP3 ADD MLOAD DUP2 PUSH0 ADD SWAP1 DUP2 PUSH2 0x4B0 SWAP2 SWAP1 PUSH2 0xB48 JUMP JUMPDEST POP PUSH1 0x20 DUP3 ADD MLOAD DUP2 PUSH1 0x1 ADD PUSH0 PUSH2 0x100 EXP DUP2 SLOAD DUP2 PUSH1 0xFF MUL NOT AND SWAP1 DUP4 ISZERO ISZERO MUL OR SWAP1 SSTORE POP POP POP POP JUMP JUMPDEST DUP2 PUSH0 DUP3 DUP2 SLOAD DUP2 LT PUSH2 0x4E9 JUMPI PUSH2 0x4E8 PUSH2 0x921 JUMP JUMPDEST JUMPDEST SWAP1 PUSH0 MSTORE PUSH1 0x20 PUSH0 KECCAK256 SWAP1 PUSH1 0x2 MUL ADD PUSH0 ADD SWAP1 DUP2 PUSH2 0x503 SWAP2 SWAP1 PUSH2 0xB48 JUMP JUMPDEST POP POP POP JUMP JUMPDEST PUSH0 DUP1 DUP3 DUP2 SLOAD DUP2 LT PUSH2 0x51C JUMPI PUSH2 0x51B PUSH2 0x921 JUMP JUMPDEST JUMPDEST SWAP1 PUSH0 MSTORE PUSH1 0x20 PUSH0 KECCAK256 SWAP1 PUSH1 0x2 MUL ADD SWAP1 POP DUP3 DUP2 PUSH0 ADD SWAP1 DUP2 PUSH2 0x53A SWAP2 SWAP1 PUSH2 0xB48 JUMP JUMPDEST POP POP POP POP JUMP JUMPDEST PUSH0 DUP2 DUP2 SLOAD DUP2 LT PUSH2 0x553 JUMPI PUSH2 0x552 PUSH2 0x921 JUMP JUMPDEST JUMPDEST SWAP1 PUSH0 MSTORE PUSH1 0x20 PUSH0 KECCAK256 SWAP1 PUSH1 0x2 MUL ADD PUSH1 0x1 ADD PUSH0 SWAP1 SLOAD SWAP1 PUSH2 0x100 EXP SWAP1 DIV PUSH1 0xFF AND ISZERO PUSH0 DUP3 DUP2 SLOAD DUP2 LT PUSH2 0x583 JUMPI PUSH2 0x582 PUSH2 0x921 JUMP JUMPDEST JUMPDEST SWAP1 PUSH0 MSTORE PUSH1 0x20 PUSH0 KECCAK256 SWAP1 PUSH1 0x2 MUL ADD PUSH1 0x1 ADD PUSH0 PUSH2 0x100 EXP DUP2 SLOAD DUP2 PUSH1 0xFF MUL NOT AND SWAP1 DUP4 ISZERO ISZERO MUL OR SWAP1 SSTORE POP POP JUMP JUMPDEST PUSH0 PUSH1 0x40 MLOAD SWAP1 POP SWAP1 JUMP JUMPDEST PUSH0 DUP1 REVERT JUMPDEST PUSH0 DUP1 REVERT JUMPDEST PUSH0 DUP2 SWAP1 POP SWAP2 SWAP1 POP JUMP JUMPDEST PUSH2 0x5CE DUP2 PUSH2 0x5BC JUMP JUMPDEST DUP2 EQ PUSH2 0x5D8 JUMPI PUSH0 DUP1 REVERT JUMPDEST POP JUMP JUMPDEST PUSH0 DUP2 CALLDATALOAD SWAP1 POP PUSH2 0x5E9 DUP2 PUSH2 0x5C5 JUMP JUMPDEST SWAP3 SWAP2 POP POP JUMP JUMPDEST PUSH0 PUSH1 0x20 DUP3 DUP5 SUB SLT ISZERO PUSH2 0x604 JUMPI PUSH2 0x603 PUSH2 0x5B4 JUMP JUMPDEST JUMPDEST PUSH0 PUSH2 0x611 DUP5 DUP3 DUP6 ADD PUSH2 0x5DB JUMP JUMPDEST SWAP2 POP POP SWAP3 SWAP2 POP POP JUMP JUMPDEST PUSH0 DUP2 MLOAD SWAP1 POP SWAP2 SWAP1 POP JUMP JUMPDEST PUSH0 DUP3 DUP3 MSTORE PUSH1 0x20 DUP3 ADD SWAP1 POP SWAP3 SWAP2 POP POP JUMP JUMPDEST PUSH0 JUMPDEST DUP4 DUP2 LT ISZERO PUSH2 0x651 JUMPI DUP1 DUP3 ADD MLOAD DUP2 DUP5 ADD MSTORE PUSH1 0x20 DUP2 ADD SWAP1 POP PUSH2 0x636 JUMP JUMPDEST PUSH0 DUP5 DUP5 ADD MSTORE POP POP POP POP JUMP JUMPDEST PUSH0 PUSH1 0x1F NOT PUSH1 0x1F DUP4 ADD AND SWAP1 POP SWAP2 SWAP1 POP JUMP JUMPDEST PUSH0 PUSH2 0x676 DUP3 PUSH2 0x61A JUMP JUMPDEST PUSH2 0x680 DUP2 DUP6 PUSH2 0x624 JUMP JUMPDEST SWAP4 POP PUSH2 0x690 DUP2 DUP6 PUSH1 0x20 DUP7 ADD PUSH2 0x634 JUMP JUMPDEST PUSH2 0x699 DUP2 PUSH2 0x65C JUMP JUMPDEST DUP5 ADD SWAP2 POP POP SWAP3 SWAP2 POP POP JUMP JUMPDEST PUSH0 DUP2 ISZERO ISZERO SWAP1 POP SWAP2 SWAP1 POP JUMP JUMPDEST PUSH2 0x6B8 DUP2 PUSH2 0x6A4 JUMP JUMPDEST DUP3 MSTORE POP POP JUMP JUMPDEST PUSH0 PUSH1 0x40 DUP3 ADD SWAP1 POP DUP2 DUP2 SUB PUSH0 DUP4 ADD MSTORE PUSH2 0x6D6 DUP2 DUP6 PUSH2 0x66C JUMP JUMPDEST SWAP1 POP PUSH2 0x6E5 PUSH1 0x20 DUP4 ADD DUP5 PUSH2 0x6AF JUMP JUMPDEST SWAP4 SWAP3 POP POP POP JUMP JUMPDEST PUSH2 0x6F5 DUP2 PUSH2 0x6A4 JUMP JUMPDEST DUP2 EQ PUSH2 0x6FF JUMPI PUSH0 DUP1 REVERT JUMPDEST POP JUMP JUMPDEST PUSH0 DUP2 CALLDATALOAD SWAP1 POP PUSH2 0x710 DUP2 PUSH2 0x6EC JUMP JUMPDEST SWAP3 SWAP2 POP POP JUMP JUMPDEST PUSH0 DUP1 PUSH1 0x40 DUP4 DUP6 SUB SLT ISZERO PUSH2 0x72C JUMPI PUSH2 0x72B PUSH2 0x5B4 JUMP JUMPDEST JUMPDEST PUSH0 PUSH2 0x739 DUP6 DUP3 DUP7 ADD PUSH2 0x5DB JUMP JUMPDEST SWAP3 POP POP PUSH1 0x20 PUSH2 0x74A DUP6 DUP3 DUP7 ADD PUSH2 0x702 JUMP JUMPDEST SWAP2 POP POP SWAP3 POP SWAP3 SWAP1 POP JUMP JUMPDEST PUSH0 DUP1 REVERT JUMPDEST PUSH0 DUP1 REVERT JUMPDEST PUSH32 0x4E487B7100000000000000000000000000000000000000000000000000000000 PUSH0 MSTORE PUSH1 0x41 PUSH1 0x4 MSTORE PUSH1 0x24 PUSH0 REVERT JUMPDEST PUSH2 0x792 DUP3 PUSH2 0x65C JUMP JUMPDEST DUP2 ADD DUP2 DUP2 LT PUSH8 0xFFFFFFFFFFFFFFFF DUP3 GT OR ISZERO PUSH2 0x7B1 JUMPI PUSH2 0x7B0 PUSH2 0x75C JUMP JUMPDEST JUMPDEST DUP1 PUSH1 0x40 MSTORE POP POP POP JUMP JUMPDEST PUSH0 PUSH2 0x7C3 PUSH2 0x5AB JUMP JUMPDEST SWAP1 POP PUSH2 0x7CF DUP3 DUP3 PUSH2 0x789 JUMP JUMPDEST SWAP2 SWAP1 POP JUMP JUMPDEST PUSH0 PUSH8 0xFFFFFFFFFFFFFFFF DUP3 GT ISZERO PUSH2 0x7EE JUMPI PUSH2 0x7ED PUSH2 0x75C JUMP JUMPDEST JUMPDEST PUSH2 0x7F7 DUP3 PUSH2 0x65C JUMP JUMPDEST SWAP1 POP PUSH1 0x20 DUP2 ADD SWAP1 POP SWAP2 SWAP1 POP JUMP JUMPDEST DUP3 DUP2 DUP4 CALLDATACOPY PUSH0 DUP4 DUP4 ADD MSTORE POP POP POP JUMP JUMPDEST PUSH0 PUSH2 0x824 PUSH2 0x81F DUP5 PUSH2 0x7D4 JUMP JUMPDEST PUSH2 0x7BA JUMP JUMPDEST SWAP1 POP DUP3 DUP2 MSTORE PUSH1 0x20 DUP2 ADD DUP5 DUP5 DUP5 ADD GT ISZERO PUSH2 0x840 JUMPI PUSH2 0x83F PUSH2 0x758 JUMP JUMPDEST JUMPDEST PUSH2 0x84B DUP5 DUP3 DUP6 PUSH2 0x804 JUMP JUMPDEST POP SWAP4 SWAP3 POP POP POP JUMP JUMPDEST PUSH0 DUP3 PUSH1 0x1F DUP4 ADD SLT PUSH2 0x867 JUMPI PUSH2 0x866 PUSH2 0x754 JUMP JUMPDEST JUMPDEST DUP2 CALLDATALOAD PUSH2 0x877 DUP5 DUP3 PUSH1 0x20 DUP7 ADD PUSH2 0x812 JUMP JUMPDEST SWAP2 POP POP SWAP3 SWAP2 POP POP JUMP JUMPDEST PUSH0 PUSH1 0x20 DUP3 DUP5 SUB SLT ISZERO PUSH2 0x895 JUMPI PUSH2 0x894 PUSH2 0x5B4 JUMP JUMPDEST JUMPDEST PUSH0 DUP3 ADD CALLDATALOAD PUSH8 0xFFFFFFFFFFFFFFFF DUP2 GT ISZERO PUSH2 0x8B2 JUMPI PUSH2 0x8B1 PUSH2 0x5B8 JUMP JUMPDEST JUMPDEST PUSH2 0x8BE DUP5 DUP3 DUP6 ADD PUSH2 0x853 JUMP JUMPDEST SWAP2 POP POP SWAP3 SWAP2 POP POP JUMP JUMPDEST PUSH0 DUP1 PUSH1 0x40 DUP4 DUP6 SUB SLT ISZERO PUSH2 0x8DD JUMPI PUSH2 0x8DC PUSH2 0x5B4 JUMP JUMPDEST JUMPDEST PUSH0 DUP4 ADD CALLDATALOAD PUSH8 0xFFFFFFFFFFFFFFFF DUP2 GT ISZERO PUSH2 0x8FA JUMPI PUSH2 0x8F9 PUSH2 0x5B8 JUMP JUMPDEST JUMPDEST PUSH2 0x906 DUP6 DUP3 DUP7 ADD PUSH2 0x853 JUMP JUMPDEST SWAP3 POP POP PUSH1 0x20 PUSH2 0x917 DUP6 DUP3 DUP7 ADD PUSH2 0x5DB JUMP JUMPDEST SWAP2 POP POP SWAP3 POP SWAP3 SWAP1 POP JUMP JUMPDEST PUSH32 0x4E487B7100000000000000000000000000000000000000000000000000000000 PUSH0 MSTORE PUSH1 0x32 PUSH1 0x4 MSTORE PUSH1 0x24 PUSH0 REVERT JUMPDEST PUSH32 0x4E487B7100000000000000000000000000000000000000000000000000000000 PUSH0 MSTORE PUSH1 0x22 PUSH1 0x4 MSTORE PUSH1 0x24 PUSH0 REVERT JUMPDEST PUSH0 PUSH1 0x2 DUP3 DIV SWAP1 POP PUSH1 0x1 DUP3 AND DUP1 PUSH2 0x992 JUMPI PUSH1 0x7F DUP3 AND SWAP2 POP JUMPDEST PUSH1 0x20 DUP3 LT DUP2 SUB PUSH2 0x9A5 JUMPI PUSH2 0x9A4 PUSH2 0x94E JUMP JUMPDEST JUMPDEST POP SWAP2 SWAP1 POP JUMP JUMPDEST PUSH0 DUP2 SWAP1 POP DUP2 PUSH0 MSTORE PUSH1 0x20 PUSH0 KECCAK256 SWAP1 POP SWAP2 SWAP1 POP JUMP JUMPDEST PUSH0 PUSH1 0x20 PUSH1 0x1F DUP4 ADD DIV SWAP1 POP SWAP2 SWAP1 POP JUMP JUMPDEST PUSH0 DUP3 DUP3 SHL SWAP1 POP SWAP3 SWAP2 POP POP JUMP JUMPDEST PUSH0 PUSH1 0x8 DUP4 MUL PUSH2 0xA07 PUSH32 0xFFFFFFFFFFFFFFFFFFFFFFFFFFFFFFFFFFFFFFFFFFFFFFFFFFFFFFFFFFFFFFFF DUP3 PUSH2 0x9CC JUMP JUMPDEST PUSH2 0xA11 DUP7 DUP4 PUSH2 0x9CC JUMP JUMPDEST SWAP6 POP DUP1 NOT DUP5 AND SWAP4 POP DUP1 DUP7 AND DUP5 OR SWAP3 POP POP POP SWAP4 SWAP3 POP POP POP JUMP JUMPDEST PUSH0 DUP2 SWAP1 POP SWAP2 SWAP1 POP JUMP JUMPDEST PUSH0 PUSH2 0xA4C PUSH2 0xA47 PUSH2 0xA42 DUP5 PUSH2 0x5BC JUMP JUMPDEST PUSH2 0xA29 JUMP JUMPDEST PUSH2 0x5BC JUMP JUMPDEST SWAP1 POP SWAP2 SWAP1 POP JUMP JUMPDEST PUSH0 DUP2 SWAP1 POP SWAP2 SWAP1 POP JUMP JUMPDEST PUSH2 0xA65 DUP4 PUSH2 0xA32 JUMP JUMPDEST PUSH2 0xA79 PUSH2 0xA71 DUP3 PUSH2 0xA53 JUMP JUMPDEST DUP5 DUP5 SLOAD PUSH2 0x9D8 JUMP JUMPDEST DUP3 SSTORE POP POP POP POP JUMP JUMPDEST PUSH0 SWAP1 JUMP JUMPDEST PUSH2 0xA8D PUSH2 0xA81 JUMP JUMPDEST PUSH2 0xA98 DUP2 DUP5 DUP5 PUSH2 0xA5C JUMP JUMPDEST POP POP POP JUMP JUMPDEST JUMPDEST DUP2 DUP2 LT ISZERO PUSH2 0xABB JUMPI PUSH2 0xAB0 PUSH0 DUP3 PUSH2 0xA85 JUMP JUMPDEST PUSH1 0x1 DUP2 ADD SWAP1 POP PUSH2 0xA9E JUMP JUMPDEST POP POP JUMP JUMPDEST PUSH1 0x1F DUP3 GT ISZERO PUSH2 0xB00 JUMPI PUSH2 0xAD1 DUP2 PUSH2 0x9AB JUMP JUMPDEST PUSH2 0xADA DUP5 PUSH2 0x9BD JUMP JUMPDEST DUP2 ADD PUSH1 0x20 DUP6 LT ISZERO PUSH2 0xAE9 JUMPI DUP2 SWAP1 POP JUMPDEST PUSH2 0xAFD PUSH2 0xAF5 DUP6 PUSH2 0x9BD JUMP JUMPDEST DUP4 ADD DUP3 PUSH2 0xA9D JUMP JUMPDEST POP POP JUMPDEST POP POP POP JUMP JUMPDEST PUSH0 DUP3 DUP3 SHR SWAP1 POP SWAP3 SWAP2 POP POP JUMP JUMPDEST PUSH0 PUSH2 0xB20 PUSH0 NOT DUP5 PUSH1 0x8 MUL PUSH2 0xB05 JUMP JUMPDEST NOT DUP1 DUP4 AND SWAP2 POP POP SWAP3 SWAP2 POP POP JUMP JUMPDEST PUSH0 PUSH2 0xB38 DUP4 DUP4 PUSH2 0xB11 JUMP JUMPDEST SWAP2 POP DUP3 PUSH1 0x2 MUL DUP3 OR SWAP1 POP SWAP3 SWAP2 POP POP JUMP JUMPDEST PUSH2 0xB51 DUP3 PUSH2 0x61A JUMP JUMPDEST PUSH8 0xFFFFFFFFFFFFFFFF DUP2 GT ISZERO PUSH2 0xB6A JUMPI PUSH2 0xB69 PUSH2 0x75C JUMP JUMPDEST JUMPDEST PUSH2 0xB74 DUP3 SLOAD PUSH2 0x97B JUMP JUMPDEST PUSH2 0xB7F DUP3 DUP3 DUP6 PUSH2 0xABF JUMP JUMPDEST PUSH0 PUSH1 0x20 SWAP1 POP PUSH1 0x1F DUP4 GT PUSH1 0x1 DUP2 EQ PUSH2 0xBB0 JUMPI PUSH0 DUP5 ISZERO PUSH2 0xB9E JUMPI DUP3 DUP8 ADD MLOAD SWAP1 POP JUMPDEST PUSH2 0xBA8 DUP6 DUP3 PUSH2 0xB2D JUMP JUMPDEST DUP7 SSTORE POP PUSH2 0xC0F JUMP JUMPDEST PUSH1 0x1F NOT DUP5 AND PUSH2 0xBBE DUP7 PUSH2 0x9AB JUMP JUMPDEST PUSH0 JUMPDEST DUP3 DUP2 LT ISZERO PUSH2 0xBE5 JUMPI DUP5 DUP10 ADD MLOAD DUP3 SSTORE PUSH1 0x1 DUP3 ADD SWAP2 POP PUSH1 0x20 DUP6 ADD SWAP5 POP PUSH1 0x20 DUP2 ADD SWAP1 POP PUSH2 0xBC0 JUMP JUMPDEST DUP7 DUP4 LT ISZERO PUSH2 0xC02 JUMPI DUP5 DUP10 ADD MLOAD PUSH2 0xBFE PUSH1 0x1F DUP10 AND DUP3 PUSH2 0xB11 JUMP JUMPDEST DUP4 SSTORE POP JUMPDEST PUSH1 0x1 PUSH1 0x2 DUP9 MUL ADD DUP9 SSTORE POP POP POP JUMPDEST POP POP POP POP POP POP JUMP INVALID LOG2 PUSH5 0x6970667358 0x22 SLT KECCAK256 NOT 0xAD SELFDESTRUCT 0xAE 0x5D 0xA7 PUSH27 0x9961632A44B462AC63655A28F04985A805C86193CA22B5DAD46473 PUSH16 0x6C634300081400330000000000000000 "
				},
				"gasEstimates": {
					"creation": {
						"codeDepositCost": "629800",
						"executionCost": "662",
						"totalCost": "630462"
					},
					"external": {
						"create(string)": "infinite",
						"get1(uint256)": "infinite",
						"get2(uint256)": "infinite",
						"list(uint256)": "infinite",
						"modiName1(string,uint256)": "infinite",
						"modiName2(string,uint256)": "infinite",
						"modiStatus1(uint256,bool)": "27061",
						"modiStatus2(uint256)": "31259"
					}
				},
				"methodIdentifiers": {
					"create(string)": "b6a46b3b",
					"get1(uint256)": "9c117f0f",
					"get2(uint256)": "31184dc3",
					"list(uint256)": "80c9419e",
					"modiName1(string,uint256)": "caaa0317",
					"modiName2(string,uint256)": "cd00620d",
					"modiStatus1(uint256,bool)": "4112a18e",
					"modiStatus2(uint256)": "d511b4be"
				}
			},
			"storageLayout": {
				"storage": [
					{
						"astId": 10,
						"contract": "contracts/todoList.sol:Demo",
						"label": "list",
						"offset": 0,
						"slot": "0",
						"type": "t_array(t_struct(Todo)6_storage)dyn_storage"
					}
				],
				"types": {
					"t_array(t_struct(Todo)6_storage)dyn_storage": {
						"base": "t_struct(Todo)6_storage",
						"encoding": "dynamic_array",
						"label": "struct Demo.Todo[]",
						"numberOfBytes": "32"
					},
					"t_bool": {
						"encoding": "inplace",
						"label": "bool",
						"numberOfBytes": "1"
					},
					"t_string_storage": {
						"encoding": "bytes",
						"label": "string",
						"numberOfBytes": "32"
					},
					"t_struct(Todo)6_storage": {
						"encoding": "inplace",
						"label": "struct Demo.Todo",
						"members": [
							{
								"astId": 3,
								"contract": "contracts/todoList.sol:Demo",
								"label": "name",
								"offset": 0,
								"slot": "0",
								"type": "t_string_storage"
							},
							{
								"astId": 5,
								"contract": "contracts/todoList.sol:Demo",
								"label": "isCompleted",
								"offset": 0,
								"slot": "1",
								"type": "t_bool"
							}
						],
						"numberOfBytes": "64"
					}
				}
			},
			"userdoc": {
				"kind": "user",
				"methods": {},
				"version": 1
			}
		}
	}
}