{
	"data": {
		"bytecode": {
			"linkReferences": {},
			"object": "6080604052348015600e575f80fd5b50606a80601a5f395ff3fe6080604052348015600e575f80fd5b50600436106026575f3560e01c80634d41892f14602a575b5f80fd5b60306032565b005b56fea2646970667358221220ea92d06c41fbe46584330da0a2b85ef4938804abff61988cd47d53e14110c6aa64736f6c63430008140033",
			"opcodes": "PUSH1 0x80 PUSH1 0x40 MSTORE CALLVALUE DUP1 ISZERO PUSH1 0xE JUMPI PUSH0 DUP1 REVERT JUMPDEST POP PUSH1 0x6A DUP1 PUSH1 0x1A PUSH0 CODECOPY PUSH0 RETURN INVALID PUSH1 0x80 PUSH1 0x40 MSTORE CALLVALUE DUP1 ISZERO PUSH1 0xE JUMPI PUSH0 DUP1 REVERT JUMPDEST POP PUSH1 0x4 CALLDATASIZE LT PUSH1 0x26 JUMPI PUSH0 CALLDATALOAD PUSH1 0xE0 SHR DUP1 PUSH4 0x4D41892F EQ PUSH1 0x2A JUMPI JUMPDEST PUSH0 DUP1 REVERT JUMPDEST PUSH1 0x30 PUSH1 0x32 JUMP JUMPDEST STOP JUMPDEST JUMP INVALID LOG2 PUSH5 0x6970667358 0x22 SLT KECCAK256 0xEA SWAP3 0xD0 PUSH13 0x41FBE46584330DA0A2B85EF493 DUP9 DIV 0xAB SELFDESTRUCT PUSH2 0x988C 0xD4 PUSH30 0x53E14110C6AA64736F6C6343000814003300000000000000000000000000 "
		},
		"gasEstimates": {
			"creation": {
				"codeDepositCost": "21200",
				"executionCost": "73",
				"totalCost": "21273"
			},
			"external": {
				"area()": "121"
			}
		},
		"methodIdentifiers": {
			"area()": "4d41892f"
		}
	},
	"abi": [
		{
			"inputs": [],
			"name": "area",
			"outputs": [],
			"stateMutability": "nonpayable",
			"type": "function"
		}
	]
}