{
	"data": {
		"bytecode": {
			"linkReferences": {},
			"object": "608060405234801561000f575f80fd5b506102798061001d5f395ff3fe608060405234801561000f575f80fd5b5060043610610033575f3560e01c806223de291461003757806375ab978214610053575b5f80fd5b610051600480360381019061004c9190610179565b61006f565b005b61006d60048036038101906100689190610179565b610079565b005b5050505050505050565b5050505050505050565b5f80fd5b5f80fd5b5f73ffffffffffffffffffffffffffffffffffffffff82169050919050565b5f6100b48261008b565b9050919050565b6100c4816100aa565b81146100ce575f80fd5b50565b5f813590506100df816100bb565b92915050565b5f819050919050565b6100f7816100e5565b8114610101575f80fd5b50565b5f81359050610112816100ee565b92915050565b5f80fd5b5f80fd5b5f80fd5b5f8083601f84011261013957610138610118565b5b8235905067ffffffffffffffff8111156101565761015561011c565b5b60208301915083600182028301111561017257610171610120565b5b9250929050565b5f805f805f805f8060c0898b03121561019557610194610083565b5b5f6101a28b828c016100d1565b98505060206101b38b828c016100d1565b97505060406101c48b828c016100d1565b96505060606101d58b828c01610104565b955050608089013567ffffffffffffffff8111156101f6576101f5610087565b5b6102028b828c01610124565b945094505060a089013567ffffffffffffffff81111561022557610224610087565b5b6102318b828c01610124565b9250925050929598509295989093965056fea264697066735822122071cabc387d67bb80dcf54a41a9363542cee431bd1b2c5aa6f14245f485aacaae64736f6c63430008140033",
			"opcodes": "PUSH1 0x80 PUSH1 0x40 MSTORE CALLVALUE DUP1 ISZERO PUSH2 0xF JUMPI PUSH0 DUP1 REVERT JUMPDEST POP PUSH2 0x279 DUP1 PUSH2 0x1D PUSH0 CODECOPY PUSH0 RETURN INVALID PUSH1 0x80 PUSH1 0x40 MSTORE CALLVALUE DUP1 ISZERO PUSH2 0xF JUMPI PUSH0 DUP1 REVERT JUMPDEST POP PUSH1 0x4 CALLDATASIZE LT PUSH2 0x33 JUMPI PUSH0 CALLDATALOAD PUSH1 0xE0 SHR DUP1 PUSH3 0x23DE29 EQ PUSH2 0x37 JUMPI DUP1 PUSH4 0x75AB9782 EQ PUSH2 0x53 JUMPI JUMPDEST PUSH0 DUP1 REVERT JUMPDEST PUSH2 0x51 PUSH1 0x4 DUP1 CALLDATASIZE SUB DUP2 ADD SWAP1 PUSH2 0x4C SWAP2 SWAP1 PUSH2 0x179 JUMP JUMPDEST PUSH2 0x6F JUMP JUMPDEST STOP JUMPDEST PUSH2 0x6D PUSH1 0x4 DUP1 CALLDATASIZE SUB DUP2 ADD SWAP1 PUSH2 0x68 SWAP2 SWAP1 PUSH2 0x179 JUMP JUMPDEST PUSH2 0x79 JUMP JUMPDEST STOP JUMPDEST POP POP POP POP POP POP POP POP JUMP JUMPDEST POP POP POP POP POP POP POP POP JUMP JUMPDEST PUSH0 DUP1 REVERT JUMPDEST PUSH0 DUP1 REVERT JUMPDEST PUSH0 PUSH20 0xFFFFFFFFFFFFFFFFFFFFFFFFFFFFFFFFFFFFFFFF DUP3 AND SWAP1 POP SWAP2 SWAP1 POP JUMP JUMPDEST PUSH0 PUSH2 0xB4 DUP3 PUSH2 0x8B JUMP JUMPDEST SWAP1 POP SWAP2 SWAP1 POP JUMP JUMPDEST PUSH2 0xC4 DUP2 PUSH2 0xAA JUMP JUMPDEST DUP2 EQ PUSH2 0xCE JUMPI PUSH0 DUP1 REVERT JUMPDEST POP JUMP JUMPDEST PUSH0 DUP2 CALLDATALOAD SWAP1 POP PUSH2 0xDF DUP2 PUSH2 0xBB JUMP JUMPDEST SWAP3 SWAP2 POP POP JUMP JUMPDEST PUSH0 DUP2 SWAP1 POP SWAP2 SWAP1 POP JUMP JUMPDEST PUSH2 0xF7 DUP2 PUSH2 0xE5 JUMP JUMPDEST DUP2 EQ PUSH2 0x101 JUMPI PUSH0 DUP1 REVERT JUMPDEST POP JUMP JUMPDEST PUSH0 DUP2 CALLDATALOAD SWAP1 POP PUSH2 0x112 DUP2 PUSH2 0xEE JUMP JUMPDEST SWAP3 SWAP2 POP POP JUMP JUMPDEST PUSH0 DUP1 REVERT JUMPDEST PUSH0 DUP1 REVERT JUMPDEST PUSH0 DUP1 REVERT JUMPDEST PUSH0 DUP1 DUP4 PUSH1 0x1F DUP5 ADD SLT PUSH2 0x139 JUMPI PUSH2 0x138 PUSH2 0x118 JUMP JUMPDEST JUMPDEST DUP3 CALLDATALOAD SWAP1 POP PUSH8 0xFFFFFFFFFFFFFFFF DUP2 GT ISZERO PUSH2 0x156 JUMPI PUSH2 0x155 PUSH2 0x11C JUMP JUMPDEST JUMPDEST PUSH1 0x20 DUP4 ADD SWAP2 POP DUP4 PUSH1 0x1 DUP3 MUL DUP4 ADD GT ISZERO PUSH2 0x172 JUMPI PUSH2 0x171 PUSH2 0x120 JUMP JUMPDEST JUMPDEST SWAP3 POP SWAP3 SWAP1 POP JUMP JUMPDEST PUSH0 DUP1 PUSH0 DUP1 PUSH0 DUP1 PUSH0 DUP1 PUSH1 0xC0 DUP10 DUP12 SUB SLT ISZERO PUSH2 0x195 JUMPI PUSH2 0x194 PUSH2 0x83 JUMP JUMPDEST JUMPDEST PUSH0 PUSH2 0x1A2 DUP12 DUP3 DUP13 ADD PUSH2 0xD1 JUMP JUMPDEST SWAP9 POP POP PUSH1 0x20 PUSH2 0x1B3 DUP12 DUP3 DUP13 ADD PUSH2 0xD1 JUMP JUMPDEST SWAP8 POP POP PUSH1 0x40 PUSH2 0x1C4 DUP12 DUP3 DUP13 ADD PUSH2 0xD1 JUMP JUMPDEST SWAP7 POP POP PUSH1 0x60 PUSH2 0x1D5 DUP12 DUP3 DUP13 ADD PUSH2 0x104 JUMP JUMPDEST SWAP6 POP POP PUSH1 0x80 DUP10 ADD CALLDATALOAD PUSH8 0xFFFFFFFFFFFFFFFF DUP2 GT ISZERO PUSH2 0x1F6 JUMPI PUSH2 0x1F5 PUSH2 0x87 JUMP JUMPDEST JUMPDEST PUSH2 0x202 DUP12 DUP3 DUP13 ADD PUSH2 0x124 JUMP JUMPDEST SWAP5 POP SWAP5 POP POP PUSH1 0xA0 DUP10 ADD CALLDATALOAD PUSH8 0xFFFFFFFFFFFFFFFF DUP2 GT ISZERO PUSH2 0x225 JUMPI PUSH2 0x224 PUSH2 0x87 JUMP JUMPDEST JUMPDEST PUSH2 0x231 DUP12 DUP3 DUP13 ADD PUSH2 0x124 JUMP JUMPDEST SWAP3 POP SWAP3 POP POP SWAP3 SWAP6 SWAP9 POP SWAP3 SWAP6 SWAP9 SWAP1 SWAP4 SWAP7 POP JUMP INVALID LOG2 PUSH5 0x6970667358 0x22 SLT KECCAK256 PUSH18 0xCABC387D67BB80DCF54A41A9363542CEE431 0xBD SHL 0x2C GAS 0xA6 CALL TIMESTAMP GASLIMIT DELEGATECALL DUP6 0xAA 0xCA 0xAE PUSH5 0x736F6C6343 STOP ADDMOD EQ STOP CALLER "
		},
		"gasEstimates": {
			"creation": {
				"codeDepositCost": "126600",
				"executionCost": "169",
				"totalCost": "126769"
			},
			"external": {
				"tokensReceived(address,address,address,uint256,bytes,bytes)": "infinite",
				"tokensToSend(address,address,address,uint256,bytes,bytes)": "infinite"
			}
		},
		"methodIdentifiers": {
			"tokensReceived(address,address,address,uint256,bytes,bytes)": "0023de29",
			"tokensToSend(address,address,address,uint256,bytes,bytes)": "75ab9782"
		}
	},
	"abi": [
		{
			"inputs": [
				{
					"internalType": "address",
					"name": "operator",
					"type": "address"
				},
				{
					"internalType": "address",
					"name": "from",
					"type": "address"
				},
				{
					"internalType": "address",
					"name": "to",
					"type": "address"
				},
				{
					"internalType": "uint256",
					"name": "amount",
					"type": "uint256"
				},
				{
					"internalType": "bytes",
					"name": "data",
					"type": "bytes"
				},
				{
					"internalType": "bytes",
					"name": "operatorData",
					"type": "bytes"
				}
			],
			"name": "tokensReceived",
			"outputs": [],
			"stateMutability": "nonpayable",
			"type": "function"
		},
		{
			"inputs": [
				{
					"internalType": "address",
					"name": "operator",
					"type": "address"
				},
				{
					"internalType": "address",
					"name": "from",
					"type": "address"
				},
				{
					"internalType": "address",
					"name": "to",
					"type": "address"
				},
				{
					"internalType": "uint256",
					"name": "amount",
					"type": "uint256"
				},
				{
					"internalType": "bytes",
					"name": "userData",
					"type": "bytes"
				},
				{
					"internalType": "bytes",
					"name": "operatorData",
					"type": "bytes"
				}
			],
			"name": "tokensToSend",
			"outputs": [],
			"stateMutability": "nonpayable",
			"type": "function"
		}
	]
}