{
	"contracts/interface.sol": {
		"MyToken": {
			"abi": [
				{
					"inputs": [
						{
							"internalType": "contract IToken",
							"name": "_token",
							"type": "address"
						}
					],
					"stateMutability": "nonpayable",
					"type": "constructor"
				},
				{
					"inputs": [
						{
							"internalType": "address",
							"name": "user",
							"type": "address"
						}
					],
					"name": "sendBonus",
					"outputs": [],
					"stateMutability": "nonpayable",
					"type": "function"
				}
			],
			"devdoc": {
				"kind": "dev",
				"methods": {},
				"version": 1
			},
			"evm": {
				"assembly": "    /* \"contracts/interface.sol\":1356:1676  contract MyToken {... */\n  mstore(0x40, 0xa0)\n    /* \"contracts/interface.sol\":1409:1469  constructor(IToken _token) {... */\n  callvalue\n  dup1\n  iszero\n  tag_1\n  jumpi\n  0x00\n  dup1\n  revert\ntag_1:\n  pop\n  mload(0x40)\n  sub(codesize, bytecodeSize)\n  dup1\n  bytecodeSize\n  dup4\n  codecopy\n  dup2\n  dup2\n  add\n  0x40\n  mstore\n  dup2\n  add\n  swap1\n  tag_2\n  swap2\n  swap1\n  tag_3\n  jump\t// in\ntag_2:\n    /* \"contracts/interface.sol\":1455:1461  _token */\n  dup1\n    /* \"contracts/interface.sol\":1447:1461  token = _token */\n  0xffffffffffffffffffffffffffffffffffffffff\n  and\n  0x80\n  dup2\n  0xffffffffffffffffffffffffffffffffffffffff\n  and\n  dup2\n  mstore\n  pop\n  pop\n    /* \"contracts/interface.sol\":1409:1469  constructor(IToken _token) {... */\n  pop\n    /* \"contracts/interface.sol\":1356:1676  contract MyToken {... */\n  jump(tag_6)\n    /* \"#utility.yul\":88:205   */\ntag_8:\n    /* \"#utility.yul\":197:198   */\n  0x00\n    /* \"#utility.yul\":194:195   */\n  dup1\n    /* \"#utility.yul\":187:199   */\n  revert\n    /* \"#utility.yul\":334:460   */\ntag_10:\n    /* \"#utility.yul\":371:378   */\n  0x00\n    /* \"#utility.yul\":411:453   */\n  0xffffffffffffffffffffffffffffffffffffffff\n    /* \"#utility.yul\":404:409   */\n  dup3\n    /* \"#utility.yul\":400:454   */\n  and\n    /* \"#utility.yul\":389:454   */\n  swap1\n  pop\n    /* \"#utility.yul\":334:460   */\n  swap2\n  swap1\n  pop\n  jump\t// out\n    /* \"#utility.yul\":466:562   */\ntag_11:\n    /* \"#utility.yul\":503:510   */\n  0x00\n    /* \"#utility.yul\":532:556   */\n  tag_21\n    /* \"#utility.yul\":550:555   */\n  dup3\n    /* \"#utility.yul\":532:556   */\n  tag_10\n  jump\t// in\ntag_21:\n    /* \"#utility.yul\":521:556   */\n  swap1\n  pop\n    /* \"#utility.yul\":466:562   */\n  swap2\n  swap1\n  pop\n  jump\t// out\n    /* \"#utility.yul\":568:677   */\ntag_12:\n    /* \"#utility.yul\":618:625   */\n  0x00\n    /* \"#utility.yul\":647:671   */\n  tag_23\n    /* \"#utility.yul\":665:670   */\n  dup3\n    /* \"#utility.yul\":647:671   */\n  tag_11\n  jump\t// in\ntag_23:\n    /* \"#utility.yul\":636:671   */\n  swap1\n  pop\n    /* \"#utility.yul\":568:677   */\n  swap2\n  swap1\n  pop\n  jump\t// out\n    /* \"#utility.yul\":683:831   */\ntag_13:\n    /* \"#utility.yul\":769:806   */\n  tag_25\n    /* \"#utility.yul\":800:805   */\n  dup2\n    /* \"#utility.yul\":769:806   */\n  tag_12\n  jump\t// in\ntag_25:\n    /* \"#utility.yul\":762:767   */\n  dup2\n    /* \"#utility.yul\":759:807   */\n  eq\n    /* \"#utility.yul\":749:825   */\n  tag_26\n  jumpi\n    /* \"#utility.yul\":821:822   */\n  0x00\n    /* \"#utility.yul\":818:819   */\n  dup1\n    /* \"#utility.yul\":811:823   */\n  revert\n    /* \"#utility.yul\":749:825   */\ntag_26:\n    /* \"#utility.yul\":683:831   */\n  pop\n  jump\t// out\n    /* \"#utility.yul\":837:1006   */\ntag_14:\n    /* \"#utility.yul\":907:912   */\n  0x00\n    /* \"#utility.yul\":938:944   */\n  dup2\n    /* \"#utility.yul\":932:945   */\n  mload\n    /* \"#utility.yul\":923:945   */\n  swap1\n  pop\n    /* \"#utility.yul\":954:1000   */\n  tag_28\n    /* \"#utility.yul\":994:999   */\n  dup2\n    /* \"#utility.yul\":954:1000   */\n  tag_13\n  jump\t// in\ntag_28:\n    /* \"#utility.yul\":837:1006   */\n  swap3\n  swap2\n  pop\n  pop\n  jump\t// out\n    /* \"#utility.yul\":1012:1389   */\ntag_3:\n    /* \"#utility.yul\":1095:1101   */\n  0x00\n    /* \"#utility.yul\":1144:1146   */\n  0x20\n    /* \"#utility.yul\":1132:1141   */\n  dup3\n    /* \"#utility.yul\":1123:1130   */\n  dup5\n    /* \"#utility.yul\":1119:1142   */\n  sub\n    /* \"#utility.yul\":1115:1147   */\n  slt\n    /* \"#utility.yul\":1112:1231   */\n  iszero\n  tag_30\n  jumpi\n    /* \"#utility.yul\":1150:1229   */\n  tag_31\n  tag_8\n  jump\t// in\ntag_31:\n    /* \"#utility.yul\":1112:1231   */\ntag_30:\n    /* \"#utility.yul\":1270:1271   */\n  0x00\n    /* \"#utility.yul\":1295:1372   */\n  tag_32\n    /* \"#utility.yul\":1364:1371   */\n  dup5\n    /* \"#utility.yul\":1355:1361   */\n  dup3\n    /* \"#utility.yul\":1344:1353   */\n  dup6\n    /* \"#utility.yul\":1340:1362   */\n  add\n    /* \"#utility.yul\":1295:1372   */\n  tag_14\n  jump\t// in\ntag_32:\n    /* \"#utility.yul\":1285:1372   */\n  swap2\n  pop\n    /* \"#utility.yul\":1241:1382   */\n  pop\n    /* \"#utility.yul\":1012:1389   */\n  swap3\n  swap2\n  pop\n  pop\n  jump\t// out\n    /* \"contracts/interface.sol\":1356:1676  contract MyToken {... */\ntag_6:\n  mload(0x80)\n  codecopy(0x00, dataOffset(sub_0), dataSize(sub_0))\n  0x00\n  assignImmutable(\"0x06a79e67d636d828aa58884bc7fed897698bb40922db4eadf708235cd9c2de2c\")\n  return(0x00, dataSize(sub_0))\nstop\n\nsub_0: assembly {\n        /* \"contracts/interface.sol\":1356:1676  contract MyToken {... */\n      mstore(0x40, 0x80)\n      callvalue\n      dup1\n      iszero\n      tag_1\n      jumpi\n      0x00\n      dup1\n      revert\n    tag_1:\n      pop\n      jumpi(tag_2, lt(calldatasize, 0x04))\n      shr(0xe0, calldataload(0x00))\n      dup1\n      0xb62b9913\n      eq\n      tag_3\n      jumpi\n    tag_2:\n      0x00\n      dup1\n      revert\n        /* \"contracts/interface.sol\":1545:1673  function sendBonus(address user) public {... */\n    tag_3:\n      tag_4\n      0x04\n      dup1\n      calldatasize\n      sub\n      dup2\n      add\n      swap1\n      tag_5\n      swap2\n      swap1\n      tag_6\n      jump\t// in\n    tag_5:\n      tag_7\n      jump\t// in\n    tag_4:\n      stop\n    tag_7:\n        /* \"contracts/interface.sol\":1596:1601  token */\n      immutable(\"0x06a79e67d636d828aa58884bc7fed897698bb40922db4eadf708235cd9c2de2c\")\n        /* \"contracts/interface.sol\":1596:1610  token.transfer */\n      0xffffffffffffffffffffffffffffffffffffffff\n      and\n      0xa9059cbb\n        /* \"contracts/interface.sol\":1611:1615  user */\n      dup3\n        /* \"contracts/interface.sol\":1617:1620  100 */\n      0x64\n        /* \"contracts/interface.sol\":1596:1621  token.transfer(user, 100) */\n      mload(0x40)\n      dup4\n      0xffffffff\n      and\n      0xe0\n      shl\n      dup2\n      mstore\n      0x04\n      add\n      tag_9\n      swap3\n      swap2\n      swap1\n      tag_10\n      jump\t// in\n    tag_9:\n      0x00\n      mload(0x40)\n      dup1\n      dup4\n      sub\n      dup2\n      0x00\n      dup8\n      dup1\n      extcodesize\n      iszero\n      dup1\n      iszero\n      tag_11\n      jumpi\n      0x00\n      dup1\n      revert\n    tag_11:\n      pop\n      gas\n      call\n      iszero\n      dup1\n      iszero\n      tag_13\n      jumpi\n      returndatasize\n      0x00\n      dup1\n      returndatacopy\n      revert(0x00, returndatasize)\n    tag_13:\n      pop\n      pop\n      pop\n      pop\n        /* \"contracts/interface.sol\":1545:1673  function sendBonus(address user) public {... */\n      pop\n      jump\t// out\n        /* \"#utility.yul\":88:205   */\n    tag_15:\n        /* \"#utility.yul\":197:198   */\n      0x00\n        /* \"#utility.yul\":194:195   */\n      dup1\n        /* \"#utility.yul\":187:199   */\n      revert\n        /* \"#utility.yul\":334:460   */\n    tag_17:\n        /* \"#utility.yul\":371:378   */\n      0x00\n        /* \"#utility.yul\":411:453   */\n      0xffffffffffffffffffffffffffffffffffffffff\n        /* \"#utility.yul\":404:409   */\n      dup3\n        /* \"#utility.yul\":400:454   */\n      and\n        /* \"#utility.yul\":389:454   */\n      swap1\n      pop\n        /* \"#utility.yul\":334:460   */\n      swap2\n      swap1\n      pop\n      jump\t// out\n        /* \"#utility.yul\":466:562   */\n    tag_18:\n        /* \"#utility.yul\":503:510   */\n      0x00\n        /* \"#utility.yul\":532:556   */\n      tag_33\n        /* \"#utility.yul\":550:555   */\n      dup3\n        /* \"#utility.yul\":532:556   */\n      tag_17\n      jump\t// in\n    tag_33:\n        /* \"#utility.yul\":521:556   */\n      swap1\n      pop\n        /* \"#utility.yul\":466:562   */\n      swap2\n      swap1\n      pop\n      jump\t// out\n        /* \"#utility.yul\":568:690   */\n    tag_19:\n        /* \"#utility.yul\":641:665   */\n      tag_35\n        /* \"#utility.yul\":659:664   */\n      dup2\n        /* \"#utility.yul\":641:665   */\n      tag_18\n      jump\t// in\n    tag_35:\n        /* \"#utility.yul\":634:639   */\n      dup2\n        /* \"#utility.yul\":631:666   */\n      eq\n        /* \"#utility.yul\":621:684   */\n      tag_36\n      jumpi\n        /* \"#utility.yul\":680:681   */\n      0x00\n        /* \"#utility.yul\":677:678   */\n      dup1\n        /* \"#utility.yul\":670:682   */\n      revert\n        /* \"#utility.yul\":621:684   */\n    tag_36:\n        /* \"#utility.yul\":568:690   */\n      pop\n      jump\t// out\n        /* \"#utility.yul\":696:835   */\n    tag_20:\n        /* \"#utility.yul\":742:747   */\n      0x00\n        /* \"#utility.yul\":780:786   */\n      dup2\n        /* \"#utility.yul\":767:787   */\n      calldataload\n        /* \"#utility.yul\":758:787   */\n      swap1\n      pop\n        /* \"#utility.yul\":796:829   */\n      tag_38\n        /* \"#utility.yul\":823:828   */\n      dup2\n        /* \"#utility.yul\":796:829   */\n      tag_19\n      jump\t// in\n    tag_38:\n        /* \"#utility.yul\":696:835   */\n      swap3\n      swap2\n      pop\n      pop\n      jump\t// out\n        /* \"#utility.yul\":841:1170   */\n    tag_6:\n        /* \"#utility.yul\":900:906   */\n      0x00\n        /* \"#utility.yul\":949:951   */\n      0x20\n        /* \"#utility.yul\":937:946   */\n      dup3\n        /* \"#utility.yul\":928:935   */\n      dup5\n        /* \"#utility.yul\":924:947   */\n      sub\n        /* \"#utility.yul\":920:952   */\n      slt\n        /* \"#utility.yul\":917:1036   */\n      iszero\n      tag_40\n      jumpi\n        /* \"#utility.yul\":955:1034   */\n      tag_41\n      tag_15\n      jump\t// in\n    tag_41:\n        /* \"#utility.yul\":917:1036   */\n    tag_40:\n        /* \"#utility.yul\":1075:1076   */\n      0x00\n        /* \"#utility.yul\":1100:1153   */\n      tag_42\n        /* \"#utility.yul\":1145:1152   */\n      dup5\n        /* \"#utility.yul\":1136:1142   */\n      dup3\n        /* \"#utility.yul\":1125:1134   */\n      dup6\n        /* \"#utility.yul\":1121:1143   */\n      add\n        /* \"#utility.yul\":1100:1153   */\n      tag_20\n      jump\t// in\n    tag_42:\n        /* \"#utility.yul\":1090:1153   */\n      swap2\n      pop\n        /* \"#utility.yul\":1046:1163   */\n      pop\n        /* \"#utility.yul\":841:1170   */\n      swap3\n      swap2\n      pop\n      pop\n      jump\t// out\n        /* \"#utility.yul\":1176:1294   */\n    tag_21:\n        /* \"#utility.yul\":1263:1287   */\n      tag_44\n        /* \"#utility.yul\":1281:1286   */\n      dup2\n        /* \"#utility.yul\":1263:1287   */\n      tag_18\n      jump\t// in\n    tag_44:\n        /* \"#utility.yul\":1258:1261   */\n      dup3\n        /* \"#utility.yul\":1251:1288   */\n      mstore\n        /* \"#utility.yul\":1176:1294   */\n      pop\n      pop\n      jump\t// out\n        /* \"#utility.yul\":1300:1387   */\n    tag_22:\n        /* \"#utility.yul\":1347:1354   */\n      0x00\n        /* \"#utility.yul\":1376:1381   */\n      dup2\n        /* \"#utility.yul\":1365:1381   */\n      swap1\n      pop\n        /* \"#utility.yul\":1300:1387   */\n      swap2\n      swap1\n      pop\n      jump\t// out\n        /* \"#utility.yul\":1393:1470   */\n    tag_23:\n        /* \"#utility.yul\":1430:1437   */\n      0x00\n        /* \"#utility.yul\":1459:1464   */\n      dup2\n        /* \"#utility.yul\":1448:1464   */\n      swap1\n      pop\n        /* \"#utility.yul\":1393:1470   */\n      swap2\n      swap1\n      pop\n      jump\t// out\n        /* \"#utility.yul\":1476:1536   */\n    tag_24:\n        /* \"#utility.yul\":1504:1507   */\n      0x00\n        /* \"#utility.yul\":1525:1530   */\n      dup2\n        /* \"#utility.yul\":1518:1530   */\n      swap1\n      pop\n        /* \"#utility.yul\":1476:1536   */\n      swap2\n      swap1\n      pop\n      jump\t// out\n        /* \"#utility.yul\":1542:1704   */\n    tag_25:\n        /* \"#utility.yul\":1602:1611   */\n      0x00\n        /* \"#utility.yul\":1635:1698   */\n      tag_49\n        /* \"#utility.yul\":1653:1697   */\n      tag_50\n        /* \"#utility.yul\":1662:1696   */\n      tag_51\n        /* \"#utility.yul\":1690:1695   */\n      dup5\n        /* \"#utility.yul\":1662:1696   */\n      tag_22\n      jump\t// in\n    tag_51:\n        /* \"#utility.yul\":1653:1697   */\n      tag_24\n      jump\t// in\n    tag_50:\n        /* \"#utility.yul\":1635:1698   */\n      tag_23\n      jump\t// in\n    tag_49:\n        /* \"#utility.yul\":1622:1698   */\n      swap1\n      pop\n        /* \"#utility.yul\":1542:1704   */\n      swap2\n      swap1\n      pop\n      jump\t// out\n        /* \"#utility.yul\":1710:1861   */\n    tag_26:\n        /* \"#utility.yul\":1807:1854   */\n      tag_53\n        /* \"#utility.yul\":1848:1853   */\n      dup2\n        /* \"#utility.yul\":1807:1854   */\n      tag_25\n      jump\t// in\n    tag_53:\n        /* \"#utility.yul\":1802:1805   */\n      dup3\n        /* \"#utility.yul\":1795:1855   */\n      mstore\n        /* \"#utility.yul\":1710:1861   */\n      pop\n      pop\n      jump\t// out\n        /* \"#utility.yul\":1867:2219   */\n    tag_10:\n        /* \"#utility.yul\":1998:2002   */\n      0x00\n        /* \"#utility.yul\":2036:2038   */\n      0x40\n        /* \"#utility.yul\":2025:2034   */\n      dup3\n        /* \"#utility.yul\":2021:2039   */\n      add\n        /* \"#utility.yul\":2013:2039   */\n      swap1\n      pop\n        /* \"#utility.yul\":2049:2120   */\n      tag_55\n        /* \"#utility.yul\":2117:2118   */\n      0x00\n        /* \"#utility.yul\":2106:2115   */\n      dup4\n        /* \"#utility.yul\":2102:2119   */\n      add\n        /* \"#utility.yul\":2093:2099   */\n      dup6\n        /* \"#utility.yul\":2049:2120   */\n      tag_21\n      jump\t// in\n    tag_55:\n        /* \"#utility.yul\":2130:2212   */\n      tag_56\n        /* \"#utility.yul\":2208:2210   */\n      0x20\n        /* \"#utility.yul\":2197:2206   */\n      dup4\n        /* \"#utility.yul\":2193:2211   */\n      add\n        /* \"#utility.yul\":2184:2190   */\n      dup5\n        /* \"#utility.yul\":2130:2212   */\n      tag_26\n      jump\t// in\n    tag_56:\n        /* \"#utility.yul\":1867:2219   */\n      swap4\n      swap3\n      pop\n      pop\n      pop\n      jump\t// out\n\n    auxdata: 0xa26469706673582212204d2d9b1837d628ce54314e59d476e6634ac3746e3cc461765435ac00692228e664736f6c63430008140033\n}\n",
				"bytecode": {
					"linkReferences": {},
					"object": "60a060405234801561000f575f80fd5b50604051610331380380610331833981810160405281019061003191906100da565b8073ffffffffffffffffffffffffffffffffffffffff1660808173ffffffffffffffffffffffffffffffffffffffff168152505050610105565b5f80fd5b5f73ffffffffffffffffffffffffffffffffffffffff82169050919050565b5f6100988261006f565b9050919050565b5f6100a98261008e565b9050919050565b6100b98161009f565b81146100c3575f80fd5b50565b5f815190506100d4816100b0565b92915050565b5f602082840312156100ef576100ee61006b565b5b5f6100fc848285016100c6565b91505092915050565b60805161021561011c5f395f604b01526102155ff3fe608060405234801561000f575f80fd5b5060043610610029575f3560e01c8063b62b99131461002d575b5f80fd5b61004760048036038101906100429190610133565b610049565b005b7f000000000000000000000000000000000000000000000000000000000000000073ffffffffffffffffffffffffffffffffffffffff1663a9059cbb8260646040518363ffffffff1660e01b81526004016100a59291906101b8565b5f604051808303815f87803b1580156100bc575f80fd5b505af11580156100ce573d5f803e3d5ffd5b5050505050565b5f80fd5b5f73ffffffffffffffffffffffffffffffffffffffff82169050919050565b5f610102826100d9565b9050919050565b610112816100f8565b811461011c575f80fd5b50565b5f8135905061012d81610109565b92915050565b5f60208284031215610148576101476100d5565b5b5f6101558482850161011f565b91505092915050565b610167816100f8565b82525050565b5f819050919050565b5f819050919050565b5f819050919050565b5f6101a261019d6101988461016d565b61017f565b610176565b9050919050565b6101b281610188565b82525050565b5f6040820190506101cb5f83018561015e565b6101d860208301846101a9565b939250505056fea26469706673582212204d2d9b1837d628ce54314e59d476e6634ac3746e3cc461765435ac00692228e664736f6c63430008140033",
					"opcodes": "PUSH1 0xA0 PUSH1 0x40 MSTORE CALLVALUE DUP1 ISZERO PUSH2 0xF JUMPI PUSH0 DUP1 REVERT JUMPDEST POP PUSH1 0x40 MLOAD PUSH2 0x331 CODESIZE SUB DUP1 PUSH2 0x331 DUP4 CODECOPY DUP2 DUP2 ADD PUSH1 0x40 MSTORE DUP2 ADD SWAP1 PUSH2 0x31 SWAP2 SWAP1 PUSH2 0xDA JUMP JUMPDEST DUP1 PUSH20 0xFFFFFFFFFFFFFFFFFFFFFFFFFFFFFFFFFFFFFFFF AND PUSH1 0x80 DUP2 PUSH20 0xFFFFFFFFFFFFFFFFFFFFFFFFFFFFFFFFFFFFFFFF AND DUP2 MSTORE POP POP POP PUSH2 0x105 JUMP JUMPDEST PUSH0 DUP1 REVERT JUMPDEST PUSH0 PUSH20 0xFFFFFFFFFFFFFFFFFFFFFFFFFFFFFFFFFFFFFFFF DUP3 AND SWAP1 POP SWAP2 SWAP1 POP JUMP JUMPDEST PUSH0 PUSH2 0x98 DUP3 PUSH2 0x6F JUMP JUMPDEST SWAP1 POP SWAP2 SWAP1 POP JUMP JUMPDEST PUSH0 PUSH2 0xA9 DUP3 PUSH2 0x8E JUMP JUMPDEST SWAP1 POP SWAP2 SWAP1 POP JUMP JUMPDEST PUSH2 0xB9 DUP2 PUSH2 0x9F JUMP JUMPDEST DUP2 EQ PUSH2 0xC3 JUMPI PUSH0 DUP1 REVERT JUMPDEST POP JUMP JUMPDEST PUSH0 DUP2 MLOAD SWAP1 POP PUSH2 0xD4 DUP2 PUSH2 0xB0 JUMP JUMPDEST SWAP3 SWAP2 POP POP JUMP JUMPDEST PUSH0 PUSH1 0x20 DUP3 DUP5 SUB SLT ISZERO PUSH2 0xEF JUMPI PUSH2 0xEE PUSH2 0x6B JUMP JUMPDEST JUMPDEST PUSH0 PUSH2 0xFC DUP5 DUP3 DUP6 ADD PUSH2 0xC6 JUMP JUMPDEST SWAP2 POP POP SWAP3 SWAP2 POP POP JUMP JUMPDEST PUSH1 0x80 MLOAD PUSH2 0x215 PUSH2 0x11C PUSH0 CODECOPY PUSH0 PUSH1 0x4B ADD MSTORE PUSH2 0x215 PUSH0 RETURN INVALID PUSH1 0x80 PUSH1 0x40 MSTORE CALLVALUE DUP1 ISZERO PUSH2 0xF JUMPI PUSH0 DUP1 REVERT JUMPDEST POP PUSH1 0x4 CALLDATASIZE LT PUSH2 0x29 JUMPI PUSH0 CALLDATALOAD PUSH1 0xE0 SHR DUP1 PUSH4 0xB62B9913 EQ PUSH2 0x2D JUMPI JUMPDEST PUSH0 DUP1 REVERT JUMPDEST PUSH2 0x47 PUSH1 0x4 DUP1 CALLDATASIZE SUB DUP2 ADD SWAP1 PUSH2 0x42 SWAP2 SWAP1 PUSH2 0x133 JUMP JUMPDEST PUSH2 0x49 JUMP JUMPDEST STOP JUMPDEST PUSH32 0x0 PUSH20 0xFFFFFFFFFFFFFFFFFFFFFFFFFFFFFFFFFFFFFFFF AND PUSH4 0xA9059CBB DUP3 PUSH1 0x64 PUSH1 0x40 MLOAD DUP4 PUSH4 0xFFFFFFFF AND PUSH1 0xE0 SHL DUP2 MSTORE PUSH1 0x4 ADD PUSH2 0xA5 SWAP3 SWAP2 SWAP1 PUSH2 0x1B8 JUMP JUMPDEST PUSH0 PUSH1 0x40 MLOAD DUP1 DUP4 SUB DUP2 PUSH0 DUP8 DUP1 EXTCODESIZE ISZERO DUP1 ISZERO PUSH2 0xBC JUMPI PUSH0 DUP1 REVERT JUMPDEST POP GAS CALL ISZERO DUP1 ISZERO PUSH2 0xCE JUMPI RETURNDATASIZE PUSH0 DUP1 RETURNDATACOPY RETURNDATASIZE PUSH0 REVERT JUMPDEST POP POP POP POP POP JUMP JUMPDEST PUSH0 DUP1 REVERT JUMPDEST PUSH0 PUSH20 0xFFFFFFFFFFFFFFFFFFFFFFFFFFFFFFFFFFFFFFFF DUP3 AND SWAP1 POP SWAP2 SWAP1 POP JUMP JUMPDEST PUSH0 PUSH2 0x102 DUP3 PUSH2 0xD9 JUMP JUMPDEST SWAP1 POP SWAP2 SWAP1 POP JUMP JUMPDEST PUSH2 0x112 DUP2 PUSH2 0xF8 JUMP JUMPDEST DUP2 EQ PUSH2 0x11C JUMPI PUSH0 DUP1 REVERT JUMPDEST POP JUMP JUMPDEST PUSH0 DUP2 CALLDATALOAD SWAP1 POP PUSH2 0x12D DUP2 PUSH2 0x109 JUMP JUMPDEST SWAP3 SWAP2 POP POP JUMP JUMPDEST PUSH0 PUSH1 0x20 DUP3 DUP5 SUB SLT ISZERO PUSH2 0x148 JUMPI PUSH2 0x147 PUSH2 0xD5 JUMP JUMPDEST JUMPDEST PUSH0 PUSH2 0x155 DUP5 DUP3 DUP6 ADD PUSH2 0x11F JUMP JUMPDEST SWAP2 POP POP SWAP3 SWAP2 POP POP JUMP JUMPDEST PUSH2 0x167 DUP2 PUSH2 0xF8 JUMP JUMPDEST DUP3 MSTORE POP POP JUMP JUMPDEST PUSH0 DUP2 SWAP1 POP SWAP2 SWAP1 POP JUMP JUMPDEST PUSH0 DUP2 SWAP1 POP SWAP2 SWAP1 POP JUMP JUMPDEST PUSH0 DUP2 SWAP1 POP SWAP2 SWAP1 POP JUMP JUMPDEST PUSH0 PUSH2 0x1A2 PUSH2 0x19D PUSH2 0x198 DUP5 PUSH2 0x16D JUMP JUMPDEST PUSH2 0x17F JUMP JUMPDEST PUSH2 0x176 JUMP JUMPDEST SWAP1 POP SWAP2 SWAP1 POP JUMP JUMPDEST PUSH2 0x1B2 DUP2 PUSH2 0x188 JUMP JUMPDEST DUP3 MSTORE POP POP JUMP JUMPDEST PUSH0 PUSH1 0x40 DUP3 ADD SWAP1 POP PUSH2 0x1CB PUSH0 DUP4 ADD DUP6 PUSH2 0x15E JUMP JUMPDEST PUSH2 0x1D8 PUSH1 0x20 DUP4 ADD DUP5 PUSH2 0x1A9 JUMP JUMPDEST SWAP4 SWAP3 POP POP POP JUMP INVALID LOG2 PUSH5 0x6970667358 0x22 SLT KECCAK256 0x4D 0x2D SWAP12 XOR CALLDATACOPY 0xD6 0x28 0xCE SLOAD BALANCE 0x4E MSIZE 0xD4 PUSH23 0xE6634AC3746E3CC461765435AC00692228E664736F6C63 NUMBER STOP ADDMOD EQ STOP CALLER "
				},
				"gasEstimates": {
					"creation": {
						"codeDepositCost": "106600",
						"executionCost": "infinite",
						"totalCost": "infinite"
					},
					"external": {
						"sendBonus(address)": "infinite"
					}
				},
				"methodIdentifiers": {
					"sendBonus(address)": "b62b9913"
				}
			},
			"storageLayout": {
				"storage": [],
				"types": null
			},
			"userdoc": {
				"kind": "user",
				"methods": {},
				"version": 1
			}
		}
	}
}