{
	"data": {
		"bytecode": {
			"linkReferences": {},
			"object": "608060405234801562000010575f80fd5b5060405162001115380380620011158339818101604052810190620000369190620002bf565b335f80015f6101000a81548173ffffffffffffffffffffffffffffffffffffffff021916908373ffffffffffffffffffffffffffffffffffffffff160217905550805f60010190816200008a919062000545565b505f60025f6101000a81548160ff02191690836001811115620000b257620000b162000629565b5b02179055505f80015f9054906101000a900473ffffffffffffffffffffffffffffffffffffffff1673ffffffffffffffffffffffffffffffffffffffff165f73ffffffffffffffffffffffffffffffffffffffff167fd101ab92b13bba49bc5295c481531ccbfefeca14dad346f19be0263a83cc348260405160405180910390a35062000656565b5f604051905090565b5f80fd5b5f80fd5b5f80fd5b5f80fd5b5f601f19601f8301169050919050565b7f4e487b71000000000000000000000000000000000000000000000000000000005f52604160045260245ffd5b6200019b8262000153565b810181811067ffffffffffffffff82111715620001bd57620001bc62000163565b5b80604052505050565b5f620001d16200013a565b9050620001df828262000190565b919050565b5f67ffffffffffffffff82111562000201576200020062000163565b5b6200020c8262000153565b9050602081019050919050565b5f5b83811015620002385780820151818401526020810190506200021b565b5f8484015250505050565b5f620002596200025384620001e4565b620001c6565b9050828152602081018484840111156200027857620002776200014f565b5b6200028584828562000219565b509392505050565b5f82601f830112620002a457620002a36200014b565b5b8151620002b684826020860162000243565b91505092915050565b5f60208284031215620002d757620002d662000143565b5b5f82015167ffffffffffffffff811115620002f757620002f662000147565b5b62000305848285016200028d565b91505092915050565b5f81519050919050565b7f4e487b71000000000000000000000000000000000000000000000000000000005f52602260045260245ffd5b5f60028204905060018216806200035d57607f821691505b60208210810362000373576200037262000318565b5b50919050565b5f819050815f5260205f209050919050565b5f6020601f8301049050919050565b5f82821b905092915050565b5f60088302620003d77fffffffffffffffffffffffffffffffffffffffffffffffffffffffffffffffff826200039a565b620003e386836200039a565b95508019841693508086168417925050509392505050565b5f819050919050565b5f819050919050565b5f6200042d620004276200042184620003fb565b62000404565b620003fb565b9050919050565b5f819050919050565b62000448836200040d565b62000460620004578262000434565b848454620003a6565b825550505050565b5f90565b6200047662000468565b620004838184846200043d565b505050565b5b81811015620004aa576200049e5f826200046c565b60018101905062000489565b5050565b601f821115620004f957620004c38162000379565b620004ce846200038b565b81016020851015620004de578190505b620004f6620004ed856200038b565b83018262000488565b50505b505050565b5f82821c905092915050565b5f6200051b5f1984600802620004fe565b1980831691505092915050565b5f6200053583836200050a565b9150826002028217905092915050565b62000550826200030e565b67ffffffffffffffff8111156200056c576200056b62000163565b5b62000578825462000345565b62000585828285620004ae565b5f60209050601f831160018114620005bb575f8415620005a6578287015190505b620005b2858262000528565b86555062000621565b601f198416620005cb8662000379565b5f5b82811015620005f457848901518255600182019150602085019450602081019050620005cd565b8683101562000614578489015162000610601f8916826200050a565b8355505b6001600288020188555050505b505050505050565b7f4e487b71000000000000000000000000000000000000000000000000000000005f52602160045260245ffd5b610ab180620006645f395ff3fe608060405234801561000f575f80fd5b506004361061004a575f3560e01c80631865c57d1461004e578063246f8b961461006c5780633b710f8c14610076578063893d20e814610092575b5f80fd5b6100566100b1565b604051610063919061050c565b60405180910390f35b6100746100c6565b005b610090600480360381019061008b91906105e8565b61021f565b005b61009a610385565b6040516100a89291906106de565b60405180910390f35b5f60025f9054906101000a900460ff16905090565b5f80015f9054906101000a900473ffffffffffffffffffffffffffffffffffffffff1673ffffffffffffffffffffffffffffffffffffffff163373ffffffffffffffffffffffffffffffffffffffff1614610156576040517f08c379a000000000000000000000000000000000000000000000000000000000815260040161014d90610756565b60405180910390fd5b5f80015f9054906101000a900473ffffffffffffffffffffffffffffffffffffffff1673ffffffffffffffffffffffffffffffffffffffff167f839c3949c3979499299683cc9d04485ea754bc389b14e057e2af661178985b0260405160405180910390a25f805f82015f6101000a81549073ffffffffffffffffffffffffffffffffffffffff0219169055600182015f6101f19190610441565b5050600160025f6101000a81548160ff0219169083600181111561021857610217610499565b5b0217905550565b5f80015f9054906101000a900473ffffffffffffffffffffffffffffffffffffffff1673ffffffffffffffffffffffffffffffffffffffff163373ffffffffffffffffffffffffffffffffffffffff16146102af576040517f08c379a00000000000000000000000000000000000000000000000000000000081526004016102a690610756565b60405180910390fd5b825f80015f6101000a81548173ffffffffffffffffffffffffffffffffffffffff021916908373ffffffffffffffffffffffffffffffffffffffff16021790555081815f60010191826103039291906109ae565b508273ffffffffffffffffffffffffffffffffffffffff165f80015f9054906101000a900473ffffffffffffffffffffffffffffffffffffffff1673ffffffffffffffffffffffffffffffffffffffff167fd101ab92b13bba49bc5295c481531ccbfefeca14dad346f19be0263a83cc348260405160405180910390a3505050565b5f60605f80015f9054906101000a900473ffffffffffffffffffffffffffffffffffffffff165f6001018080546103bb906107d8565b80601f01602080910402602001604051908101604052809291908181526020018280546103e7906107d8565b80156104325780601f1061040957610100808354040283529160200191610432565b820191905f5260205f20905b81548152906001019060200180831161041557829003601f168201915b50505050509050915091509091565b50805461044d906107d8565b5f825580601f1061045e575061047b565b601f0160209004905f5260205f209081019061047a919061047e565b5b50565b5b80821115610495575f815f90555060010161047f565b5090565b7f4e487b71000000000000000000000000000000000000000000000000000000005f52602160045260245ffd5b600281106104d7576104d6610499565b5b50565b5f8190506104e7826104c6565b919050565b5f6104f6826104da565b9050919050565b610506816104ec565b82525050565b5f60208201905061051f5f8301846104fd565b92915050565b5f80fd5b5f80fd5b5f73ffffffffffffffffffffffffffffffffffffffff82169050919050565b5f6105568261052d565b9050919050565b6105668161054c565b8114610570575f80fd5b50565b5f813590506105818161055d565b92915050565b5f80fd5b5f80fd5b5f80fd5b5f8083601f8401126105a8576105a7610587565b5b8235905067ffffffffffffffff8111156105c5576105c461058b565b5b6020830191508360018202830111156105e1576105e061058f565b5b9250929050565b5f805f604084860312156105ff576105fe610525565b5b5f61060c86828701610573565b935050602084013567ffffffffffffffff81111561062d5761062c610529565b5b61063986828701610593565b92509250509250925092565b61064e8161054c565b82525050565b5f81519050919050565b5f82825260208201905092915050565b5f5b8381101561068b578082015181840152602081019050610670565b5f8484015250505050565b5f601f19601f8301169050919050565b5f6106b082610654565b6106ba818561065e565b93506106ca81856020860161066e565b6106d381610696565b840191505092915050565b5f6040820190506106f15f830185610645565b818103602083015261070381846106a6565b90509392505050565b7f43616c6c6572206973206e6f74206f776e6572000000000000000000000000005f82015250565b5f61074060138361065e565b915061074b8261070c565b602082019050919050565b5f6020820190508181035f83015261076d81610734565b9050919050565b5f82905092915050565b7f4e487b71000000000000000000000000000000000000000000000000000000005f52604160045260245ffd5b7f4e487b71000000000000000000000000000000000000000000000000000000005f52602260045260245ffd5b5f60028204905060018216806107ef57607f821691505b602082108103610802576108016107ab565b5b50919050565b5f819050815f5260205f209050919050565b5f6020601f8301049050919050565b5f82821b905092915050565b5f600883026108647fffffffffffffffffffffffffffffffffffffffffffffffffffffffffffffffff82610829565b61086e8683610829565b95508019841693508086168417925050509392505050565b5f819050919050565b5f819050919050565b5f6108b26108ad6108a884610886565b61088f565b610886565b9050919050565b5f819050919050565b6108cb83610898565b6108df6108d7826108b9565b848454610835565b825550505050565b5f90565b6108f36108e7565b6108fe8184846108c2565b505050565b5b81811015610921576109165f826108eb565b600181019050610904565b5050565b601f8211156109665761093781610808565b6109408461081a565b8101602085101561094f578190505b61096361095b8561081a565b830182610903565b50505b505050565b5f82821c905092915050565b5f6109865f198460080261096b565b1980831691505092915050565b5f61099e8383610977565b9150826002028217905092915050565b6109b88383610774565b67ffffffffffffffff8111156109d1576109d061077e565b5b6109db82546107d8565b6109e6828285610925565b5f601f831160018114610a13575f8415610a01578287013590505b610a0b8582610993565b865550610a72565b601f198416610a2186610808565b5f5b82811015610a4857848901358255600182019150602085019450602081019050610a23565b86831015610a655784890135610a61601f891682610977565b8355505b6001600288020188555050505b5050505050505056fea2646970667358221220dde898f920ed4a194212b8064a03c76ae4a452b370478b8fef22277942a82f3164736f6c63430008140033",
			"opcodes": "PUSH1 0x80 PUSH1 0x40 MSTORE CALLVALUE DUP1 ISZERO PUSH3 0x10 JUMPI PUSH0 DUP1 REVERT JUMPDEST POP PUSH1 0x40 MLOAD PUSH3 0x1115 CODESIZE SUB DUP1 PUSH3 0x1115 DUP4 CODECOPY DUP2 DUP2 ADD PUSH1 0x40 MSTORE DUP2 ADD SWAP1 PUSH3 0x36 SWAP2 SWAP1 PUSH3 0x2BF JUMP JUMPDEST CALLER PUSH0 DUP1 ADD PUSH0 PUSH2 0x100 EXP DUP2 SLOAD DUP2 PUSH20 0xFFFFFFFFFFFFFFFFFFFFFFFFFFFFFFFFFFFFFFFF MUL NOT AND SWAP1 DUP4 PUSH20 0xFFFFFFFFFFFFFFFFFFFFFFFFFFFFFFFFFFFFFFFF AND MUL OR SWAP1 SSTORE POP DUP1 PUSH0 PUSH1 0x1 ADD SWAP1 DUP2 PUSH3 0x8A SWAP2 SWAP1 PUSH3 0x545 JUMP JUMPDEST POP PUSH0 PUSH1 0x2 PUSH0 PUSH2 0x100 EXP DUP2 SLOAD DUP2 PUSH1 0xFF MUL NOT AND SWAP1 DUP4 PUSH1 0x1 DUP2 GT ISZERO PUSH3 0xB2 JUMPI PUSH3 0xB1 PUSH3 0x629 JUMP JUMPDEST JUMPDEST MUL OR SWAP1 SSTORE POP PUSH0 DUP1 ADD PUSH0 SWAP1 SLOAD SWAP1 PUSH2 0x100 EXP SWAP1 DIV PUSH20 0xFFFFFFFFFFFFFFFFFFFFFFFFFFFFFFFFFFFFFFFF AND PUSH20 0xFFFFFFFFFFFFFFFFFFFFFFFFFFFFFFFFFFFFFFFF AND PUSH0 PUSH20 0xFFFFFFFFFFFFFFFFFFFFFFFFFFFFFFFFFFFFFFFF AND PUSH32 0xD101AB92B13BBA49BC5295C481531CCBFEFECA14DAD346F19BE0263A83CC3482 PUSH1 0x40 MLOAD PUSH1 0x40 MLOAD DUP1 SWAP2 SUB SWAP1 LOG3 POP PUSH3 0x656 JUMP JUMPDEST PUSH0 PUSH1 0x40 MLOAD SWAP1 POP SWAP1 JUMP JUMPDEST PUSH0 DUP1 REVERT JUMPDEST PUSH0 DUP1 REVERT JUMPDEST PUSH0 DUP1 REVERT JUMPDEST PUSH0 DUP1 REVERT JUMPDEST PUSH0 PUSH1 0x1F NOT PUSH1 0x1F DUP4 ADD AND SWAP1 POP SWAP2 SWAP1 POP JUMP JUMPDEST PUSH32 0x4E487B7100000000000000000000000000000000000000000000000000000000 PUSH0 MSTORE PUSH1 0x41 PUSH1 0x4 MSTORE PUSH1 0x24 PUSH0 REVERT JUMPDEST PUSH3 0x19B DUP3 PUSH3 0x153 JUMP JUMPDEST DUP2 ADD DUP2 DUP2 LT PUSH8 0xFFFFFFFFFFFFFFFF DUP3 GT OR ISZERO PUSH3 0x1BD JUMPI PUSH3 0x1BC PUSH3 0x163 JUMP JUMPDEST JUMPDEST DUP1 PUSH1 0x40 MSTORE POP POP POP JUMP JUMPDEST PUSH0 PUSH3 0x1D1 PUSH3 0x13A JUMP JUMPDEST SWAP1 POP PUSH3 0x1DF DUP3 DUP3 PUSH3 0x190 JUMP JUMPDEST SWAP2 SWAP1 POP JUMP JUMPDEST PUSH0 PUSH8 0xFFFFFFFFFFFFFFFF DUP3 GT ISZERO PUSH3 0x201 JUMPI PUSH3 0x200 PUSH3 0x163 JUMP JUMPDEST JUMPDEST PUSH3 0x20C DUP3 PUSH3 0x153 JUMP JUMPDEST SWAP1 POP PUSH1 0x20 DUP2 ADD SWAP1 POP SWAP2 SWAP1 POP JUMP JUMPDEST PUSH0 JUMPDEST DUP4 DUP2 LT ISZERO PUSH3 0x238 JUMPI DUP1 DUP3 ADD MLOAD DUP2 DUP5 ADD MSTORE PUSH1 0x20 DUP2 ADD SWAP1 POP PUSH3 0x21B JUMP JUMPDEST PUSH0 DUP5 DUP5 ADD MSTORE POP POP POP POP JUMP JUMPDEST PUSH0 PUSH3 0x259 PUSH3 0x253 DUP5 PUSH3 0x1E4 JUMP JUMPDEST PUSH3 0x1C6 JUMP JUMPDEST SWAP1 POP DUP3 DUP2 MSTORE PUSH1 0x20 DUP2 ADD DUP5 DUP5 DUP5 ADD GT ISZERO PUSH3 0x278 JUMPI PUSH3 0x277 PUSH3 0x14F JUMP JUMPDEST JUMPDEST PUSH3 0x285 DUP5 DUP3 DUP6 PUSH3 0x219 JUMP JUMPDEST POP SWAP4 SWAP3 POP POP POP JUMP JUMPDEST PUSH0 DUP3 PUSH1 0x1F DUP4 ADD SLT PUSH3 0x2A4 JUMPI PUSH3 0x2A3 PUSH3 0x14B JUMP JUMPDEST JUMPDEST DUP2 MLOAD PUSH3 0x2B6 DUP5 DUP3 PUSH1 0x20 DUP7 ADD PUSH3 0x243 JUMP JUMPDEST SWAP2 POP POP SWAP3 SWAP2 POP POP JUMP JUMPDEST PUSH0 PUSH1 0x20 DUP3 DUP5 SUB SLT ISZERO PUSH3 0x2D7 JUMPI PUSH3 0x2D6 PUSH3 0x143 JUMP JUMPDEST JUMPDEST PUSH0 DUP3 ADD MLOAD PUSH8 0xFFFFFFFFFFFFFFFF DUP2 GT ISZERO PUSH3 0x2F7 JUMPI PUSH3 0x2F6 PUSH3 0x147 JUMP JUMPDEST JUMPDEST PUSH3 0x305 DUP5 DUP3 DUP6 ADD PUSH3 0x28D JUMP JUMPDEST SWAP2 POP POP SWAP3 SWAP2 POP POP JUMP JUMPDEST PUSH0 DUP2 MLOAD SWAP1 POP SWAP2 SWAP1 POP JUMP JUMPDEST PUSH32 0x4E487B7100000000000000000000000000000000000000000000000000000000 PUSH0 MSTORE PUSH1 0x22 PUSH1 0x4 MSTORE PUSH1 0x24 PUSH0 REVERT JUMPDEST PUSH0 PUSH1 0x2 DUP3 DIV SWAP1 POP PUSH1 0x1 DUP3 AND DUP1 PUSH3 0x35D JUMPI PUSH1 0x7F DUP3 AND SWAP2 POP JUMPDEST PUSH1 0x20 DUP3 LT DUP2 SUB PUSH3 0x373 JUMPI PUSH3 0x372 PUSH3 0x318 JUMP JUMPDEST JUMPDEST POP SWAP2 SWAP1 POP JUMP JUMPDEST PUSH0 DUP2 SWAP1 POP DUP2 PUSH0 MSTORE PUSH1 0x20 PUSH0 KECCAK256 SWAP1 POP SWAP2 SWAP1 POP JUMP JUMPDEST PUSH0 PUSH1 0x20 PUSH1 0x1F DUP4 ADD DIV SWAP1 POP SWAP2 SWAP1 POP JUMP JUMPDEST PUSH0 DUP3 DUP3 SHL SWAP1 POP SWAP3 SWAP2 POP POP JUMP JUMPDEST PUSH0 PUSH1 0x8 DUP4 MUL PUSH3 0x3D7 PUSH32 0xFFFFFFFFFFFFFFFFFFFFFFFFFFFFFFFFFFFFFFFFFFFFFFFFFFFFFFFFFFFFFFFF DUP3 PUSH3 0x39A JUMP JUMPDEST PUSH3 0x3E3 DUP7 DUP4 PUSH3 0x39A JUMP JUMPDEST SWAP6 POP DUP1 NOT DUP5 AND SWAP4 POP DUP1 DUP7 AND DUP5 OR SWAP3 POP POP POP SWAP4 SWAP3 POP POP POP JUMP JUMPDEST PUSH0 DUP2 SWAP1 POP SWAP2 SWAP1 POP JUMP JUMPDEST PUSH0 DUP2 SWAP1 POP SWAP2 SWAP1 POP JUMP JUMPDEST PUSH0 PUSH3 0x42D PUSH3 0x427 PUSH3 0x421 DUP5 PUSH3 0x3FB JUMP JUMPDEST PUSH3 0x404 JUMP JUMPDEST PUSH3 0x3FB JUMP JUMPDEST SWAP1 POP SWAP2 SWAP1 POP JUMP JUMPDEST PUSH0 DUP2 SWAP1 POP SWAP2 SWAP1 POP JUMP JUMPDEST PUSH3 0x448 DUP4 PUSH3 0x40D JUMP JUMPDEST PUSH3 0x460 PUSH3 0x457 DUP3 PUSH3 0x434 JUMP JUMPDEST DUP5 DUP5 SLOAD PUSH3 0x3A6 JUMP JUMPDEST DUP3 SSTORE POP POP POP POP JUMP JUMPDEST PUSH0 SWAP1 JUMP JUMPDEST PUSH3 0x476 PUSH3 0x468 JUMP JUMPDEST PUSH3 0x483 DUP2 DUP5 DUP5 PUSH3 0x43D JUMP JUMPDEST POP POP POP JUMP JUMPDEST JUMPDEST DUP2 DUP2 LT ISZERO PUSH3 0x4AA JUMPI PUSH3 0x49E PUSH0 DUP3 PUSH3 0x46C JUMP JUMPDEST PUSH1 0x1 DUP2 ADD SWAP1 POP PUSH3 0x489 JUMP JUMPDEST POP POP JUMP JUMPDEST PUSH1 0x1F DUP3 GT ISZERO PUSH3 0x4F9 JUMPI PUSH3 0x4C3 DUP2 PUSH3 0x379 JUMP JUMPDEST PUSH3 0x4CE DUP5 PUSH3 0x38B JUMP JUMPDEST DUP2 ADD PUSH1 0x20 DUP6 LT ISZERO PUSH3 0x4DE JUMPI DUP2 SWAP1 POP JUMPDEST PUSH3 0x4F6 PUSH3 0x4ED DUP6 PUSH3 0x38B JUMP JUMPDEST DUP4 ADD DUP3 PUSH3 0x488 JUMP JUMPDEST POP POP JUMPDEST POP POP POP JUMP JUMPDEST PUSH0 DUP3 DUP3 SHR SWAP1 POP SWAP3 SWAP2 POP POP JUMP JUMPDEST PUSH0 PUSH3 0x51B PUSH0 NOT DUP5 PUSH1 0x8 MUL PUSH3 0x4FE JUMP JUMPDEST NOT DUP1 DUP4 AND SWAP2 POP POP SWAP3 SWAP2 POP POP JUMP JUMPDEST PUSH0 PUSH3 0x535 DUP4 DUP4 PUSH3 0x50A JUMP JUMPDEST SWAP2 POP DUP3 PUSH1 0x2 MUL DUP3 OR SWAP1 POP SWAP3 SWAP2 POP POP JUMP JUMPDEST PUSH3 0x550 DUP3 PUSH3 0x30E JUMP JUMPDEST PUSH8 0xFFFFFFFFFFFFFFFF DUP2 GT ISZERO PUSH3 0x56C JUMPI PUSH3 0x56B PUSH3 0x163 JUMP JUMPDEST JUMPDEST PUSH3 0x578 DUP3 SLOAD PUSH3 0x345 JUMP JUMPDEST PUSH3 0x585 DUP3 DUP3 DUP6 PUSH3 0x4AE JUMP JUMPDEST PUSH0 PUSH1 0x20 SWAP1 POP PUSH1 0x1F DUP4 GT PUSH1 0x1 DUP2 EQ PUSH3 0x5BB JUMPI PUSH0 DUP5 ISZERO PUSH3 0x5A6 JUMPI DUP3 DUP8 ADD MLOAD SWAP1 POP JUMPDEST PUSH3 0x5B2 DUP6 DUP3 PUSH3 0x528 JUMP JUMPDEST DUP7 SSTORE POP PUSH3 0x621 JUMP JUMPDEST PUSH1 0x1F NOT DUP5 AND PUSH3 0x5CB DUP7 PUSH3 0x379 JUMP JUMPDEST PUSH0 JUMPDEST DUP3 DUP2 LT ISZERO PUSH3 0x5F4 JUMPI DUP5 DUP10 ADD MLOAD DUP3 SSTORE PUSH1 0x1 DUP3 ADD SWAP2 POP PUSH1 0x20 DUP6 ADD SWAP5 POP PUSH1 0x20 DUP2 ADD SWAP1 POP PUSH3 0x5CD JUMP JUMPDEST DUP7 DUP4 LT ISZERO PUSH3 0x614 JUMPI DUP5 DUP10 ADD MLOAD PUSH3 0x610 PUSH1 0x1F DUP10 AND DUP3 PUSH3 0x50A JUMP JUMPDEST DUP4 SSTORE POP JUMPDEST PUSH1 0x1 PUSH1 0x2 DUP9 MUL ADD DUP9 SSTORE POP POP POP JUMPDEST POP POP POP POP POP POP JUMP JUMPDEST PUSH32 0x4E487B7100000000000000000000000000000000000000000000000000000000 PUSH0 MSTORE PUSH1 0x21 PUSH1 0x4 MSTORE PUSH1 0x24 PUSH0 REVERT JUMPDEST PUSH2 0xAB1 DUP1 PUSH3 0x664 PUSH0 CODECOPY PUSH0 RETURN INVALID PUSH1 0x80 PUSH1 0x40 MSTORE CALLVALUE DUP1 ISZERO PUSH2 0xF JUMPI PUSH0 DUP1 REVERT JUMPDEST POP PUSH1 0x4 CALLDATASIZE LT PUSH2 0x4A JUMPI PUSH0 CALLDATALOAD PUSH1 0xE0 SHR DUP1 PUSH4 0x1865C57D EQ PUSH2 0x4E JUMPI DUP1 PUSH4 0x246F8B96 EQ PUSH2 0x6C JUMPI DUP1 PUSH4 0x3B710F8C EQ PUSH2 0x76 JUMPI DUP1 PUSH4 0x893D20E8 EQ PUSH2 0x92 JUMPI JUMPDEST PUSH0 DUP1 REVERT JUMPDEST PUSH2 0x56 PUSH2 0xB1 JUMP JUMPDEST PUSH1 0x40 MLOAD PUSH2 0x63 SWAP2 SWAP1 PUSH2 0x50C JUMP JUMPDEST PUSH1 0x40 MLOAD DUP1 SWAP2 SUB SWAP1 RETURN JUMPDEST PUSH2 0x74 PUSH2 0xC6 JUMP JUMPDEST STOP JUMPDEST PUSH2 0x90 PUSH1 0x4 DUP1 CALLDATASIZE SUB DUP2 ADD SWAP1 PUSH2 0x8B SWAP2 SWAP1 PUSH2 0x5E8 JUMP JUMPDEST PUSH2 0x21F JUMP JUMPDEST STOP JUMPDEST PUSH2 0x9A PUSH2 0x385 JUMP JUMPDEST PUSH1 0x40 MLOAD PUSH2 0xA8 SWAP3 SWAP2 SWAP1 PUSH2 0x6DE JUMP JUMPDEST PUSH1 0x40 MLOAD DUP1 SWAP2 SUB SWAP1 RETURN JUMPDEST PUSH0 PUSH1 0x2 PUSH0 SWAP1 SLOAD SWAP1 PUSH2 0x100 EXP SWAP1 DIV PUSH1 0xFF AND SWAP1 POP SWAP1 JUMP JUMPDEST PUSH0 DUP1 ADD PUSH0 SWAP1 SLOAD SWAP1 PUSH2 0x100 EXP SWAP1 DIV PUSH20 0xFFFFFFFFFFFFFFFFFFFFFFFFFFFFFFFFFFFFFFFF AND PUSH20 0xFFFFFFFFFFFFFFFFFFFFFFFFFFFFFFFFFFFFFFFF AND CALLER PUSH20 0xFFFFFFFFFFFFFFFFFFFFFFFFFFFFFFFFFFFFFFFF AND EQ PUSH2 0x156 JUMPI PUSH1 0x40 MLOAD PUSH32 0x8C379A000000000000000000000000000000000000000000000000000000000 DUP2 MSTORE PUSH1 0x4 ADD PUSH2 0x14D SWAP1 PUSH2 0x756 JUMP JUMPDEST PUSH1 0x40 MLOAD DUP1 SWAP2 SUB SWAP1 REVERT JUMPDEST PUSH0 DUP1 ADD PUSH0 SWAP1 SLOAD SWAP1 PUSH2 0x100 EXP SWAP1 DIV PUSH20 0xFFFFFFFFFFFFFFFFFFFFFFFFFFFFFFFFFFFFFFFF AND PUSH20 0xFFFFFFFFFFFFFFFFFFFFFFFFFFFFFFFFFFFFFFFF AND PUSH32 0x839C3949C3979499299683CC9D04485EA754BC389B14E057E2AF661178985B02 PUSH1 0x40 MLOAD PUSH1 0x40 MLOAD DUP1 SWAP2 SUB SWAP1 LOG2 PUSH0 DUP1 PUSH0 DUP3 ADD PUSH0 PUSH2 0x100 EXP DUP2 SLOAD SWAP1 PUSH20 0xFFFFFFFFFFFFFFFFFFFFFFFFFFFFFFFFFFFFFFFF MUL NOT AND SWAP1 SSTORE PUSH1 0x1 DUP3 ADD PUSH0 PUSH2 0x1F1 SWAP2 SWAP1 PUSH2 0x441 JUMP JUMPDEST POP POP PUSH1 0x1 PUSH1 0x2 PUSH0 PUSH2 0x100 EXP DUP2 SLOAD DUP2 PUSH1 0xFF MUL NOT AND SWAP1 DUP4 PUSH1 0x1 DUP2 GT ISZERO PUSH2 0x218 JUMPI PUSH2 0x217 PUSH2 0x499 JUMP JUMPDEST JUMPDEST MUL OR SWAP1 SSTORE POP JUMP JUMPDEST PUSH0 DUP1 ADD PUSH0 SWAP1 SLOAD SWAP1 PUSH2 0x100 EXP SWAP1 DIV PUSH20 0xFFFFFFFFFFFFFFFFFFFFFFFFFFFFFFFFFFFFFFFF AND PUSH20 0xFFFFFFFFFFFFFFFFFFFFFFFFFFFFFFFFFFFFFFFF AND CALLER PUSH20 0xFFFFFFFFFFFFFFFFFFFFFFFFFFFFFFFFFFFFFFFF AND EQ PUSH2 0x2AF JUMPI PUSH1 0x40 MLOAD PUSH32 0x8C379A000000000000000000000000000000000000000000000000000000000 DUP2 MSTORE PUSH1 0x4 ADD PUSH2 0x2A6 SWAP1 PUSH2 0x756 JUMP JUMPDEST PUSH1 0x40 MLOAD DUP1 SWAP2 SUB SWAP1 REVERT JUMPDEST DUP3 PUSH0 DUP1 ADD PUSH0 PUSH2 0x100 EXP DUP2 SLOAD DUP2 PUSH20 0xFFFFFFFFFFFFFFFFFFFFFFFFFFFFFFFFFFFFFFFF MUL NOT AND SWAP1 DUP4 PUSH20 0xFFFFFFFFFFFFFFFFFFFFFFFFFFFFFFFFFFFFFFFF AND MUL OR SWAP1 SSTORE POP DUP2 DUP2 PUSH0 PUSH1 0x1 ADD SWAP2 DUP3 PUSH2 0x303 SWAP3 SWAP2 SWAP1 PUSH2 0x9AE JUMP JUMPDEST POP DUP3 PUSH20 0xFFFFFFFFFFFFFFFFFFFFFFFFFFFFFFFFFFFFFFFF AND PUSH0 DUP1 ADD PUSH0 SWAP1 SLOAD SWAP1 PUSH2 0x100 EXP SWAP1 DIV PUSH20 0xFFFFFFFFFFFFFFFFFFFFFFFFFFFFFFFFFFFFFFFF AND PUSH20 0xFFFFFFFFFFFFFFFFFFFFFFFFFFFFFFFFFFFFFFFF AND PUSH32 0xD101AB92B13BBA49BC5295C481531CCBFEFECA14DAD346F19BE0263A83CC3482 PUSH1 0x40 MLOAD PUSH1 0x40 MLOAD DUP1 SWAP2 SUB SWAP1 LOG3 POP POP POP JUMP JUMPDEST PUSH0 PUSH1 0x60 PUSH0 DUP1 ADD PUSH0 SWAP1 SLOAD SWAP1 PUSH2 0x100 EXP SWAP1 DIV PUSH20 0xFFFFFFFFFFFFFFFFFFFFFFFFFFFFFFFFFFFFFFFF AND PUSH0 PUSH1 0x1 ADD DUP1 DUP1 SLOAD PUSH2 0x3BB SWAP1 PUSH2 0x7D8 JUMP JUMPDEST DUP1 PUSH1 0x1F ADD PUSH1 0x20 DUP1 SWAP2 DIV MUL PUSH1 0x20 ADD PUSH1 0x40 MLOAD SWAP1 DUP2 ADD PUSH1 0x40 MSTORE DUP1 SWAP3 SWAP2 SWAP1 DUP2 DUP2 MSTORE PUSH1 0x20 ADD DUP3 DUP1 SLOAD PUSH2 0x3E7 SWAP1 PUSH2 0x7D8 JUMP JUMPDEST DUP1 ISZERO PUSH2 0x432 JUMPI DUP1 PUSH1 0x1F LT PUSH2 0x409 JUMPI PUSH2 0x100 DUP1 DUP4 SLOAD DIV MUL DUP4 MSTORE SWAP2 PUSH1 0x20 ADD SWAP2 PUSH2 0x432 JUMP JUMPDEST DUP3 ADD SWAP2 SWAP1 PUSH0 MSTORE PUSH1 0x20 PUSH0 KECCAK256 SWAP1 JUMPDEST DUP2 SLOAD DUP2 MSTORE SWAP1 PUSH1 0x1 ADD SWAP1 PUSH1 0x20 ADD DUP1 DUP4 GT PUSH2 0x415 JUMPI DUP3 SWAP1 SUB PUSH1 0x1F AND DUP3 ADD SWAP2 JUMPDEST POP POP POP POP POP SWAP1 POP SWAP2 POP SWAP2 POP SWAP1 SWAP2 JUMP JUMPDEST POP DUP1 SLOAD PUSH2 0x44D SWAP1 PUSH2 0x7D8 JUMP JUMPDEST PUSH0 DUP3 SSTORE DUP1 PUSH1 0x1F LT PUSH2 0x45E JUMPI POP PUSH2 0x47B JUMP JUMPDEST PUSH1 0x1F ADD PUSH1 0x20 SWAP1 DIV SWAP1 PUSH0 MSTORE PUSH1 0x20 PUSH0 KECCAK256 SWAP1 DUP2 ADD SWAP1 PUSH2 0x47A SWAP2 SWAP1 PUSH2 0x47E JUMP JUMPDEST JUMPDEST POP JUMP JUMPDEST JUMPDEST DUP1 DUP3 GT ISZERO PUSH2 0x495 JUMPI PUSH0 DUP2 PUSH0 SWAP1 SSTORE POP PUSH1 0x1 ADD PUSH2 0x47F JUMP JUMPDEST POP SWAP1 JUMP JUMPDEST PUSH32 0x4E487B7100000000000000000000000000000000000000000000000000000000 PUSH0 MSTORE PUSH1 0x21 PUSH1 0x4 MSTORE PUSH1 0x24 PUSH0 REVERT JUMPDEST PUSH1 0x2 DUP2 LT PUSH2 0x4D7 JUMPI PUSH2 0x4D6 PUSH2 0x499 JUMP JUMPDEST JUMPDEST POP JUMP JUMPDEST PUSH0 DUP2 SWAP1 POP PUSH2 0x4E7 DUP3 PUSH2 0x4C6 JUMP JUMPDEST SWAP2 SWAP1 POP JUMP JUMPDEST PUSH0 PUSH2 0x4F6 DUP3 PUSH2 0x4DA JUMP JUMPDEST SWAP1 POP SWAP2 SWAP1 POP JUMP JUMPDEST PUSH2 0x506 DUP2 PUSH2 0x4EC JUMP JUMPDEST DUP3 MSTORE POP POP JUMP JUMPDEST PUSH0 PUSH1 0x20 DUP3 ADD SWAP1 POP PUSH2 0x51F PUSH0 DUP4 ADD DUP5 PUSH2 0x4FD JUMP JUMPDEST SWAP3 SWAP2 POP POP JUMP JUMPDEST PUSH0 DUP1 REVERT JUMPDEST PUSH0 DUP1 REVERT JUMPDEST PUSH0 PUSH20 0xFFFFFFFFFFFFFFFFFFFFFFFFFFFFFFFFFFFFFFFF DUP3 AND SWAP1 POP SWAP2 SWAP1 POP JUMP JUMPDEST PUSH0 PUSH2 0x556 DUP3 PUSH2 0x52D JUMP JUMPDEST SWAP1 POP SWAP2 SWAP1 POP JUMP JUMPDEST PUSH2 0x566 DUP2 PUSH2 0x54C JUMP JUMPDEST DUP2 EQ PUSH2 0x570 JUMPI PUSH0 DUP1 REVERT JUMPDEST POP JUMP JUMPDEST PUSH0 DUP2 CALLDATALOAD SWAP1 POP PUSH2 0x581 DUP2 PUSH2 0x55D JUMP JUMPDEST SWAP3 SWAP2 POP POP JUMP JUMPDEST PUSH0 DUP1 REVERT JUMPDEST PUSH0 DUP1 REVERT JUMPDEST PUSH0 DUP1 REVERT JUMPDEST PUSH0 DUP1 DUP4 PUSH1 0x1F DUP5 ADD SLT PUSH2 0x5A8 JUMPI PUSH2 0x5A7 PUSH2 0x587 JUMP JUMPDEST JUMPDEST DUP3 CALLDATALOAD SWAP1 POP PUSH8 0xFFFFFFFFFFFFFFFF DUP2 GT ISZERO PUSH2 0x5C5 JUMPI PUSH2 0x5C4 PUSH2 0x58B JUMP JUMPDEST JUMPDEST PUSH1 0x20 DUP4 ADD SWAP2 POP DUP4 PUSH1 0x1 DUP3 MUL DUP4 ADD GT ISZERO PUSH2 0x5E1 JUMPI PUSH2 0x5E0 PUSH2 0x58F JUMP JUMPDEST JUMPDEST SWAP3 POP SWAP3 SWAP1 POP JUMP JUMPDEST PUSH0 DUP1 PUSH0 PUSH1 0x40 DUP5 DUP7 SUB SLT ISZERO PUSH2 0x5FF JUMPI PUSH2 0x5FE PUSH2 0x525 JUMP JUMPDEST JUMPDEST PUSH0 PUSH2 0x60C DUP7 DUP3 DUP8 ADD PUSH2 0x573 JUMP JUMPDEST SWAP4 POP POP PUSH1 0x20 DUP5 ADD CALLDATALOAD PUSH8 0xFFFFFFFFFFFFFFFF DUP2 GT ISZERO PUSH2 0x62D JUMPI PUSH2 0x62C PUSH2 0x529 JUMP JUMPDEST JUMPDEST PUSH2 0x639 DUP7 DUP3 DUP8 ADD PUSH2 0x593 JUMP JUMPDEST SWAP3 POP SWAP3 POP POP SWAP3 POP SWAP3 POP SWAP3 JUMP JUMPDEST PUSH2 0x64E DUP2 PUSH2 0x54C JUMP JUMPDEST DUP3 MSTORE POP POP JUMP JUMPDEST PUSH0 DUP2 MLOAD SWAP1 POP SWAP2 SWAP1 POP JUMP JUMPDEST PUSH0 DUP3 DUP3 MSTORE PUSH1 0x20 DUP3 ADD SWAP1 POP SWAP3 SWAP2 POP POP JUMP JUMPDEST PUSH0 JUMPDEST DUP4 DUP2 LT ISZERO PUSH2 0x68B JUMPI DUP1 DUP3 ADD MLOAD DUP2 DUP5 ADD MSTORE PUSH1 0x20 DUP2 ADD SWAP1 POP PUSH2 0x670 JUMP JUMPDEST PUSH0 DUP5 DUP5 ADD MSTORE POP POP POP POP JUMP JUMPDEST PUSH0 PUSH1 0x1F NOT PUSH1 0x1F DUP4 ADD AND SWAP1 POP SWAP2 SWAP1 POP JUMP JUMPDEST PUSH0 PUSH2 0x6B0 DUP3 PUSH2 0x654 JUMP JUMPDEST PUSH2 0x6BA DUP2 DUP6 PUSH2 0x65E JUMP JUMPDEST SWAP4 POP PUSH2 0x6CA DUP2 DUP6 PUSH1 0x20 DUP7 ADD PUSH2 0x66E JUMP JUMPDEST PUSH2 0x6D3 DUP2 PUSH2 0x696 JUMP JUMPDEST DUP5 ADD SWAP2 POP POP SWAP3 SWAP2 POP POP JUMP JUMPDEST PUSH0 PUSH1 0x40 DUP3 ADD SWAP1 POP PUSH2 0x6F1 PUSH0 DUP4 ADD DUP6 PUSH2 0x645 JUMP JUMPDEST DUP2 DUP2 SUB PUSH1 0x20 DUP4 ADD MSTORE PUSH2 0x703 DUP2 DUP5 PUSH2 0x6A6 JUMP JUMPDEST SWAP1 POP SWAP4 SWAP3 POP POP POP JUMP JUMPDEST PUSH32 0x43616C6C6572206973206E6F74206F776E657200000000000000000000000000 PUSH0 DUP3 ADD MSTORE POP JUMP JUMPDEST PUSH0 PUSH2 0x740 PUSH1 0x13 DUP4 PUSH2 0x65E JUMP JUMPDEST SWAP2 POP PUSH2 0x74B DUP3 PUSH2 0x70C JUMP JUMPDEST PUSH1 0x20 DUP3 ADD SWAP1 POP SWAP2 SWAP1 POP JUMP JUMPDEST PUSH0 PUSH1 0x20 DUP3 ADD SWAP1 POP DUP2 DUP2 SUB PUSH0 DUP4 ADD MSTORE PUSH2 0x76D DUP2 PUSH2 0x734 JUMP JUMPDEST SWAP1 POP SWAP2 SWAP1 POP JUMP JUMPDEST PUSH0 DUP3 SWAP1 POP SWAP3 SWAP2 POP POP JUMP JUMPDEST PUSH32 0x4E487B7100000000000000000000000000000000000000000000000000000000 PUSH0 MSTORE PUSH1 0x41 PUSH1 0x4 MSTORE PUSH1 0x24 PUSH0 REVERT JUMPDEST PUSH32 0x4E487B7100000000000000000000000000000000000000000000000000000000 PUSH0 MSTORE PUSH1 0x22 PUSH1 0x4 MSTORE PUSH1 0x24 PUSH0 REVERT JUMPDEST PUSH0 PUSH1 0x2 DUP3 DIV SWAP1 POP PUSH1 0x1 DUP3 AND DUP1 PUSH2 0x7EF JUMPI PUSH1 0x7F DUP3 AND SWAP2 POP JUMPDEST PUSH1 0x20 DUP3 LT DUP2 SUB PUSH2 0x802 JUMPI PUSH2 0x801 PUSH2 0x7AB JUMP JUMPDEST JUMPDEST POP SWAP2 SWAP1 POP JUMP JUMPDEST PUSH0 DUP2 SWAP1 POP DUP2 PUSH0 MSTORE PUSH1 0x20 PUSH0 KECCAK256 SWAP1 POP SWAP2 SWAP1 POP JUMP JUMPDEST PUSH0 PUSH1 0x20 PUSH1 0x1F DUP4 ADD DIV SWAP1 POP SWAP2 SWAP1 POP JUMP JUMPDEST PUSH0 DUP3 DUP3 SHL SWAP1 POP SWAP3 SWAP2 POP POP JUMP JUMPDEST PUSH0 PUSH1 0x8 DUP4 MUL PUSH2 0x864 PUSH32 0xFFFFFFFFFFFFFFFFFFFFFFFFFFFFFFFFFFFFFFFFFFFFFFFFFFFFFFFFFFFFFFFF DUP3 PUSH2 0x829 JUMP JUMPDEST PUSH2 0x86E DUP7 DUP4 PUSH2 0x829 JUMP JUMPDEST SWAP6 POP DUP1 NOT DUP5 AND SWAP4 POP DUP1 DUP7 AND DUP5 OR SWAP3 POP POP POP SWAP4 SWAP3 POP POP POP JUMP JUMPDEST PUSH0 DUP2 SWAP1 POP SWAP2 SWAP1 POP JUMP JUMPDEST PUSH0 DUP2 SWAP1 POP SWAP2 SWAP1 POP JUMP JUMPDEST PUSH0 PUSH2 0x8B2 PUSH2 0x8AD PUSH2 0x8A8 DUP5 PUSH2 0x886 JUMP JUMPDEST PUSH2 0x88F JUMP JUMPDEST PUSH2 0x886 JUMP JUMPDEST SWAP1 POP SWAP2 SWAP1 POP JUMP JUMPDEST PUSH0 DUP2 SWAP1 POP SWAP2 SWAP1 POP JUMP JUMPDEST PUSH2 0x8CB DUP4 PUSH2 0x898 JUMP JUMPDEST PUSH2 0x8DF PUSH2 0x8D7 DUP3 PUSH2 0x8B9 JUMP JUMPDEST DUP5 DUP5 SLOAD PUSH2 0x835 JUMP JUMPDEST DUP3 SSTORE POP POP POP POP JUMP JUMPDEST PUSH0 SWAP1 JUMP JUMPDEST PUSH2 0x8F3 PUSH2 0x8E7 JUMP JUMPDEST PUSH2 0x8FE DUP2 DUP5 DUP5 PUSH2 0x8C2 JUMP JUMPDEST POP POP POP JUMP JUMPDEST JUMPDEST DUP2 DUP2 LT ISZERO PUSH2 0x921 JUMPI PUSH2 0x916 PUSH0 DUP3 PUSH2 0x8EB JUMP JUMPDEST PUSH1 0x1 DUP2 ADD SWAP1 POP PUSH2 0x904 JUMP JUMPDEST POP POP JUMP JUMPDEST PUSH1 0x1F DUP3 GT ISZERO PUSH2 0x966 JUMPI PUSH2 0x937 DUP2 PUSH2 0x808 JUMP JUMPDEST PUSH2 0x940 DUP5 PUSH2 0x81A JUMP JUMPDEST DUP2 ADD PUSH1 0x20 DUP6 LT ISZERO PUSH2 0x94F JUMPI DUP2 SWAP1 POP JUMPDEST PUSH2 0x963 PUSH2 0x95B DUP6 PUSH2 0x81A JUMP JUMPDEST DUP4 ADD DUP3 PUSH2 0x903 JUMP JUMPDEST POP POP JUMPDEST POP POP POP JUMP JUMPDEST PUSH0 DUP3 DUP3 SHR SWAP1 POP SWAP3 SWAP2 POP POP JUMP JUMPDEST PUSH0 PUSH2 0x986 PUSH0 NOT DUP5 PUSH1 0x8 MUL PUSH2 0x96B JUMP JUMPDEST NOT DUP1 DUP4 AND SWAP2 POP POP SWAP3 SWAP2 POP POP JUMP JUMPDEST PUSH0 PUSH2 0x99E DUP4 DUP4 PUSH2 0x977 JUMP JUMPDEST SWAP2 POP DUP3 PUSH1 0x2 MUL DUP3 OR SWAP1 POP SWAP3 SWAP2 POP POP JUMP JUMPDEST PUSH2 0x9B8 DUP4 DUP4 PUSH2 0x774 JUMP JUMPDEST PUSH8 0xFFFFFFFFFFFFFFFF DUP2 GT ISZERO PUSH2 0x9D1 JUMPI PUSH2 0x9D0 PUSH2 0x77E JUMP JUMPDEST JUMPDEST PUSH2 0x9DB DUP3 SLOAD PUSH2 0x7D8 JUMP JUMPDEST PUSH2 0x9E6 DUP3 DUP3 DUP6 PUSH2 0x925 JUMP JUMPDEST PUSH0 PUSH1 0x1F DUP4 GT PUSH1 0x1 DUP2 EQ PUSH2 0xA13 JUMPI PUSH0 DUP5 ISZERO PUSH2 0xA01 JUMPI DUP3 DUP8 ADD CALLDATALOAD SWAP1 POP JUMPDEST PUSH2 0xA0B DUP6 DUP3 PUSH2 0x993 JUMP JUMPDEST DUP7 SSTORE POP PUSH2 0xA72 JUMP JUMPDEST PUSH1 0x1F NOT DUP5 AND PUSH2 0xA21 DUP7 PUSH2 0x808 JUMP JUMPDEST PUSH0 JUMPDEST DUP3 DUP2 LT ISZERO PUSH2 0xA48 JUMPI DUP5 DUP10 ADD CALLDATALOAD DUP3 SSTORE PUSH1 0x1 DUP3 ADD SWAP2 POP PUSH1 0x20 DUP6 ADD SWAP5 POP PUSH1 0x20 DUP2 ADD SWAP1 POP PUSH2 0xA23 JUMP JUMPDEST DUP7 DUP4 LT ISZERO PUSH2 0xA65 JUMPI DUP5 DUP10 ADD CALLDATALOAD PUSH2 0xA61 PUSH1 0x1F DUP10 AND DUP3 PUSH2 0x977 JUMP JUMPDEST DUP4 SSTORE POP JUMPDEST PUSH1 0x1 PUSH1 0x2 DUP9 MUL ADD DUP9 SSTORE POP POP POP JUMPDEST POP POP POP POP POP POP POP JUMP INVALID LOG2 PUSH5 0x6970667358 0x22 SLT KECCAK256 0xDD 0xE8 SWAP9 0xF9 KECCAK256 0xED 0x4A NOT TIMESTAMP SLT 0xB8 MOD 0x4A SUB 0xC7 PUSH11 0xE4A452B370478B8FEF2227 PUSH26 0x42A82F3164736F6C634300081400330000000000000000000000 "
		},
		"gasEstimates": {
			"creation": {
				"codeDepositCost": "547400",
				"executionCost": "infinite",
				"totalCost": "infinite"
			},
			"external": {
				"changeOwner(address,string)": "infinite",
				"getOwner()": "infinite",
				"getState()": "2539",
				"removeOwner()": "infinite"
			}
		},
		"methodIdentifiers": {
			"changeOwner(address,string)": "3b710f8c",
			"getOwner()": "893d20e8",
			"getState()": "1865c57d",
			"removeOwner()": "246f8b96"
		}
	},
	"abi": [
		{
			"inputs": [
				{
					"internalType": "string",
					"name": "name",
					"type": "string"
				}
			],
			"stateMutability": "nonpayable",
			"type": "constructor"
		},
		{
			"anonymous": false,
			"inputs": [
				{
					"indexed": true,
					"internalType": "address",
					"name": "oldOwnerAddr",
					"type": "address"
				}
			],
			"name": "ownerRemoved",
			"type": "event"
		},
		{
			"anonymous": false,
			"inputs": [
				{
					"indexed": true,
					"internalType": "address",
					"name": "oldOwnerAddr",
					"type": "address"
				},
				{
					"indexed": true,
					"internalType": "address",
					"name": "newOwnerAddr",
					"type": "address"
				}
			],
			"name": "ownerSet",
			"type": "event"
		},
		{
			"inputs": [
				{
					"internalType": "address",
					"name": "addr",
					"type": "address"
				},
				{
					"internalType": "string",
					"name": "name",
					"type": "string"
				}
			],
			"name": "changeOwner",
			"outputs": [],
			"stateMutability": "nonpayable",
			"type": "function"
		},
		{
			"inputs": [],
			"name": "getOwner",
			"outputs": [
				{
					"internalType": "address",
					"name": "",
					"type": "address"
				},
				{
					"internalType": "string",
					"name": "",
					"type": "string"
				}
			],
			"stateMutability": "view",
			"type": "function"
		},
		{
			"inputs": [],
			"name": "getState",
			"outputs": [
				{
					"internalType": "enum Owner.State",
					"name": "",
					"type": "uint8"
				}
			],
			"stateMutability": "view",
			"type": "function"
		},
		{
			"inputs": [],
			"name": "removeOwner",
			"outputs": [],
			"stateMutability": "nonpayable",
			"type": "function"
		}
	]
}